{
  "_format": "hh-sol-artifact-1",
  "contractName": "BorrowerOperationsTester",
  "sourceName": "contracts/TestContracts/BorrowerOperationsTester.sol",
  "abi": [
    {
      "anonymous": false,
      "inputs": [
        {
          "indexed": false,
          "internalType": "address",
          "name": "_activePoolAddress",
          "type": "address"
        }
      ],
      "name": "ActivePoolAddressChanged",
      "type": "event"
    },
    {
      "anonymous": false,
      "inputs": [
        {
          "indexed": false,
          "internalType": "address",
          "name": "_collSurplusPoolAddress",
          "type": "address"
        }
      ],
      "name": "CollSurplusPoolAddressChanged",
      "type": "event"
    },
    {
      "anonymous": false,
      "inputs": [
        {
          "indexed": false,
          "internalType": "address",
          "name": "_defaultPoolAddress",
          "type": "address"
        }
      ],
      "name": "DefaultPoolAddressChanged",
      "type": "event"
    },
    {
      "anonymous": false,
      "inputs": [
        {
          "indexed": false,
          "internalType": "address",
          "name": "_gasPoolAddress",
          "type": "address"
        }
      ],
      "name": "GasPoolAddressChanged",
      "type": "event"
    },
    {
      "anonymous": false,
      "inputs": [
        {
          "indexed": false,
          "internalType": "address",
          "name": "_lqtyStakingAddress",
          "type": "address"
        }
      ],
      "name": "LQTYStakingAddressChanged",
      "type": "event"
    },
    {
      "anonymous": false,
      "inputs": [
        {
          "indexed": true,
          "internalType": "address",
          "name": "_borrower",
          "type": "address"
        },
        {
          "indexed": false,
          "internalType": "uint256",
          "name": "_LUSDFee",
          "type": "uint256"
        }
      ],
      "name": "LUSDBorrowingFeePaid",
      "type": "event"
    },
    {
      "anonymous": false,
      "inputs": [
        {
          "indexed": false,
          "internalType": "address",
          "name": "_lusdTokenAddress",
          "type": "address"
        }
      ],
      "name": "LUSDTokenAddressChanged",
      "type": "event"
    },
    {
      "anonymous": false,
      "inputs": [
        {
          "indexed": true,
          "internalType": "address",
          "name": "previousOwner",
          "type": "address"
        },
        {
          "indexed": true,
          "internalType": "address",
          "name": "newOwner",
          "type": "address"
        }
      ],
      "name": "OwnershipTransferred",
      "type": "event"
    },
    {
      "anonymous": false,
      "inputs": [
        {
          "indexed": false,
          "internalType": "address",
          "name": "_newPriceFeedAddress",
          "type": "address"
        }
      ],
      "name": "PriceFeedAddressChanged",
      "type": "event"
    },
    {
      "anonymous": false,
      "inputs": [
        {
          "indexed": false,
          "internalType": "address",
          "name": "_sortedTrovesAddress",
          "type": "address"
        }
      ],
      "name": "SortedTrovesAddressChanged",
      "type": "event"
    },
    {
      "anonymous": false,
      "inputs": [
        {
          "indexed": false,
          "internalType": "address",
          "name": "_stabilityPoolAddress",
          "type": "address"
        }
      ],
      "name": "StabilityPoolAddressChanged",
      "type": "event"
    },
    {
      "anonymous": false,
      "inputs": [
        {
          "indexed": true,
          "internalType": "address",
          "name": "_borrower",
          "type": "address"
        },
        {
          "indexed": false,
          "internalType": "uint256",
          "name": "arrayIndex",
          "type": "uint256"
        }
      ],
      "name": "TroveCreated",
      "type": "event"
    },
    {
      "anonymous": false,
      "inputs": [
        {
          "indexed": false,
          "internalType": "address",
          "name": "_newTroveManagerAddress",
          "type": "address"
        }
      ],
      "name": "TroveManagerAddressChanged",
      "type": "event"
    },
    {
      "anonymous": false,
      "inputs": [
        {
          "indexed": true,
          "internalType": "address",
          "name": "_borrower",
          "type": "address"
        },
        {
          "indexed": false,
          "internalType": "uint256",
          "name": "_debt",
          "type": "uint256"
        },
        {
          "indexed": false,
          "internalType": "uint256",
          "name": "_coll",
          "type": "uint256"
        },
        {
          "indexed": false,
          "internalType": "uint256",
          "name": "stake",
          "type": "uint256"
        },
        {
          "indexed": false,
          "internalType": "enum BorrowerOperations.BorrowerOperation",
          "name": "operation",
          "type": "uint8"
        }
      ],
      "name": "TroveUpdated",
      "type": "event"
    },
    {
      "inputs": [],
      "name": "BORROWING_FEE_FLOOR",
      "outputs": [
        {
          "internalType": "uint256",
          "name": "",
          "type": "uint256"
        }
      ],
      "stateMutability": "view",
      "type": "function"
    },
    {
      "inputs": [],
      "name": "CCR",
      "outputs": [
        {
          "internalType": "uint256",
          "name": "",
          "type": "uint256"
        }
      ],
      "stateMutability": "view",
      "type": "function"
    },
    {
      "inputs": [],
      "name": "DECIMAL_PRECISION",
      "outputs": [
        {
          "internalType": "uint256",
          "name": "",
          "type": "uint256"
        }
      ],
      "stateMutability": "view",
      "type": "function"
    },
    {
      "inputs": [],
      "name": "LUSD_GAS_COMPENSATION",
      "outputs": [
        {
          "internalType": "uint256",
          "name": "",
          "type": "uint256"
        }
      ],
      "stateMutability": "view",
      "type": "function"
    },
    {
      "inputs": [],
      "name": "MCR",
      "outputs": [
        {
          "internalType": "uint256",
          "name": "",
          "type": "uint256"
        }
      ],
      "stateMutability": "view",
      "type": "function"
    },
    {
      "inputs": [],
      "name": "MIN_NET_DEBT",
      "outputs": [
        {
          "internalType": "uint256",
          "name": "",
          "type": "uint256"
        }
      ],
      "stateMutability": "view",
      "type": "function"
    },
    {
      "inputs": [],
      "name": "NAME",
      "outputs": [
        {
          "internalType": "string",
          "name": "",
          "type": "string"
        }
      ],
      "stateMutability": "view",
      "type": "function"
    },
    {
      "inputs": [],
      "name": "PERCENT_DIVISOR",
      "outputs": [
        {
          "internalType": "uint256",
          "name": "",
          "type": "uint256"
        }
      ],
      "stateMutability": "view",
      "type": "function"
    },
    {
      "inputs": [],
      "name": "_100pct",
      "outputs": [
        {
          "internalType": "uint256",
          "name": "",
          "type": "uint256"
        }
      ],
      "stateMutability": "view",
      "type": "function"
    },
    {
      "inputs": [],
      "name": "activePool",
      "outputs": [
        {
          "internalType": "contract IActivePool",
          "name": "",
          "type": "address"
        }
      ],
      "stateMutability": "view",
      "type": "function"
    },
    {
      "inputs": [
        {
          "internalType": "address",
          "name": "_upperHint",
          "type": "address"
        },
        {
          "internalType": "address",
          "name": "_lowerHint",
          "type": "address"
        }
      ],
      "name": "addColl",
      "outputs": [],
      "stateMutability": "payable",
      "type": "function"
    },
    {
      "inputs": [
        {
          "internalType": "uint256",
          "name": "_maxFeePercentage",
          "type": "uint256"
        },
        {
          "internalType": "uint256",
          "name": "_collWithdrawal",
          "type": "uint256"
        },
        {
          "internalType": "uint256",
          "name": "_LUSDChange",
          "type": "uint256"
        },
        {
          "internalType": "bool",
          "name": "_isDebtIncrease",
          "type": "bool"
        },
        {
          "internalType": "address",
          "name": "_upperHint",
          "type": "address"
        },
        {
          "internalType": "address",
          "name": "_lowerHint",
          "type": "address"
        }
      ],
      "name": "adjustTrove",
      "outputs": [],
      "stateMutability": "payable",
      "type": "function"
    },
    {
      "inputs": [
        {
          "internalType": "address",
          "name": "_borrower",
          "type": "address"
        },
        {
          "internalType": "uint256",
          "name": "_collWithdrawal",
          "type": "uint256"
        },
        {
          "internalType": "uint256",
          "name": "_debtChange",
          "type": "uint256"
        },
        {
          "internalType": "bool",
          "name": "_isDebtIncrease",
          "type": "bool"
        },
        {
          "internalType": "address",
          "name": "_upperHint",
          "type": "address"
        },
        {
          "internalType": "address",
          "name": "_lowerHint",
          "type": "address"
        }
      ],
      "name": "callInternalAdjustLoan",
      "outputs": [],
      "stateMutability": "nonpayable",
      "type": "function"
    },
    {
      "inputs": [],
      "name": "claimCollateral",
      "outputs": [],
      "stateMutability": "nonpayable",
      "type": "function"
    },
    {
      "inputs": [],
      "name": "closeTrove",
      "outputs": [],
      "stateMutability": "nonpayable",
      "type": "function"
    },
    {
      "inputs": [],
      "name": "defaultPool",
      "outputs": [
        {
          "internalType": "contract IDefaultPool",
          "name": "",
          "type": "address"
        }
      ],
      "stateMutability": "view",
      "type": "function"
    },
    {
      "inputs": [
        {
          "internalType": "uint256",
          "name": "_debt",
          "type": "uint256"
        }
      ],
      "name": "getCompositeDebt",
      "outputs": [
        {
          "internalType": "uint256",
          "name": "",
          "type": "uint256"
        }
      ],
      "stateMutability": "pure",
      "type": "function"
    },
    {
      "inputs": [],
      "name": "getEntireSystemColl",
      "outputs": [
        {
          "internalType": "uint256",
          "name": "entireSystemColl",
          "type": "uint256"
        }
      ],
      "stateMutability": "view",
      "type": "function"
    },
    {
      "inputs": [],
      "name": "getEntireSystemDebt",
      "outputs": [
        {
          "internalType": "uint256",
          "name": "entireSystemDebt",
          "type": "uint256"
        }
      ],
      "stateMutability": "view",
      "type": "function"
    },
    {
      "inputs": [
        {
          "internalType": "uint256",
          "name": "_coll",
          "type": "uint256"
        },
        {
          "internalType": "uint256",
          "name": "_debt",
          "type": "uint256"
        },
        {
          "internalType": "uint256",
          "name": "_collChange",
          "type": "uint256"
        },
        {
          "internalType": "bool",
          "name": "isCollIncrease",
          "type": "bool"
        },
        {
          "internalType": "uint256",
          "name": "_debtChange",
          "type": "uint256"
        },
        {
          "internalType": "bool",
          "name": "isDebtIncrease",
          "type": "bool"
        },
        {
          "internalType": "uint256",
          "name": "_price",
          "type": "uint256"
        }
      ],
      "name": "getNewICRFromTroveChange",
      "outputs": [
        {
          "internalType": "uint256",
          "name": "",
          "type": "uint256"
        }
      ],
      "stateMutability": "pure",
      "type": "function"
    },
    {
      "inputs": [
        {
          "internalType": "uint256",
          "name": "_collChange",
          "type": "uint256"
        },
        {
          "internalType": "bool",
          "name": "isCollIncrease",
          "type": "bool"
        },
        {
          "internalType": "uint256",
          "name": "_debtChange",
          "type": "uint256"
        },
        {
          "internalType": "bool",
          "name": "isDebtIncrease",
          "type": "bool"
        },
        {
          "internalType": "uint256",
          "name": "_price",
          "type": "uint256"
        }
      ],
      "name": "getNewTCRFromTroveChange",
      "outputs": [
        {
          "internalType": "uint256",
          "name": "",
          "type": "uint256"
        }
      ],
      "stateMutability": "view",
      "type": "function"
    },
    {
      "inputs": [
        {
          "internalType": "uint256",
          "name": "_coll",
          "type": "uint256"
        },
        {
          "internalType": "uint256",
          "name": "_price",
          "type": "uint256"
        }
      ],
      "name": "getUSDValue",
      "outputs": [
        {
          "internalType": "uint256",
          "name": "",
          "type": "uint256"
        }
      ],
      "stateMutability": "pure",
      "type": "function"
    },
    {
      "inputs": [],
      "name": "isOwner",
      "outputs": [
        {
          "internalType": "bool",
          "name": "",
          "type": "bool"
        }
      ],
      "stateMutability": "view",
      "type": "function"
    },
    {
      "inputs": [],
      "name": "lqtyStaking",
      "outputs": [
        {
          "internalType": "contract ILQTYStaking",
          "name": "",
          "type": "address"
        }
      ],
      "stateMutability": "view",
      "type": "function"
    },
    {
      "inputs": [],
      "name": "lqtyStakingAddress",
      "outputs": [
        {
          "internalType": "address",
          "name": "",
          "type": "address"
        }
      ],
      "stateMutability": "view",
      "type": "function"
    },
    {
      "inputs": [],
      "name": "lusdToken",
      "outputs": [
        {
          "internalType": "contract ILUSDToken",
          "name": "",
          "type": "address"
        }
      ],
      "stateMutability": "view",
      "type": "function"
    },
    {
      "inputs": [
        {
          "internalType": "address",
          "name": "_borrower",
          "type": "address"
        },
        {
          "internalType": "address",
          "name": "_upperHint",
          "type": "address"
        },
        {
          "internalType": "address",
          "name": "_lowerHint",
          "type": "address"
        }
      ],
      "name": "moveETHGainToTrove",
      "outputs": [],
      "stateMutability": "payable",
      "type": "function"
    },
    {
      "inputs": [
        {
          "internalType": "uint256",
          "name": "_maxFeePercentage",
          "type": "uint256"
        },
        {
          "internalType": "uint256",
          "name": "_LUSDAmount",
          "type": "uint256"
        },
        {
          "internalType": "address",
          "name": "_upperHint",
          "type": "address"
        },
        {
          "internalType": "address",
          "name": "_lowerHint",
          "type": "address"
        }
      ],
      "name": "openTrove",
      "outputs": [],
      "stateMutability": "payable",
      "type": "function"
    },
    {
      "inputs": [],
      "name": "owner",
      "outputs": [
        {
          "internalType": "address",
          "name": "",
          "type": "address"
        }
      ],
      "stateMutability": "view",
      "type": "function"
    },
    {
      "inputs": [],
      "name": "priceFeed",
      "outputs": [
        {
          "internalType": "contract IPriceFeed",
          "name": "",
          "type": "address"
        }
      ],
      "stateMutability": "view",
      "type": "function"
    },
    {
      "inputs": [
        {
          "internalType": "uint256",
          "name": "_LUSDAmount",
          "type": "uint256"
        },
        {
          "internalType": "address",
          "name": "_upperHint",
          "type": "address"
        },
        {
          "internalType": "address",
          "name": "_lowerHint",
          "type": "address"
        }
      ],
      "name": "repayLUSD",
      "outputs": [],
      "stateMutability": "nonpayable",
      "type": "function"
    },
    {
      "inputs": [
        {
          "internalType": "address",
          "name": "_troveManagerAddress",
          "type": "address"
        },
        {
          "internalType": "address",
          "name": "_activePoolAddress",
          "type": "address"
        },
        {
          "internalType": "address",
          "name": "_defaultPoolAddress",
          "type": "address"
        },
        {
          "internalType": "address",
          "name": "_stabilityPoolAddress",
          "type": "address"
        },
        {
          "internalType": "address",
          "name": "_gasPoolAddress",
          "type": "address"
        },
        {
          "internalType": "address",
          "name": "_collSurplusPoolAddress",
          "type": "address"
        },
        {
          "internalType": "address",
          "name": "_priceFeedAddress",
          "type": "address"
        },
        {
          "internalType": "address",
          "name": "_sortedTrovesAddress",
          "type": "address"
        },
        {
          "internalType": "address",
          "name": "_lusdTokenAddress",
          "type": "address"
        },
        {
          "internalType": "address",
          "name": "_lqtyStakingAddress",
          "type": "address"
        },
        {
          "internalType": "address",
          "name": "_treasury",
          "type": "address"
        }
      ],
      "name": "setAddresses",
      "outputs": [],
      "stateMutability": "nonpayable",
      "type": "function"
    },
    {
      "inputs": [],
      "name": "sortedTroves",
      "outputs": [
        {
          "internalType": "contract ISortedTroves",
          "name": "",
          "type": "address"
        }
      ],
      "stateMutability": "view",
      "type": "function"
    },
    {
      "inputs": [],
      "name": "troveManager",
      "outputs": [
        {
          "internalType": "contract ITroveManager",
          "name": "",
          "type": "address"
        }
      ],
      "stateMutability": "view",
      "type": "function"
    },
    {
      "inputs": [
        {
          "internalType": "uint256",
          "name": "_collWithdrawal",
          "type": "uint256"
        },
        {
          "internalType": "address",
          "name": "_upperHint",
          "type": "address"
        },
        {
          "internalType": "address",
          "name": "_lowerHint",
          "type": "address"
        }
      ],
      "name": "withdrawColl",
      "outputs": [],
      "stateMutability": "nonpayable",
      "type": "function"
    },
    {
      "inputs": [
        {
          "internalType": "uint256",
          "name": "_maxFeePercentage",
          "type": "uint256"
        },
        {
          "internalType": "uint256",
          "name": "_LUSDAmount",
          "type": "uint256"
        },
        {
          "internalType": "address",
          "name": "_upperHint",
          "type": "address"
        },
        {
          "internalType": "address",
          "name": "_lowerHint",
          "type": "address"
        }
      ],
      "name": "withdrawLUSD",
      "outputs": [],
      "stateMutability": "nonpayable",
      "type": "function"
    },
    {
      "stateMutability": "payable",
      "type": "receive"
    }
  ],
  "bytecode": "0x608060405234801561001057600080fd5b50600380546001600160a01b031916339081179091556040516000907f8be0079c531659141344cd1fd0a4f28419497f9722a3daafe3b4186f6b6457e0908290a36139a5806100606000396000f3fe6080604052600436106101d35760003560e01c8063761ab22c116100f85780638f32d59b116100905780638f32d59b14610662578063a20baee6146104b1578063a3a640171461068b578063a3f4df7e146106a0578063ae9187541461072a578063b83f91a21461073f578063c6a6cf2014610754578063ea9638bf1461079c578063f92d3433146107d4576101da565b8063761ab22c146104db578063794e5724146104f0578063795d26c3146105055780637985c5e41461051a5780637f7dde4a146105a3578063860665b3146105b857806387eb305d146105f2578063887105d3146106385780638da5cb5b1461064d576101da565b80634ff814431161016b5780634ff814431461036c57806351584ca4146103965780635530273c146103e85780635733d58f1461042957806368647db11461043e5780636f0b0c1c1461046c5780636f30d2121461048157806372fe25aa146104b1578063741bef1a146104c6576101da565b806304491fa7146101df5780630e704d50146102225780631184e5f8146102375780631bf435551461027e5780632cdcd722146102a55780632e86bbd8146102fc5780633cc74225146103115780633d83908a146103425780634870dd9a14610357576101da565b366101da57005b600080fd5b3480156101eb57600080fd5b506102206004803603606081101561020257600080fd5b508035906001600160a01b03602082013581169160400135166107e9565b005b34801561022e57600080fd5b50610220610800565b34801561024357600080fd5b506102206004803603608081101561025a57600080fd5b508035906020810135906001600160a01b0360408201358116916060013516610bfb565b34801561028a57600080fd5b50610293610c12565b60408051918252519081900360200190f35b3480156102b157600080fd5b50610220600480360360c08110156102c857600080fd5b506001600160a01b0381358116916020810135916040820135916060810135151591608082013581169160a0013516610c1f565b34801561030857600080fd5b50610293610c37565b34801561031d57600080fd5b50610326610c44565b604080516001600160a01b039092168252519081900360200190f35b34801561034e57600080fd5b50610326610c53565b34801561036357600080fd5b50610293610c62565b34801561037857600080fd5b506102936004803603602081101561038f57600080fd5b5035610c67565b3480156103a257600080fd5b50610293600480360360e08110156103b957600080fd5b50803590602081013590604081013590606081013515159060808101359060a081013515159060c00135610c78565b3480156103f457600080fd5b506102206004803603606081101561040b57600080fd5b508035906001600160a01b0360208201358116916040013516610c95565b34801561043557600080fd5b50610293610ca6565b6102206004803603604081101561045457600080fd5b506001600160a01b0381358116916020013516610cb2565b34801561047857600080fd5b50610220610cc8565b34801561048d57600080fd5b50610293600480360360408110156104a457600080fd5b5080359060200135610d28565b3480156104bd57600080fd5b50610293610d3b565b3480156104d257600080fd5b50610326610d47565b3480156104e757600080fd5b50610326610d56565b3480156104fc57600080fd5b50610293610d65565b34801561051157600080fd5b50610293610d71565b34801561052657600080fd5b50610220600480360361016081101561053e57600080fd5b506001600160a01b038135811691602081013582169160408201358116916060810135821691608082013581169160a081013582169160c082013581169160e08101358216916101008201358116916101208101358216916101409091013516610e72565b3480156105af57600080fd5b50610326611227565b610220600480360360808110156105ce57600080fd5b508035906020810135906001600160a01b0360408201358116916060013516611236565b3480156105fe57600080fd5b50610293600480360360a081101561061557600080fd5b50803590602081013515159060408101359060608101351515906080013561186b565b34801561064457600080fd5b50610293611884565b34801561065957600080fd5b50610326611940565b34801561066e57600080fd5b5061067761194f565b604080519115158252519081900360200190f35b34801561069757600080fd5b50610326611960565b3480156106ac57600080fd5b506106b561196f565b6040805160208082528351818301528351919283929083019185019080838360005b838110156106ef5781810151838201526020016106d7565b50505050905090810190601f16801561071c5780820380516001836020036101000a031916815260200191505b509250505060405180910390f35b34801561073657600080fd5b5061032661199d565b34801561074b57600080fd5b506103266119ac565b610220600480360360c081101561076a57600080fd5b5080359060208101359060408101359060608101351515906001600160a01b03608082013581169160a00135166119bb565b610220600480360360608110156107b257600080fd5b506001600160a01b0381358116916020810135821691604090910135166119ca565b3480156107e057600080fd5b506102936119e4565b6107fb336000856000868660006119ef565b505050565b600454600054600b546001600160a01b039283169291821691166108248333611fec565b60025460408051630fdb11cf60e01b815290516000926001600160a01b031691630fdb11cf91600480830192602092919082900301818787803b15801561086a57600080fd5b505af115801561087e573d6000803e3d6000fd5b505050506040513d602081101561089457600080fd5b505190506108a1816120b1565b60408051630b07655760e01b815233600482015290516001600160a01b03861691630b07655791602480830192600092919082900301818387803b1580156108e857600080fd5b505af11580156108fc573d6000803e3d6000fd5b5050604080516309019aaf60e31b81523360048201529051600093506001600160a01b038816925063480cd57891602480820192602092909190829003018186803b15801561094a57600080fd5b505afa15801561095e573d6000803e3d6000fd5b505050506040513d602081101561097457600080fd5b50516040805163d66a255360e01b815233600482015290519192506000916001600160a01b0388169163d66a2553916024808301926020929190829003018186803b1580156109c257600080fd5b505afa1580156109d6573d6000803e3d6000fd5b505050506040513d60208110156109ec57600080fd5b50519050610a138433610a0e846801a055690d9db8000063ffffffff6120f916565b61213b565b6000610a24836000846000886121fb565b9050610a2f81612286565b60408051631fc5750960e31b815233600482015290516001600160a01b0389169163fe2ba84891602480830192600092919082900301818387803b158015610a7657600080fd5b505af1158015610a8a573d6000803e3d6000fd5b5050604080516365e89c5760e11b815233600482015290516001600160a01b038b16935063cbd138ae9250602480830192600092919082900301818387803b158015610ad557600080fd5b505af1158015610ae9573d6000803e3d6000fd5b50505050336001600160a01b03166000805160206137418339815191526000806000600160405180858152602001848152602001838152602001826002811115610b2f57fe5b60ff16815260200194505050505060405180910390a2610b69868633610b64866801a055690d9db8000063ffffffff6120f916565b6122cd565b600654610b8c90879087906001600160a01b03166801a055690d9db800006122cd565b604080516364a197f360e01b81523360048201526024810185905290516001600160a01b038816916364a197f391604480830192600092919082900301818387803b158015610bda57600080fd5b505af1158015610bee573d6000803e3d6000fd5b5050505050505050505050565b610c0c33600085600186868a6119ef565b50505050565b68056bc75e2d6310000081565b610c2f86868686868660006119ef565b505050505050565b6801a055690d9db8000081565b6001546001600160a01b031681565b6004546001600160a01b031681565b60c881565b6000610c72826123a9565b92915050565b6000610c89888888888888886123c4565b98975050505050505050565b6107fb3384600080868660006119ef565b6714d1120d7b16000081565b610cc4336000806000868660006119ef565b5050565b6008546040805163b32beb5b60e01b815233600482015290516001600160a01b039092169163b32beb5b9160248082019260009290919082900301818387803b158015610d1457600080fd5b505af1158015610c0c573d6000803e3d6000fd5b6000610d3483836123f7565b9392505050565b670de0b6b3a764000081565b6002546001600160a01b031681565b600a546001600160a01b031681565b670ff59ee833b3000081565b6000805460408051632f5a97e560e11b8152905183926001600160a01b031691635eb52fca916004808301926020929190829003018186803b158015610db657600080fd5b505afa158015610dca573d6000803e3d6000fd5b505050506040513d6020811015610de057600080fd5b505160015460408051632f5a97e560e11b815290519293506000926001600160a01b0390921691635eb52fca91600480820192602092909190829003018186803b158015610e2d57600080fd5b505afa158015610e41573d6000803e3d6000fd5b505050506040513d6020811015610e5757600080fd5b50519050610e6b828263ffffffff61242a16565b9250505090565b610e7a61194f565b610ecb576040805162461bcd60e51b815260206004820181905260248201527f4f776e61626c653a2063616c6c6572206973206e6f7420746865206f776e6572604482015290519081900360640190fd5b610ed48b612484565b610edd8a612484565b610ee689612484565b610eef88612484565b610ef887612484565b610f0186612484565b610f0a85612484565b610f1384612484565b610f1c83612484565b610f2582612484565b600480546001600160a01b03199081166001600160a01b038e81169182179093556000805483168e85161790556001805483168d85161790556005805483168c85161790556006805483168b85161790556008805483168a8516179055600280548316898516179055600c80548316888516179055600b80548316878516179055600a8054831686851690811790915560098054841690911790556007805490921692841692909217905560408051918252517f143219c9e69b09e07e095fcc889b43d8f46ca892bba65f08dc3a0050869a5678916020908290030190a1604080516001600160a01b038c16815290517f78f058b189175430c48dc02699e3a0031ea4ff781536dc2fab847de4babdd8829181900360200190a1604080516001600160a01b038b16815290517f5ee0cae2f063ed938bb55046f6a932fb6ae792bf43624806bb90abe68a50be9b9181900360200190a1604080516001600160a01b038a16815290517f82966d27eea39b038ee0fa30cd16532bb24f6e65d31cb58fb227aa5766cdcc7f9181900360200190a1604080516001600160a01b038916815290517fcfb07d791fcafc032b35837b50eb84b74df518cf4cc287e8084f47630fa70fa09181900360200190a1604080516001600160a01b038816815290517fe67f36a6e961157d6eff83b91f3af5a62131ceb6f04954ef74f51c1c05e7f88d9181900360200190a1604080516001600160a01b038716815290517f8c537274438aa850a330284665d81a85dd38267d09e4050d416bfc94142db2649181900360200190a1604080516001600160a01b038616815290517f65f4cf077bc01e4742eb5ad98326f6e95b63548ea24b17f8d5e823111fe788009181900360200190a1604080516001600160a01b038516815290517f227eec0ec317af6ab1a9587ffa1c84332522eb4c583a908f89babc05f8f339bd9181900360200190a1604080516001600160a01b038416815290517f756ebc192164c295bba134b5aacd72cc7aff8098a670d1f0a5f6b3a0b4ce67079181900360200190a1610bee612533565b6000546001600160a01b031681565b61123e613494565b50604080516060810182526004546001600160a01b03908116825260005481166020830152600b5416918101919091526112766134b4565b600260009054906101000a90046001600160a01b03166001600160a01b0316630fdb11cf6040518163ffffffff1660e01b8152600401602060405180830381600087803b1580156112c657600080fd5b505af11580156112da573d6000803e3d6000fd5b505050506040513d60208110156112f057600080fd5b50518082526000906113019061257d565b905061130d878261259a565b82516113199033612646565b604082018690528061135a5761133983600001518460400151888a612722565b6020830181905260408301516113549163ffffffff61242a16565b60408301525b6113678260400151612970565b61137482604001516123a9565b6060830181905261138157fe5b61139434836060015184600001516129b8565b608083015260608201516113a99034906129ea565b60a083015280156113c6576113c18260800151612a1f565b6113f9565b6113d38260800151612a66565b60006113ec3460018560600151600187600001516121fb565b90506113f781612286565b505b825160408051635d6b480f60e01b81523360048201526001602482015290516001600160a01b0390921691635d6b480f9160448082019260009290919082900301818387803b15801561144b57600080fd5b505af115801561145f573d6000803e3d6000fd5b50508451604080516372423c1760e01b815233600482015234602482015290516001600160a01b0390921693506372423c1792506044808201926020929091908290030181600087803b1580156114b557600080fd5b505af11580156114c9573d6000803e3d6000fd5b505050506040513d60208110156114df57600080fd5b50508251606083015160408051639976cf4560e01b81523360048201526024810192909252516001600160a01b0390921691639976cf45916044808201926020929091908290030181600087803b15801561153957600080fd5b505af115801561154d573d6000803e3d6000fd5b505050506040513d602081101561156357600080fd5b50508251604080516382fe3eb960e01b815233600482015290516001600160a01b03909216916382fe3eb99160248082019260009290919082900301818387803b1580156115b057600080fd5b505af11580156115c4573d6000803e3d6000fd5b5050845160408051630c7940bd60e11b815233600482015290516001600160a01b0390921693506318f2817a92506024808201926020929091908290030181600087803b15801561161457600080fd5b505af1158015611628573d6000803e3d6000fd5b505050506040513d602081101561163e57600080fd5b505160c0830152600c5460a0830151604080516346f7cf8760e01b815233600482015260248101929092526001600160a01b038881166044840152878116606484015290519216916346f7cf879160848082019260009290919082900301818387803b1580156116ad57600080fd5b505af11580156116c1573d6000803e3d6000fd5b50508451604080516315d549f160e01b815233600482015290516001600160a01b0390921693506315d549f192506024808201926020929091908290030181600087803b15801561171157600080fd5b505af1158015611725573d6000803e3d6000fd5b505050506040513d602081101561173b57600080fd5b505160e08301819052604080519182525133917f59cfd0cd754bc5748b6770e94a4ffa5f678d885cb899dcfadc5734edb97c67ab919081900360200190a2611787836020015134612aad565b6117a08360200151846040015133898660400151612b3d565b602083015160408401516006546117cc9291906001600160a01b03166801a055690d9db8000080612b3d565b336001600160a01b03166000805160206137418339815191528360600151348560c0015160006040518085815260200184815260200183815260200182600281111561181457fe5b60ff16815260200194505050505060405180910390a2602080830151604080519182525133927fa55c5f48fd29482ad55f4b59bf070cd1ac1a7132a31f7a136ebe8877ae37e1ff928290030190a250505050505050565b600061187a86868686866121fb565b9695505050505050565b6000805460408051630a7b61df60e11b8152905183926001600160a01b0316916314f6c3be916004808301926020929190829003018186803b1580156118c957600080fd5b505afa1580156118dd573d6000803e3d6000fd5b505050506040513d60208110156118f357600080fd5b505160015460408051630a7b61df60e11b815290519293506000926001600160a01b03909216916314f6c3be91600480820192602092909190829003018186803b158015610e2d57600080fd5b6003546001600160a01b031690565b6003546001600160a01b0316331490565b6009546001600160a01b031681565b60405180604001604052806012815260200171426f72726f7765724f7065726174696f6e7360701b81525081565b600c546001600160a01b031681565b600b546001600160a01b031681565b610c2f3386868686868c6119ef565b6119d2612c1a565b6107fb836000806000868660006119ef565b6611c37937e0800081565b6119f7613494565b50604080516060810182526004546001600160a01b03908116825260005481166020830152600b541691810191909152611a2f6134f9565b600260009054906101000a90046001600160a01b03166001600160a01b0316630fdb11cf6040518163ffffffff1660e01b8152600401602060405180830381600087803b158015611a7f57600080fd5b505af1158015611a93573d6000803e3d6000fd5b505050506040513d6020811015611aa957600080fd5b5051808252600090611aba9061257d565b90508615611ad557611acc848261259a565b611ad588612c65565b611ade89612ca4565b611ae88989612cea565b8251611af4908b611fec565b336001600160a01b038b161480611b2a57506005546001600160a01b031633148015611b205750600034115b8015611b2a575087155b611b3057fe5b82600001516001600160a01b0316630b0765578b6040518263ffffffff1660e01b815260040180826001600160a01b03166001600160a01b03168152602001915050600060405180830381600087803b158015611b8c57600080fd5b505af1158015611ba0573d6000803e3d6000fd5b50505050611bae348a612d3c565b15156060840152602083015260408201889052868015611bcc575080155b15611c0757611be5836000015184604001518a87612722565b61012083018190526040830151611c019163ffffffff61242a16565b60408301525b82600001516001600160a01b031663d66a25538b6040518263ffffffff1660e01b815260040180826001600160a01b03166001600160a01b0316815260200191505060206040518083038186803b158015611c6157600080fd5b505afa158015611c75573d6000803e3d6000fd5b505050506040513d6020811015611c8b57600080fd5b505160808301528251604080516309019aaf60e31b81526001600160a01b038d811660048301529151919092169163480cd578916024808301926020929190829003018186803b158015611cde57600080fd5b505afa158015611cf2573d6000803e3d6000fd5b505050506040513d6020811015611d0857600080fd5b505160a0830181905260808301518351611d239291906129b8565b8260c0018181525050611d538260a0015183608001518460200151856060015186604001518c88600001516123c4565b60e083015260a0820151891115611d6657fe5b611d72818a8985612d5b565b86158015611d805750600088115b15611dd357611dae611da98360400151611d9d8560800151612dcf565b9063ffffffff6120f916565b612970565b611dc082608001518360400151612dea565b611dd383604001518b846040015161213b565b611df183600001518b8460200151856060015186604001518c612e41565b610140840152610160830152825160408051630c7940bd60e11b81526001600160a01b038d81166004830152915191909216916318f2817a9160248083019260209291908290030181600087803b158015611e4b57600080fd5b505af1158015611e5f573d6000803e3d6000fd5b505050506040513d6020811015611e7557600080fd5b505161018083015260a08201516080830151602084015160608501516040860151600094611ea9949093909290918d6130a1565b600c546040805163015f109360e51b81526001600160a01b038f81166004830152602482018590528b811660448301528a811660648301529151939450911691632be212609160848082019260009290919082900301818387803b158015611f1057600080fd5b505af1158015611f24573d6000803e3d6000fd5b505050508a6001600160a01b0316600080516020613741833981519152846101400151856101600151866101800151600260405180858152602001848152602001838152602001826002811115611f7757fe5b60ff16815260200194505050505060405180910390a2610120830151604080519182525133917fa55c5f48fd29482ad55f4b59bf070cd1ac1a7132a31f7a136ebe8877ae37e1ff919081900360200190a2610bee8460200151856040015133866020015187606001518e8e8a604001516130d2565b6000826001600160a01b03166321e37801836040518263ffffffff1660e01b815260040180826001600160a01b03166001600160a01b0316815260200191505060206040518083038186803b15801561204457600080fd5b505afa158015612058573d6000803e3d6000fd5b505050506040513d602081101561206e57600080fd5b50519050600181146107fb5760405162461bcd60e51b815260040180806020018281038252602e815260200180613713602e913960400191505060405180910390fd5b6120ba8161257d565b156120f65760405162461bcd60e51b81526004018080602001828103825260398152602001806135c16039913960400191505060405180910390fd5b50565b6000610d3483836040518060400160405280601e81526020017f536166654d6174683a207375627472616374696f6e206f766572666c6f77000081525061318d565b80836001600160a01b03166370a08231846040518263ffffffff1660e01b815260040180826001600160a01b03166001600160a01b0316815260200191505060206040518083038186803b15801561219257600080fd5b505afa1580156121a6573d6000803e3d6000fd5b505050506040513d60208110156121bc57600080fd5b505110156107fb5760405162461bcd60e51b815260040180806020018281038252603d81526020018061379f603d913960400191505060405180910390fd5b600080612206611884565b90506000612212610d71565b90508661222e57612229828963ffffffff6120f916565b61223e565b61223e828963ffffffff61242a16565b91508461225a57612255818763ffffffff6120f916565b61226a565b61226a818763ffffffff61242a16565b905060006122798383876129b8565b9998505050505050505050565b6714d1120d7b1600008110156120f65760405162461bcd60e51b81526004018080602001828103825260498152602001806136ca6049913960600191505060405180910390fd5b836001600160a01b03166338d995a8826040518263ffffffff1660e01b815260040180828152602001915050600060405180830381600087803b15801561231357600080fd5b505af1158015612327573d6000803e3d6000fd5b50505050826001600160a01b0316639dc29fac83836040518363ffffffff1660e01b815260040180836001600160a01b03166001600160a01b0316815260200182815260200192505050600060405180830381600087803b15801561238b57600080fd5b505af115801561239f573d6000803e3d6000fd5b5050505050505050565b6000610c72826801a055690d9db8000063ffffffff61242a16565b60008060006123d78a8a8a8a8a8a613224565b9150915060006123e88383876129b8565b9b9a5050505050505050505050565b600080612422670de0b6b3a7640000612416858763ffffffff61327f16565b9063ffffffff6132d816565b949350505050565b600082820183811015610d34576040805162461bcd60e51b815260206004820152601b60248201527f536166654d6174683a206164646974696f6e206f766572666c6f770000000000604482015290519081900360640190fd5b6001600160a01b0381166124df576040805162461bcd60e51b815260206004820152601e60248201527f4163636f756e742063616e6e6f74206265207a65726f20616464726573730000604482015290519081900360640190fd5b803b80610cc4576040805162461bcd60e51b815260206004820181905260248201527f4163636f756e7420636f64652073697a652063616e6e6f74206265207a65726f604482015290519081900360640190fd5b6003546040516000916001600160a01b0316907f8be0079c531659141344cd1fd0a4f28419497f9722a3daafe3b4186f6b6457e0908390a3600380546001600160a01b0319169055565b6000806125898361331a565b6714d1120d7b160000119392505050565b80156125ec57670de0b6b3a76400008211156125e75760405162461bcd60e51b81526004018080602001828103825260328152602001806136316032913960400191505060405180910390fd5b610cc4565b6611c37937e08000821080159061260b5750670de0b6b3a76400008211155b610cc45760405162461bcd60e51b81526004018080602001828103825260308152602001806138cb6030913960400191505060405180910390fd5b6000826001600160a01b03166321e37801836040518263ffffffff1660e01b815260040180826001600160a01b03166001600160a01b0316815260200191505060206040518083038186803b15801561269e57600080fd5b505afa1580156126b2573d6000803e3d6000fd5b505050506040513d60208110156126c857600080fd5b5051905060018114156107fb576040805162461bcd60e51b815260206004820152601c60248201527f426f72726f7765724f70733a2054726f76652069732061637469766500000000604482015290519081900360640190fd5b6000846001600160a01b0316635dba4c4a6040518163ffffffff1660e01b8152600401600060405180830381600087803b15801561275f57600080fd5b505af1158015612773573d6000803e3d6000fd5b505050506000856001600160a01b031663631203b0856040518263ffffffff1660e01b81526004018082815260200191505060206040518083038186803b1580156127bd57600080fd5b505afa1580156127d1573d6000803e3d6000fd5b505050506040513d60208110156127e757600080fd5b505190506127f681858561333e565b60095460408051634677ffb360e01b81526004810184905290516001600160a01b0390921691634677ffb39160248082019260009290919082900301818387803b15801561284357600080fd5b505af1158015612857573d6000803e3d6000fd5b5060029250600091506128729050838363ffffffff6132d816565b90506000612886848363ffffffff6120f916565b600a54604080516340c10f1960e01b81526001600160a01b039283166004820152602481018490529051929350908a16916340c10f199160448082019260009290919082900301818387803b1580156128de57600080fd5b505af11580156128f2573d6000803e3d6000fd5b5050600754604080516340c10f1960e01b81526001600160a01b039283166004820152602481018790529051918c1693506340c10f19925060448082019260009290919082900301818387803b15801561294b57600080fd5b505af115801561295f573d6000803e3d6000fd5b50959b9a5050505050505050505050565b68056bc75e2d631000008110156120f65760405162461bcd60e51b815260040180806020018281038252603a815260200180613825603a913960400191505060405180910390fd5b600082156129df5760006129d684612416878663ffffffff61327f16565b9150610d349050565b506000199392505050565b60008115612a1657612a0f826124168568056bc75e2d6310000063ffffffff61327f16565b9050610c72565b50600019610c72565b6714d1120d7b1600008110156120f65760405162461bcd60e51b81526004018080602001828103825260378152602001806135fa6037913960400191505060405180910390fd5b670ff59ee833b300008110156120f65760405162461bcd60e51b81526004018080602001828103825260498152602001806137dc6049913960600191505060405180910390fd5b6040516000906001600160a01b0384169083908381818185875af1925050503d8060008114612af8576040519150601f19603f3d011682016040523d82523d6000602084013e612afd565b606091505b50509050806107fb5760405162461bcd60e51b815260040180806020018281038252602d815260200180613564602d913960400191505060405180910390fd5b846001600160a01b031663cfb9329a826040518263ffffffff1660e01b815260040180828152602001915050600060405180830381600087803b158015612b8357600080fd5b505af1158015612b97573d6000803e3d6000fd5b50505050836001600160a01b03166340c10f1984846040518363ffffffff1660e01b815260040180836001600160a01b03166001600160a01b0316815260200182815260200192505050600060405180830381600087803b158015612bfb57600080fd5b505af1158015612c0f573d6000803e3d6000fd5b505050505050505050565b6005546001600160a01b03163314612c635760405162461bcd60e51b81526004018080602001828103825260298152602001806138a26029913960400191505060405180910390fd5b565b600081116120f65760405162461bcd60e51b81526004018080602001828103825260378152602001806138fb6037913960400191505060405180910390fd5b341580612caf575080155b6120f65760405162461bcd60e51b81526004018080602001828103825260308152602001806135916030913960400191505060405180910390fd5b34151580612cf757508115155b80612d0157508015155b610cc45760405162461bcd60e51b81526004018080602001828103825260468152602001806136636046913960600191505060405180910390fd5b6000808315612d5057508290506001612d54565b8291505b9250929050565b8315612d9457612d6a836133b3565b8115612d8f57612d7d8160e00151612a1f565b612d8f8160e001518260c001516133f0565b610c0c565b612da18160e00151612a66565b612dbe8160200151826060015183604001518585600001516121fb565b6101008201819052610c0c90612286565b6000610c72826801a055690d9db8000063ffffffff6120f916565b612e03826801a055690d9db8000063ffffffff6120f916565b811115610cc45760405162461bcd60e51b815260040180806020018281038252604381526020018061385f6043913960600191505060405180910390fd5b600080600085612edc57886001600160a01b031663d3d6f84389896040518363ffffffff1660e01b815260040180836001600160a01b03166001600160a01b0316815260200182815260200192505050602060405180830381600087803b158015612eab57600080fd5b505af1158015612ebf573d6000803e3d6000fd5b505050506040513d6020811015612ed557600080fd5b5051612f69565b886001600160a01b03166372423c1789896040518363ffffffff1660e01b815260040180836001600160a01b03166001600160a01b0316815260200182815260200192505050602060405180830381600087803b158015612f3c57600080fd5b505af1158015612f50573d6000803e3d6000fd5b505050506040513d6020811015612f6657600080fd5b50515b905060008461300357896001600160a01b03166312610e928a886040518363ffffffff1660e01b815260040180836001600160a01b03166001600160a01b0316815260200182815260200192505050602060405180830381600087803b158015612fd257600080fd5b505af1158015612fe6573d6000803e3d6000fd5b505050506040513d6020811015612ffc57600080fd5b5051613090565b896001600160a01b0316639976cf458a886040518363ffffffff1660e01b815260040180836001600160a01b03166001600160a01b0316815260200182815260200192505050602060405180830381600087803b15801561306357600080fd5b505af1158015613077573d6000803e3d6000fd5b505050506040513d602081101561308d57600080fd5b50515b919a91995090975050505050505050565b60008060006130b4898989898989613224565b9150915060006130c483836129ea565b9a9950505050505050505050565b81156130ea576130e58888888685612b3d565b6130f6565b6130f6888888866122cd565b831561310b576131068886612aad565b61239f565b876001600160a01b03166364a197f387876040518363ffffffff1660e01b815260040180836001600160a01b03166001600160a01b0316815260200182815260200192505050600060405180830381600087803b15801561316b57600080fd5b505af115801561317f573d6000803e3d6000fd5b505050505050505050505050565b6000818484111561321c5760405162461bcd60e51b81526004018080602001828103825283818151815260200191508051906020019080838360005b838110156131e15781810151838201526020016131c9565b50505050905090810190601f16801561320e5780820380516001836020036101000a031916815260200191505b509250505060405180910390fd5b505050900390565b6000808787866132435761323e8a8963ffffffff6120f916565b613253565b6132538a8963ffffffff61242a16565b91508461326f5761326a898763ffffffff6120f916565b613090565b613090898763ffffffff61242a16565b60008261328e57506000610c72565b8282028284828161329b57fe5b0414610d345760405162461bcd60e51b81526004018080602001828103825260218152602001806136a96021913960400191505060405180910390fd5b6000610d3483836040518060400160405280601a81526020017f536166654d6174683a206469766973696f6e206279207a65726f00000000000081525061342f565b600080613325611884565b90506000613331610d71565b90506124228282866129b8565b600061335c8361241686670de0b6b3a764000063ffffffff61327f16565b905081811115610c0c576040805162461bcd60e51b815260206004820152601d60248201527f4665652065786365656465642070726f7669646564206d6178696d756d000000604482015290519081900360640190fd5b80156120f65760405162461bcd60e51b815260040180806020018281038252603e815260200180613761603e913960400191505060405180910390fd5b80821015610cc45760405162461bcd60e51b815260040180806020018281038252603e815260200180613932603e913960400191505060405180910390fd5b6000818361347e5760405162461bcd60e51b81526020600482018181528351602484015283519092839260449091019190850190808383600083156131e15781810151838201526020016131c9565b50600083858161348a57fe5b0495945050505050565b604080516060810182526000808252602082018190529181019190915290565b60405180610100016040528060008152602001600081526020016000815260200160008152602001600081526020016000815260200160008152602001600081525090565b604051806101a00160405280600081526020016000815260200160008152602001600015158152602001600081526020016000815260200160008152602001600081526020016000815260200160008152602001600081526020016000815260200160008152509056fe426f72726f7765724f70733a2053656e64696e672045544820746f20416374697665506f6f6c206661696c6564426f72726f7765724f7065726174696f6e733a2043616e6e6f7420776974686472617720616e642061646420636f6c6c426f72726f7765724f70733a204f7065726174696f6e206e6f74207065726d697474656420647572696e67205265636f76657279204d6f6465426f72726f7765724f70733a204f7065726174696f6e206d757374206c656176652074726f7665207769746820494352203e3d204343524d6178206665652070657263656e74616765206d757374206c657373207468616e206f7220657175616c20746f2031303025426f72726f7765724f70733a205468657265206d75737420626520656974686572206120636f6c6c61746572616c206368616e6765206f7220612064656274206368616e6765536166654d6174683a206d756c7469706c69636174696f6e206f766572666c6f77426f72726f7765724f70733a20416e206f7065726174696f6e207468617420776f756c6420726573756c7420696e20544352203c20434352206973206e6f74207065726d6974746564426f72726f7765724f70733a2054726f766520646f6573206e6f74206578697374206f7220697320636c6f736564c3770d654ed33aeea6bf11ac8ef05d02a6a04ed4686dd2f624d853bbec43cc8b426f72726f7765724f70733a20436f6c6c61746572616c207769746864726177616c206e6f74207065726d6974746564205265636f76657279204d6f6465426f72726f7765724f70733a2043616c6c657220646f65736e74206861766520656e6f756768204c55534420746f206d616b652072657061796d656e74426f72726f7765724f70733a20416e206f7065726174696f6e207468617420776f756c6420726573756c7420696e20494352203c204d4352206973206e6f74207065726d6974746564426f72726f7765724f70733a2054726f76652773206e65742064656274206d7573742062652067726561746572207468616e206d696e696d756d426f72726f7765724f70733a20416d6f756e7420726570616964206d757374206e6f74206265206c6172676572207468616e207468652054726f766527732064656274426f72726f7765724f70733a2043616c6c6572206973206e6f742053746162696c69747920506f6f6c4d6178206665652070657263656e74616765206d757374206265206265747765656e20302e352520616e642031303025426f72726f7765724f70733a204465627420696e637265617365207265717569726573206e6f6e2d7a65726f20646562744368616e6765426f72726f7765724f70733a2043616e6e6f7420646563726561736520796f75722054726f766527732049435220696e205265636f76657279204d6f6465a2646970667358221220f736b9bdc89bb73cccc1aae73660052af0c5ed07f8e33e3995e2c3170ee6db3864736f6c634300060b0033",
  "linkReferences": {},
  "deployedLinkReferences": {}
}