{
  "_format": "hh-sol-artifact-1",
  "contractName": "BorrowerOperations",
  "sourceName": "contracts/BorrowerOperations.sol",
  "abi": [
    {
      "anonymous": false,
      "inputs": [
        {
          "indexed": false,
          "internalType": "address",
          "name": "_activePoolAddress",
          "type": "address"
        }
      ],
      "name": "ActivePoolAddressChanged",
      "type": "event"
    },
    {
      "anonymous": false,
      "inputs": [
        {
          "indexed": false,
          "internalType": "address",
          "name": "_collSurplusPoolAddress",
          "type": "address"
        }
      ],
      "name": "CollSurplusPoolAddressChanged",
      "type": "event"
    },
    {
      "anonymous": false,
      "inputs": [
        {
          "indexed": false,
          "internalType": "address",
          "name": "_defaultPoolAddress",
          "type": "address"
        }
      ],
      "name": "DefaultPoolAddressChanged",
      "type": "event"
    },
    {
      "anonymous": false,
      "inputs": [
        {
          "indexed": false,
          "internalType": "address",
          "name": "_gasPoolAddress",
          "type": "address"
        }
      ],
      "name": "GasPoolAddressChanged",
      "type": "event"
    },
    {
      "anonymous": false,
      "inputs": [
        {
          "indexed": false,
          "internalType": "address",
          "name": "_lqtyStakingAddress",
          "type": "address"
        }
      ],
      "name": "LQTYStakingAddressChanged",
      "type": "event"
    },
    {
      "anonymous": false,
      "inputs": [
        {
          "indexed": true,
          "internalType": "address",
          "name": "_borrower",
          "type": "address"
        },
        {
          "indexed": false,
          "internalType": "uint256",
          "name": "_LUSDFee",
          "type": "uint256"
        }
      ],
      "name": "LUSDBorrowingFeePaid",
      "type": "event"
    },
    {
      "anonymous": false,
      "inputs": [
        {
          "indexed": false,
          "internalType": "address",
          "name": "_lusdTokenAddress",
          "type": "address"
        }
      ],
      "name": "LUSDTokenAddressChanged",
      "type": "event"
    },
    {
      "anonymous": false,
      "inputs": [
        {
          "indexed": true,
          "internalType": "address",
          "name": "previousOwner",
          "type": "address"
        },
        {
          "indexed": true,
          "internalType": "address",
          "name": "newOwner",
          "type": "address"
        }
      ],
      "name": "OwnershipTransferred",
      "type": "event"
    },
    {
      "anonymous": false,
      "inputs": [
        {
          "indexed": false,
          "internalType": "address",
          "name": "_newPriceFeedAddress",
          "type": "address"
        }
      ],
      "name": "PriceFeedAddressChanged",
      "type": "event"
    },
    {
      "anonymous": false,
      "inputs": [
        {
          "indexed": false,
          "internalType": "address",
          "name": "_sortedTrovesAddress",
          "type": "address"
        }
      ],
      "name": "SortedTrovesAddressChanged",
      "type": "event"
    },
    {
      "anonymous": false,
      "inputs": [
        {
          "indexed": false,
          "internalType": "address",
          "name": "_stabilityPoolAddress",
          "type": "address"
        }
      ],
      "name": "StabilityPoolAddressChanged",
      "type": "event"
    },
    {
      "anonymous": false,
      "inputs": [
        {
          "indexed": true,
          "internalType": "address",
          "name": "_borrower",
          "type": "address"
        },
        {
          "indexed": false,
          "internalType": "uint256",
          "name": "arrayIndex",
          "type": "uint256"
        }
      ],
      "name": "TroveCreated",
      "type": "event"
    },
    {
      "anonymous": false,
      "inputs": [
        {
          "indexed": false,
          "internalType": "address",
          "name": "_newTroveManagerAddress",
          "type": "address"
        }
      ],
      "name": "TroveManagerAddressChanged",
      "type": "event"
    },
    {
      "anonymous": false,
      "inputs": [
        {
          "indexed": true,
          "internalType": "address",
          "name": "_borrower",
          "type": "address"
        },
        {
          "indexed": false,
          "internalType": "uint256",
          "name": "_debt",
          "type": "uint256"
        },
        {
          "indexed": false,
          "internalType": "uint256",
          "name": "_coll",
          "type": "uint256"
        },
        {
          "indexed": false,
          "internalType": "uint256",
          "name": "stake",
          "type": "uint256"
        },
        {
          "indexed": false,
          "internalType": "enum BorrowerOperations.BorrowerOperation",
          "name": "operation",
          "type": "uint8"
        }
      ],
      "name": "TroveUpdated",
      "type": "event"
    },
    {
      "inputs": [],
      "name": "BORROWING_FEE_FLOOR",
      "outputs": [
        {
          "internalType": "uint256",
          "name": "",
          "type": "uint256"
        }
      ],
      "stateMutability": "view",
      "type": "function"
    },
    {
      "inputs": [],
      "name": "CCR",
      "outputs": [
        {
          "internalType": "uint256",
          "name": "",
          "type": "uint256"
        }
      ],
      "stateMutability": "view",
      "type": "function"
    },
    {
      "inputs": [],
      "name": "DECIMAL_PRECISION",
      "outputs": [
        {
          "internalType": "uint256",
          "name": "",
          "type": "uint256"
        }
      ],
      "stateMutability": "view",
      "type": "function"
    },
    {
      "inputs": [],
      "name": "LUSD_GAS_COMPENSATION",
      "outputs": [
        {
          "internalType": "uint256",
          "name": "",
          "type": "uint256"
        }
      ],
      "stateMutability": "view",
      "type": "function"
    },
    {
      "inputs": [],
      "name": "MCR",
      "outputs": [
        {
          "internalType": "uint256",
          "name": "",
          "type": "uint256"
        }
      ],
      "stateMutability": "view",
      "type": "function"
    },
    {
      "inputs": [],
      "name": "MIN_NET_DEBT",
      "outputs": [
        {
          "internalType": "uint256",
          "name": "",
          "type": "uint256"
        }
      ],
      "stateMutability": "view",
      "type": "function"
    },
    {
      "inputs": [],
      "name": "NAME",
      "outputs": [
        {
          "internalType": "string",
          "name": "",
          "type": "string"
        }
      ],
      "stateMutability": "view",
      "type": "function"
    },
    {
      "inputs": [],
      "name": "PERCENT_DIVISOR",
      "outputs": [
        {
          "internalType": "uint256",
          "name": "",
          "type": "uint256"
        }
      ],
      "stateMutability": "view",
      "type": "function"
    },
    {
      "inputs": [],
      "name": "_100pct",
      "outputs": [
        {
          "internalType": "uint256",
          "name": "",
          "type": "uint256"
        }
      ],
      "stateMutability": "view",
      "type": "function"
    },
    {
      "inputs": [],
      "name": "activePool",
      "outputs": [
        {
          "internalType": "contract IActivePool",
          "name": "",
          "type": "address"
        }
      ],
      "stateMutability": "view",
      "type": "function"
    },
    {
      "inputs": [
        {
          "internalType": "address",
          "name": "_upperHint",
          "type": "address"
        },
        {
          "internalType": "address",
          "name": "_lowerHint",
          "type": "address"
        }
      ],
      "name": "addColl",
      "outputs": [],
      "stateMutability": "payable",
      "type": "function"
    },
    {
      "inputs": [
        {
          "internalType": "uint256",
          "name": "_maxFeePercentage",
          "type": "uint256"
        },
        {
          "internalType": "uint256",
          "name": "_collWithdrawal",
          "type": "uint256"
        },
        {
          "internalType": "uint256",
          "name": "_LUSDChange",
          "type": "uint256"
        },
        {
          "internalType": "bool",
          "name": "_isDebtIncrease",
          "type": "bool"
        },
        {
          "internalType": "address",
          "name": "_upperHint",
          "type": "address"
        },
        {
          "internalType": "address",
          "name": "_lowerHint",
          "type": "address"
        }
      ],
      "name": "adjustTrove",
      "outputs": [],
      "stateMutability": "payable",
      "type": "function"
    },
    {
      "inputs": [],
      "name": "claimCollateral",
      "outputs": [],
      "stateMutability": "nonpayable",
      "type": "function"
    },
    {
      "inputs": [],
      "name": "closeTrove",
      "outputs": [],
      "stateMutability": "nonpayable",
      "type": "function"
    },
    {
      "inputs": [],
      "name": "defaultPool",
      "outputs": [
        {
          "internalType": "contract IDefaultPool",
          "name": "",
          "type": "address"
        }
      ],
      "stateMutability": "view",
      "type": "function"
    },
    {
      "inputs": [
        {
          "internalType": "uint256",
          "name": "_debt",
          "type": "uint256"
        }
      ],
      "name": "getCompositeDebt",
      "outputs": [
        {
          "internalType": "uint256",
          "name": "",
          "type": "uint256"
        }
      ],
      "stateMutability": "pure",
      "type": "function"
    },
    {
      "inputs": [],
      "name": "getEntireSystemColl",
      "outputs": [
        {
          "internalType": "uint256",
          "name": "entireSystemColl",
          "type": "uint256"
        }
      ],
      "stateMutability": "view",
      "type": "function"
    },
    {
      "inputs": [],
      "name": "getEntireSystemDebt",
      "outputs": [
        {
          "internalType": "uint256",
          "name": "entireSystemDebt",
          "type": "uint256"
        }
      ],
      "stateMutability": "view",
      "type": "function"
    },
    {
      "inputs": [],
      "name": "isOwner",
      "outputs": [
        {
          "internalType": "bool",
          "name": "",
          "type": "bool"
        }
      ],
      "stateMutability": "view",
      "type": "function"
    },
    {
      "inputs": [],
      "name": "lqtyStaking",
      "outputs": [
        {
          "internalType": "contract ILQTYStaking",
          "name": "",
          "type": "address"
        }
      ],
      "stateMutability": "view",
      "type": "function"
    },
    {
      "inputs": [],
      "name": "lqtyStakingAddress",
      "outputs": [
        {
          "internalType": "address",
          "name": "",
          "type": "address"
        }
      ],
      "stateMutability": "view",
      "type": "function"
    },
    {
      "inputs": [],
      "name": "lusdToken",
      "outputs": [
        {
          "internalType": "contract ILUSDToken",
          "name": "",
          "type": "address"
        }
      ],
      "stateMutability": "view",
      "type": "function"
    },
    {
      "inputs": [
        {
          "internalType": "address",
          "name": "_borrower",
          "type": "address"
        },
        {
          "internalType": "address",
          "name": "_upperHint",
          "type": "address"
        },
        {
          "internalType": "address",
          "name": "_lowerHint",
          "type": "address"
        }
      ],
      "name": "moveETHGainToTrove",
      "outputs": [],
      "stateMutability": "payable",
      "type": "function"
    },
    {
      "inputs": [
        {
          "internalType": "uint256",
          "name": "_maxFeePercentage",
          "type": "uint256"
        },
        {
          "internalType": "uint256",
          "name": "_LUSDAmount",
          "type": "uint256"
        },
        {
          "internalType": "address",
          "name": "_upperHint",
          "type": "address"
        },
        {
          "internalType": "address",
          "name": "_lowerHint",
          "type": "address"
        }
      ],
      "name": "openTrove",
      "outputs": [],
      "stateMutability": "payable",
      "type": "function"
    },
    {
      "inputs": [],
      "name": "owner",
      "outputs": [
        {
          "internalType": "address",
          "name": "",
          "type": "address"
        }
      ],
      "stateMutability": "view",
      "type": "function"
    },
    {
      "inputs": [],
      "name": "priceFeed",
      "outputs": [
        {
          "internalType": "contract IPriceFeed",
          "name": "",
          "type": "address"
        }
      ],
      "stateMutability": "view",
      "type": "function"
    },
    {
      "inputs": [
        {
          "internalType": "uint256",
          "name": "_LUSDAmount",
          "type": "uint256"
        },
        {
          "internalType": "address",
          "name": "_upperHint",
          "type": "address"
        },
        {
          "internalType": "address",
          "name": "_lowerHint",
          "type": "address"
        }
      ],
      "name": "repayLUSD",
      "outputs": [],
      "stateMutability": "nonpayable",
      "type": "function"
    },
    {
      "inputs": [
        {
          "internalType": "address",
          "name": "_troveManagerAddress",
          "type": "address"
        },
        {
          "internalType": "address",
          "name": "_activePoolAddress",
          "type": "address"
        },
        {
          "internalType": "address",
          "name": "_defaultPoolAddress",
          "type": "address"
        },
        {
          "internalType": "address",
          "name": "_stabilityPoolAddress",
          "type": "address"
        },
        {
          "internalType": "address",
          "name": "_gasPoolAddress",
          "type": "address"
        },
        {
          "internalType": "address",
          "name": "_collSurplusPoolAddress",
          "type": "address"
        },
        {
          "internalType": "address",
          "name": "_priceFeedAddress",
          "type": "address"
        },
        {
          "internalType": "address",
          "name": "_sortedTrovesAddress",
          "type": "address"
        },
        {
          "internalType": "address",
          "name": "_lusdTokenAddress",
          "type": "address"
        },
        {
          "internalType": "address",
          "name": "_lqtyStakingAddress",
          "type": "address"
        },
        {
          "internalType": "address",
          "name": "_treasury",
          "type": "address"
        }
      ],
      "name": "setAddresses",
      "outputs": [],
      "stateMutability": "nonpayable",
      "type": "function"
    },
    {
      "inputs": [],
      "name": "sortedTroves",
      "outputs": [
        {
          "internalType": "contract ISortedTroves",
          "name": "",
          "type": "address"
        }
      ],
      "stateMutability": "view",
      "type": "function"
    },
    {
      "inputs": [],
      "name": "troveManager",
      "outputs": [
        {
          "internalType": "contract ITroveManager",
          "name": "",
          "type": "address"
        }
      ],
      "stateMutability": "view",
      "type": "function"
    },
    {
      "inputs": [
        {
          "internalType": "uint256",
          "name": "_collWithdrawal",
          "type": "uint256"
        },
        {
          "internalType": "address",
          "name": "_upperHint",
          "type": "address"
        },
        {
          "internalType": "address",
          "name": "_lowerHint",
          "type": "address"
        }
      ],
      "name": "withdrawColl",
      "outputs": [],
      "stateMutability": "nonpayable",
      "type": "function"
    },
    {
      "inputs": [
        {
          "internalType": "uint256",
          "name": "_maxFeePercentage",
          "type": "uint256"
        },
        {
          "internalType": "uint256",
          "name": "_LUSDAmount",
          "type": "uint256"
        },
        {
          "internalType": "address",
          "name": "_upperHint",
          "type": "address"
        },
        {
          "internalType": "address",
          "name": "_lowerHint",
          "type": "address"
        }
      ],
      "name": "withdrawLUSD",
      "outputs": [],
      "stateMutability": "nonpayable",
      "type": "function"
    }
  ],
  "bytecode": "0x608060405234801561001057600080fd5b50600380546001600160a01b031916339081179091556040516000907f8be0079c531659141344cd1fd0a4f28419497f9722a3daafe3b4186f6b6457e0908290a36137de806100606000396000f3fe6080604052600436106101a35760003560e01c8063794e5724116100e2578063a20baee611610085578063a20baee6146103a1578063a3a6401714610535578063a3f4df7e1461054a578063ae918754146105d4578063b83f91a2146105e9578063c6a6cf20146105fe578063ea9638bf14610646578063f92d34331461067e576101a3565b8063794e5724146103e0578063795d26c3146103f55780637985c5e41461040a5780637f7dde4a14610493578063860665b3146104a8578063887105d3146104e25780638da5cb5b146104f75780638f32d59b1461050c576101a3565b80634ff814431161014a5780634ff81443146102de5780635530273c146103085780635733d58f1461034957806368647db11461035e5780636f0b0c1c1461038c57806372fe25aa146103a1578063741bef1a146103b6578063761ab22c146103cb576101a3565b806304491fa7146101a85780630e704d50146101eb5780631184e5f8146102005780631bf43555146102475780632e86bbd81461026e5780633cc74225146102835780633d83908a146102b45780634870dd9a146102c9575b600080fd5b3480156101b457600080fd5b506101e9600480360360608110156101cb57600080fd5b508035906001600160a01b0360208201358116916040013516610693565b005b3480156101f757600080fd5b506101e96106aa565b34801561020c57600080fd5b506101e96004803603608081101561022357600080fd5b508035906020810135906001600160a01b0360408201358116916060013516610aa5565b34801561025357600080fd5b5061025c610abc565b60408051918252519081900360200190f35b34801561027a57600080fd5b5061025c610ac9565b34801561028f57600080fd5b50610298610ad6565b604080516001600160a01b039092168252519081900360200190f35b3480156102c057600080fd5b50610298610ae5565b3480156102d557600080fd5b5061025c610af4565b3480156102ea57600080fd5b5061025c6004803603602081101561030157600080fd5b5035610af9565b34801561031457600080fd5b506101e96004803603606081101561032b57600080fd5b508035906001600160a01b0360208201358116916040013516610b0a565b34801561035557600080fd5b5061025c610b1b565b6101e96004803603604081101561037457600080fd5b506001600160a01b0381358116916020013516610b27565b34801561039857600080fd5b506101e9610b3d565b3480156103ad57600080fd5b5061025c610b9d565b3480156103c257600080fd5b50610298610ba9565b3480156103d757600080fd5b50610298610bb8565b3480156103ec57600080fd5b5061025c610bc7565b34801561040157600080fd5b5061025c610bd3565b34801561041657600080fd5b506101e9600480360361016081101561042e57600080fd5b506001600160a01b038135811691602081013582169160408201358116916060810135821691608082013581169160a081013582169160c082013581169160e08101358216916101008201358116916101208101358216916101409091013516610cd4565b34801561049f57600080fd5b50610298611089565b6101e9600480360360808110156104be57600080fd5b508035906020810135906001600160a01b0360408201358116916060013516611098565b3480156104ee57600080fd5b5061025c6116cd565b34801561050357600080fd5b50610298611789565b34801561051857600080fd5b50610521611798565b604080519115158252519081900360200190f35b34801561054157600080fd5b506102986117a9565b34801561055657600080fd5b5061055f6117b8565b6040805160208082528351818301528351919283929083019185019080838360005b83811015610599578181015183820152602001610581565b50505050905090810190601f1680156105c65780820380516001836020036101000a031916815260200191505b509250505060405180910390f35b3480156105e057600080fd5b506102986117e6565b3480156105f557600080fd5b506102986117f5565b6101e9600480360360c081101561061457600080fd5b5080359060208101359060408101359060608101351515906001600160a01b03608082013581169160a0013516611804565b6101e96004803603606081101561065c57600080fd5b506001600160a01b03813581169160208101358216916040909101351661181b565b34801561068a57600080fd5b5061025c611835565b6106a533600085600086866000611840565b505050565b600454600054600b546001600160a01b039283169291821691166106ce8333611e3d565b60025460408051630fdb11cf60e01b815290516000926001600160a01b031691630fdb11cf91600480830192602092919082900301818787803b15801561071457600080fd5b505af1158015610728573d6000803e3d6000fd5b505050506040513d602081101561073e57600080fd5b5051905061074b81611f02565b60408051630b07655760e01b815233600482015290516001600160a01b03861691630b07655791602480830192600092919082900301818387803b15801561079257600080fd5b505af11580156107a6573d6000803e3d6000fd5b5050604080516309019aaf60e31b81523360048201529051600093506001600160a01b038816925063480cd57891602480820192602092909190829003018186803b1580156107f457600080fd5b505afa158015610808573d6000803e3d6000fd5b505050506040513d602081101561081e57600080fd5b50516040805163d66a255360e01b815233600482015290519192506000916001600160a01b0388169163d66a2553916024808301926020929190829003018186803b15801561086c57600080fd5b505afa158015610880573d6000803e3d6000fd5b505050506040513d602081101561089657600080fd5b505190506108bd84336108b8846801a055690d9db8000063ffffffff611f4a16565b611f93565b60006108ce83600084600088612053565b90506108d9816120de565b60408051631fc5750960e31b815233600482015290516001600160a01b0389169163fe2ba84891602480830192600092919082900301818387803b15801561092057600080fd5b505af1158015610934573d6000803e3d6000fd5b5050604080516365e89c5760e11b815233600482015290516001600160a01b038b16935063cbd138ae9250602480830192600092919082900301818387803b15801561097f57600080fd5b505af1158015610993573d6000803e3d6000fd5b50505050336001600160a01b031660008051602061357a83398151915260008060006001604051808581526020018481526020018381526020018260028111156109d957fe5b60ff16815260200194505050505060405180910390a2610a13868633610a0e866801a055690d9db8000063ffffffff611f4a16565b612125565b600654610a3690879087906001600160a01b03166801a055690d9db80000612125565b604080516364a197f360e01b81523360048201526024810185905290516001600160a01b038816916364a197f391604480830192600092919082900301818387803b158015610a8457600080fd5b505af1158015610a98573d6000803e3d6000fd5b5050505050505050505050565b610ab633600085600186868a611840565b50505050565b68056bc75e2d6310000081565b6801a055690d9db8000081565b6001546001600160a01b031681565b6004546001600160a01b031681565b60c881565b6000610b0482612201565b92915050565b6106a5338460008086866000611840565b6714d1120d7b16000081565b610b3933600080600086866000611840565b5050565b6008546040805163b32beb5b60e01b815233600482015290516001600160a01b039092169163b32beb5b9160248082019260009290919082900301818387803b158015610b8957600080fd5b505af1158015610ab6573d6000803e3d6000fd5b670de0b6b3a764000081565b6002546001600160a01b031681565b600a546001600160a01b031681565b670ff59ee833b3000081565b6000805460408051632f5a97e560e11b8152905183926001600160a01b031691635eb52fca916004808301926020929190829003018186803b158015610c1857600080fd5b505afa158015610c2c573d6000803e3d6000fd5b505050506040513d6020811015610c4257600080fd5b505160015460408051632f5a97e560e11b815290519293506000926001600160a01b0390921691635eb52fca91600480820192602092909190829003018186803b158015610c8f57600080fd5b505afa158015610ca3573d6000803e3d6000fd5b505050506040513d6020811015610cb957600080fd5b50519050610ccd828263ffffffff61221c16565b9250505090565b610cdc611798565b610d2d576040805162461bcd60e51b815260206004820181905260248201527f4f776e61626c653a2063616c6c6572206973206e6f7420746865206f776e6572604482015290519081900360640190fd5b610d368b612276565b610d3f8a612276565b610d4889612276565b610d5188612276565b610d5a87612276565b610d6386612276565b610d6c85612276565b610d7584612276565b610d7e83612276565b610d8782612276565b600480546001600160a01b03199081166001600160a01b038e81169182179093556000805483168e85161790556001805483168d85161790556005805483168c85161790556006805483168b85161790556008805483168a8516179055600280548316898516179055600c80548316888516179055600b80548316878516179055600a8054831686851690811790915560098054841690911790556007805490921692841692909217905560408051918252517f143219c9e69b09e07e095fcc889b43d8f46ca892bba65f08dc3a0050869a5678916020908290030190a1604080516001600160a01b038c16815290517f78f058b189175430c48dc02699e3a0031ea4ff781536dc2fab847de4babdd8829181900360200190a1604080516001600160a01b038b16815290517f5ee0cae2f063ed938bb55046f6a932fb6ae792bf43624806bb90abe68a50be9b9181900360200190a1604080516001600160a01b038a16815290517f82966d27eea39b038ee0fa30cd16532bb24f6e65d31cb58fb227aa5766cdcc7f9181900360200190a1604080516001600160a01b038916815290517fcfb07d791fcafc032b35837b50eb84b74df518cf4cc287e8084f47630fa70fa09181900360200190a1604080516001600160a01b038816815290517fe67f36a6e961157d6eff83b91f3af5a62131ceb6f04954ef74f51c1c05e7f88d9181900360200190a1604080516001600160a01b038716815290517f8c537274438aa850a330284665d81a85dd38267d09e4050d416bfc94142db2649181900360200190a1604080516001600160a01b038616815290517f65f4cf077bc01e4742eb5ad98326f6e95b63548ea24b17f8d5e823111fe788009181900360200190a1604080516001600160a01b038516815290517f227eec0ec317af6ab1a9587ffa1c84332522eb4c583a908f89babc05f8f339bd9181900360200190a1604080516001600160a01b038416815290517f756ebc192164c295bba134b5aacd72cc7aff8098a670d1f0a5f6b3a0b4ce67079181900360200190a1610a98612325565b6000546001600160a01b031681565b6110a06132cd565b50604080516060810182526004546001600160a01b03908116825260005481166020830152600b5416918101919091526110d86132ed565b600260009054906101000a90046001600160a01b03166001600160a01b0316630fdb11cf6040518163ffffffff1660e01b8152600401602060405180830381600087803b15801561112857600080fd5b505af115801561113c573d6000803e3d6000fd5b505050506040513d602081101561115257600080fd5b50518082526000906111639061236f565b905061116f878261238c565b825161117b9033612438565b60408201869052806111bc5761119b83600001518460400151888a612514565b6020830181905260408301516111b69163ffffffff61221c16565b60408301525b6111c98260400151612762565b6111d68260400151612201565b606083018190526111e357fe5b6111f634836060015184600001516127aa565b6080830152606082015161120b9034906127e8565b60a0830152801561122857611223826080015161281d565b61125b565b6112358260800151612864565b600061124e346001856060015160018760000151612053565b9050611259816120de565b505b825160408051635d6b480f60e01b81523360048201526001602482015290516001600160a01b0390921691635d6b480f9160448082019260009290919082900301818387803b1580156112ad57600080fd5b505af11580156112c1573d6000803e3d6000fd5b50508451604080516372423c1760e01b815233600482015234602482015290516001600160a01b0390921693506372423c1792506044808201926020929091908290030181600087803b15801561131757600080fd5b505af115801561132b573d6000803e3d6000fd5b505050506040513d602081101561134157600080fd5b50508251606083015160408051639976cf4560e01b81523360048201526024810192909252516001600160a01b0390921691639976cf45916044808201926020929091908290030181600087803b15801561139b57600080fd5b505af11580156113af573d6000803e3d6000fd5b505050506040513d60208110156113c557600080fd5b50508251604080516382fe3eb960e01b815233600482015290516001600160a01b03909216916382fe3eb99160248082019260009290919082900301818387803b15801561141257600080fd5b505af1158015611426573d6000803e3d6000fd5b5050845160408051630c7940bd60e11b815233600482015290516001600160a01b0390921693506318f2817a92506024808201926020929091908290030181600087803b15801561147657600080fd5b505af115801561148a573d6000803e3d6000fd5b505050506040513d60208110156114a057600080fd5b505160c0830152600c5460a0830151604080516346f7cf8760e01b815233600482015260248101929092526001600160a01b038881166044840152878116606484015290519216916346f7cf879160848082019260009290919082900301818387803b15801561150f57600080fd5b505af1158015611523573d6000803e3d6000fd5b50508451604080516315d549f160e01b815233600482015290516001600160a01b0390921693506315d549f192506024808201926020929091908290030181600087803b15801561157357600080fd5b505af1158015611587573d6000803e3d6000fd5b505050506040513d602081101561159d57600080fd5b505160e08301819052604080519182525133917f59cfd0cd754bc5748b6770e94a4ffa5f678d885cb899dcfadc5734edb97c67ab919081900360200190a26115e98360200151346128ab565b611602836020015184604001513389866040015161293b565b6020830151604084015160065461162e9291906001600160a01b03166801a055690d9db800008061293b565b336001600160a01b031660008051602061357a8339815191528360600151348560c0015160006040518085815260200184815260200183815260200182600281111561167657fe5b60ff16815260200194505050505060405180910390a2602080830151604080519182525133927fa55c5f48fd29482ad55f4b59bf070cd1ac1a7132a31f7a136ebe8877ae37e1ff928290030190a250505050505050565b6000805460408051630a7b61df60e11b8152905183926001600160a01b0316916314f6c3be916004808301926020929190829003018186803b15801561171257600080fd5b505afa158015611726573d6000803e3d6000fd5b505050506040513d602081101561173c57600080fd5b505160015460408051630a7b61df60e11b815290519293506000926001600160a01b03909216916314f6c3be91600480820192602092909190829003018186803b158015610c8f57600080fd5b6003546001600160a01b031690565b6003546001600160a01b0316331490565b6009546001600160a01b031681565b60405180604001604052806012815260200171426f72726f7765724f7065726174696f6e7360701b81525081565b600c546001600160a01b031681565b600b546001600160a01b031681565b6118133386868686868c611840565b505050505050565b611823612a18565b6106a583600080600086866000611840565b6611c37937e0800081565b6118486132cd565b50604080516060810182526004546001600160a01b03908116825260005481166020830152600b541691810191909152611880613332565b600260009054906101000a90046001600160a01b03166001600160a01b0316630fdb11cf6040518163ffffffff1660e01b8152600401602060405180830381600087803b1580156118d057600080fd5b505af11580156118e4573d6000803e3d6000fd5b505050506040513d60208110156118fa57600080fd5b505180825260009061190b9061236f565b905086156119265761191d848261238c565b61192688612a63565b61192f89612aa2565b6119398989612ae8565b8251611945908b611e3d565b336001600160a01b038b16148061197b57506005546001600160a01b0316331480156119715750600034115b801561197b575087155b61198157fe5b82600001516001600160a01b0316630b0765578b6040518263ffffffff1660e01b815260040180826001600160a01b03166001600160a01b03168152602001915050600060405180830381600087803b1580156119dd57600080fd5b505af11580156119f1573d6000803e3d6000fd5b505050506119ff348a612b3a565b15156060840152602083015260408201889052868015611a1d575080155b15611a5857611a36836000015184604001518a87612514565b61012083018190526040830151611a529163ffffffff61221c16565b60408301525b82600001516001600160a01b031663d66a25538b6040518263ffffffff1660e01b815260040180826001600160a01b03166001600160a01b0316815260200191505060206040518083038186803b158015611ab257600080fd5b505afa158015611ac6573d6000803e3d6000fd5b505050506040513d6020811015611adc57600080fd5b505160808301528251604080516309019aaf60e31b81526001600160a01b038d811660048301529151919092169163480cd578916024808301926020929190829003018186803b158015611b2f57600080fd5b505afa158015611b43573d6000803e3d6000fd5b505050506040513d6020811015611b5957600080fd5b505160a0830181905260808301518351611b749291906127aa565b8260c0018181525050611ba48260a0015183608001518460200151856060015186604001518c8860000151612b59565b60e083015260a0820151891115611bb757fe5b611bc3818a8985612b8c565b86158015611bd15750600088115b15611c2457611bff611bfa8360400151611bee8560800151612c00565b9063ffffffff611f4a16565b612762565b611c1182608001518360400151612c1b565b611c2483604001518b8460400151611f93565b611c4283600001518b8460200151856060015186604001518c612c72565b610140840152610160830152825160408051630c7940bd60e11b81526001600160a01b038d81166004830152915191909216916318f2817a9160248083019260209291908290030181600087803b158015611c9c57600080fd5b505af1158015611cb0573d6000803e3d6000fd5b505050506040513d6020811015611cc657600080fd5b505161018083015260a08201516080830151602084015160608501516040860151600094611cfa949093909290918d612ed2565b600c546040805163015f109360e51b81526001600160a01b038f81166004830152602482018590528b811660448301528a811660648301529151939450911691632be212609160848082019260009290919082900301818387803b158015611d6157600080fd5b505af1158015611d75573d6000803e3d6000fd5b505050508a6001600160a01b031660008051602061357a833981519152846101400151856101600151866101800151600260405180858152602001848152602001838152602001826002811115611dc857fe5b60ff16815260200194505050505060405180910390a2610120830151604080519182525133917fa55c5f48fd29482ad55f4b59bf070cd1ac1a7132a31f7a136ebe8877ae37e1ff919081900360200190a2610a988460200151856040015133866020015187606001518e8e8a60400151612f03565b6000826001600160a01b03166321e37801836040518263ffffffff1660e01b815260040180826001600160a01b03166001600160a01b0316815260200191505060206040518083038186803b158015611e9557600080fd5b505afa158015611ea9573d6000803e3d6000fd5b505050506040513d6020811015611ebf57600080fd5b50519050600181146106a55760405162461bcd60e51b815260040180806020018281038252602e81526020018061354c602e913960400191505060405180910390fd5b611f0b8161236f565b15611f475760405162461bcd60e51b81526004018080602001828103825260398152602001806133fa6039913960400191505060405180910390fd5b50565b6000611f8c83836040518060400160405280601e81526020017f536166654d6174683a207375627472616374696f6e206f766572666c6f770000815250612fbe565b9392505050565b80836001600160a01b03166370a08231846040518263ffffffff1660e01b815260040180826001600160a01b03166001600160a01b0316815260200191505060206040518083038186803b158015611fea57600080fd5b505afa158015611ffe573d6000803e3d6000fd5b505050506040513d602081101561201457600080fd5b505110156106a55760405162461bcd60e51b815260040180806020018281038252603d8152602001806135d8603d913960400191505060405180910390fd5b60008061205e6116cd565b9050600061206a610bd3565b90508661208657612081828963ffffffff611f4a16565b612096565b612096828963ffffffff61221c16565b9150846120b2576120ad818763ffffffff611f4a16565b6120c2565b6120c2818763ffffffff61221c16565b905060006120d18383876127aa565b9998505050505050505050565b6714d1120d7b160000811015611f475760405162461bcd60e51b81526004018080602001828103825260498152602001806135036049913960600191505060405180910390fd5b836001600160a01b03166338d995a8826040518263ffffffff1660e01b815260040180828152602001915050600060405180830381600087803b15801561216b57600080fd5b505af115801561217f573d6000803e3d6000fd5b50505050826001600160a01b0316639dc29fac83836040518363ffffffff1660e01b815260040180836001600160a01b03166001600160a01b0316815260200182815260200192505050600060405180830381600087803b1580156121e357600080fd5b505af11580156121f7573d6000803e3d6000fd5b5050505050505050565b6000610b04826801a055690d9db8000063ffffffff61221c16565b600082820183811015611f8c576040805162461bcd60e51b815260206004820152601b60248201527f536166654d6174683a206164646974696f6e206f766572666c6f770000000000604482015290519081900360640190fd5b6001600160a01b0381166122d1576040805162461bcd60e51b815260206004820152601e60248201527f4163636f756e742063616e6e6f74206265207a65726f20616464726573730000604482015290519081900360640190fd5b803b80610b39576040805162461bcd60e51b815260206004820181905260248201527f4163636f756e7420636f64652073697a652063616e6e6f74206265207a65726f604482015290519081900360640190fd5b6003546040516000916001600160a01b0316907f8be0079c531659141344cd1fd0a4f28419497f9722a3daafe3b4186f6b6457e0908390a3600380546001600160a01b0319169055565b60008061237b83613055565b6714d1120d7b160000119392505050565b80156123de57670de0b6b3a76400008211156123d95760405162461bcd60e51b815260040180806020018281038252603281526020018061346a6032913960400191505060405180910390fd5b610b39565b6611c37937e0800082108015906123fd5750670de0b6b3a76400008211155b610b395760405162461bcd60e51b81526004018080602001828103825260308152602001806137046030913960400191505060405180910390fd5b6000826001600160a01b03166321e37801836040518263ffffffff1660e01b815260040180826001600160a01b03166001600160a01b0316815260200191505060206040518083038186803b15801561249057600080fd5b505afa1580156124a4573d6000803e3d6000fd5b505050506040513d60208110156124ba57600080fd5b5051905060018114156106a5576040805162461bcd60e51b815260206004820152601c60248201527f426f72726f7765724f70733a2054726f76652069732061637469766500000000604482015290519081900360640190fd5b6000846001600160a01b0316635dba4c4a6040518163ffffffff1660e01b8152600401600060405180830381600087803b15801561255157600080fd5b505af1158015612565573d6000803e3d6000fd5b505050506000856001600160a01b031663631203b0856040518263ffffffff1660e01b81526004018082815260200191505060206040518083038186803b1580156125af57600080fd5b505afa1580156125c3573d6000803e3d6000fd5b505050506040513d60208110156125d957600080fd5b505190506125e8818585613081565b60095460408051634677ffb360e01b81526004810184905290516001600160a01b0390921691634677ffb39160248082019260009290919082900301818387803b15801561263557600080fd5b505af1158015612649573d6000803e3d6000fd5b5060029250600091506126649050838363ffffffff6130f616565b90506000612678848363ffffffff611f4a16565b600a54604080516340c10f1960e01b81526001600160a01b039283166004820152602481018490529051929350908a16916340c10f199160448082019260009290919082900301818387803b1580156126d057600080fd5b505af11580156126e4573d6000803e3d6000fd5b5050600754604080516340c10f1960e01b81526001600160a01b039283166004820152602481018790529051918c1693506340c10f19925060448082019260009290919082900301818387803b15801561273d57600080fd5b505af1158015612751573d6000803e3d6000fd5b50959b9a5050505050505050505050565b68056bc75e2d63100000811015611f475760405162461bcd60e51b815260040180806020018281038252603a81526020018061365e603a913960400191505060405180910390fd5b600082156127dd5760006127d4846127c8878663ffffffff61313816565b9063ffffffff6130f616565b9150611f8c9050565b506000199392505050565b600081156128145761280d826127c88568056bc75e2d6310000063ffffffff61313816565b9050610b04565b50600019610b04565b6714d1120d7b160000811015611f475760405162461bcd60e51b81526004018080602001828103825260378152602001806134336037913960400191505060405180910390fd5b670ff59ee833b30000811015611f475760405162461bcd60e51b81526004018080602001828103825260498152602001806136156049913960600191505060405180910390fd5b6040516000906001600160a01b0384169083908381818185875af1925050503d80600081146128f6576040519150601f19603f3d011682016040523d82523d6000602084013e6128fb565b606091505b50509050806106a55760405162461bcd60e51b815260040180806020018281038252602d81526020018061339d602d913960400191505060405180910390fd5b846001600160a01b031663cfb9329a826040518263ffffffff1660e01b815260040180828152602001915050600060405180830381600087803b15801561298157600080fd5b505af1158015612995573d6000803e3d6000fd5b50505050836001600160a01b03166340c10f1984846040518363ffffffff1660e01b815260040180836001600160a01b03166001600160a01b0316815260200182815260200192505050600060405180830381600087803b1580156129f957600080fd5b505af1158015612a0d573d6000803e3d6000fd5b505050505050505050565b6005546001600160a01b03163314612a615760405162461bcd60e51b81526004018080602001828103825260298152602001806136db6029913960400191505060405180910390fd5b565b60008111611f475760405162461bcd60e51b81526004018080602001828103825260378152602001806137346037913960400191505060405180910390fd5b341580612aad575080155b611f475760405162461bcd60e51b81526004018080602001828103825260308152602001806133ca6030913960400191505060405180910390fd5b34151580612af557508115155b80612aff57508015155b610b395760405162461bcd60e51b815260040180806020018281038252604681526020018061349c6046913960600191505060405180910390fd5b6000808315612b4e57508290506001612b52565b8291505b9250929050565b6000806000612b6c8a8a8a8a8a8a613191565b915091506000612b7d8383876127aa565b9b9a5050505050505050505050565b8315612bc557612b9b836131ec565b8115612bc057612bae8160e0015161281d565b612bc08160e001518260c00151613229565b610ab6565b612bd28160e00151612864565b612bef816020015182606001518360400151858560000151612053565b6101008201819052610ab6906120de565b6000610b04826801a055690d9db8000063ffffffff611f4a16565b612c34826801a055690d9db8000063ffffffff611f4a16565b811115610b395760405162461bcd60e51b81526004018080602001828103825260438152602001806136986043913960600191505060405180910390fd5b600080600085612d0d57886001600160a01b031663d3d6f84389896040518363ffffffff1660e01b815260040180836001600160a01b03166001600160a01b0316815260200182815260200192505050602060405180830381600087803b158015612cdc57600080fd5b505af1158015612cf0573d6000803e3d6000fd5b505050506040513d6020811015612d0657600080fd5b5051612d9a565b886001600160a01b03166372423c1789896040518363ffffffff1660e01b815260040180836001600160a01b03166001600160a01b0316815260200182815260200192505050602060405180830381600087803b158015612d6d57600080fd5b505af1158015612d81573d6000803e3d6000fd5b505050506040513d6020811015612d9757600080fd5b50515b9050600084612e3457896001600160a01b03166312610e928a886040518363ffffffff1660e01b815260040180836001600160a01b03166001600160a01b0316815260200182815260200192505050602060405180830381600087803b158015612e0357600080fd5b505af1158015612e17573d6000803e3d6000fd5b505050506040513d6020811015612e2d57600080fd5b5051612ec1565b896001600160a01b0316639976cf458a886040518363ffffffff1660e01b815260040180836001600160a01b03166001600160a01b0316815260200182815260200192505050602060405180830381600087803b158015612e9457600080fd5b505af1158015612ea8573d6000803e3d6000fd5b505050506040513d6020811015612ebe57600080fd5b50515b919a91995090975050505050505050565b6000806000612ee5898989898989613191565b915091506000612ef583836127e8565b9a9950505050505050505050565b8115612f1b57612f16888888868561293b565b612f27565b612f2788888886612125565b8315612f3c57612f3788866128ab565b6121f7565b876001600160a01b03166364a197f387876040518363ffffffff1660e01b815260040180836001600160a01b03166001600160a01b0316815260200182815260200192505050600060405180830381600087803b158015612f9c57600080fd5b505af1158015612fb0573d6000803e3d6000fd5b505050505050505050505050565b6000818484111561304d5760405162461bcd60e51b81526004018080602001828103825283818151815260200191508051906020019080838360005b83811015613012578181015183820152602001612ffa565b50505050905090810190601f16801561303f5780820380516001836020036101000a031916815260200191505b509250505060405180910390fd5b505050900390565b6000806130606116cd565b9050600061306c610bd3565b90506130798282866127aa565b949350505050565b600061309f836127c886670de0b6b3a764000063ffffffff61313816565b905081811115610ab6576040805162461bcd60e51b815260206004820152601d60248201527f4665652065786365656465642070726f7669646564206d6178696d756d000000604482015290519081900360640190fd5b6000611f8c83836040518060400160405280601a81526020017f536166654d6174683a206469766973696f6e206279207a65726f000000000000815250613268565b60008261314757506000610b04565b8282028284828161315457fe5b0414611f8c5760405162461bcd60e51b81526004018080602001828103825260218152602001806134e26021913960400191505060405180910390fd5b6000808787866131b0576131ab8a8963ffffffff611f4a16565b6131c0565b6131c08a8963ffffffff61221c16565b9150846131dc576131d7898763ffffffff611f4a16565b612ec1565b612ec1898763ffffffff61221c16565b8015611f475760405162461bcd60e51b815260040180806020018281038252603e81526020018061359a603e913960400191505060405180910390fd5b80821015610b395760405162461bcd60e51b815260040180806020018281038252603e81526020018061376b603e913960400191505060405180910390fd5b600081836132b75760405162461bcd60e51b8152602060048201818152835160248401528351909283926044909101919085019080838360008315613012578181015183820152602001612ffa565b5060008385816132c357fe5b0495945050505050565b604080516060810182526000808252602082018190529181019190915290565b60405180610100016040528060008152602001600081526020016000815260200160008152602001600081526020016000815260200160008152602001600081525090565b604051806101a00160405280600081526020016000815260200160008152602001600015158152602001600081526020016000815260200160008152602001600081526020016000815260200160008152602001600081526020016000815260200160008152509056fe426f72726f7765724f70733a2053656e64696e672045544820746f20416374697665506f6f6c206661696c6564426f72726f7765724f7065726174696f6e733a2043616e6e6f7420776974686472617720616e642061646420636f6c6c426f72726f7765724f70733a204f7065726174696f6e206e6f74207065726d697474656420647572696e67205265636f76657279204d6f6465426f72726f7765724f70733a204f7065726174696f6e206d757374206c656176652074726f7665207769746820494352203e3d204343524d6178206665652070657263656e74616765206d757374206c657373207468616e206f7220657175616c20746f2031303025426f72726f7765724f70733a205468657265206d75737420626520656974686572206120636f6c6c61746572616c206368616e6765206f7220612064656274206368616e6765536166654d6174683a206d756c7469706c69636174696f6e206f766572666c6f77426f72726f7765724f70733a20416e206f7065726174696f6e207468617420776f756c6420726573756c7420696e20544352203c20434352206973206e6f74207065726d6974746564426f72726f7765724f70733a2054726f766520646f6573206e6f74206578697374206f7220697320636c6f736564c3770d654ed33aeea6bf11ac8ef05d02a6a04ed4686dd2f624d853bbec43cc8b426f72726f7765724f70733a20436f6c6c61746572616c207769746864726177616c206e6f74207065726d6974746564205265636f76657279204d6f6465426f72726f7765724f70733a2043616c6c657220646f65736e74206861766520656e6f756768204c55534420746f206d616b652072657061796d656e74426f72726f7765724f70733a20416e206f7065726174696f6e207468617420776f756c6420726573756c7420696e20494352203c204d4352206973206e6f74207065726d6974746564426f72726f7765724f70733a2054726f76652773206e65742064656274206d7573742062652067726561746572207468616e206d696e696d756d426f72726f7765724f70733a20416d6f756e7420726570616964206d757374206e6f74206265206c6172676572207468616e207468652054726f766527732064656274426f72726f7765724f70733a2043616c6c6572206973206e6f742053746162696c69747920506f6f6c4d6178206665652070657263656e74616765206d757374206265206265747765656e20302e352520616e642031303025426f72726f7765724f70733a204465627420696e637265617365207265717569726573206e6f6e2d7a65726f20646562744368616e6765426f72726f7765724f70733a2043616e6e6f7420646563726561736520796f75722054726f766527732049435220696e205265636f76657279204d6f6465a2646970667358221220c1c097eb6d098783846f973422dfcff9e49c9e94829a4c0c29e2febf38bd172164736f6c634300060b0033",
  "linkReferences": {},
  "deployedLinkReferences": {}
}