{
  "_format": "hh-sol-artifact-1",
  "contractName": "LQTYToken",
  "sourceName": "contracts/LQTY/LQTYToken.sol",
  "abi": [
    {
      "inputs": [
        {
          "internalType": "address",
          "name": "_communityIssuanceAddress",
          "type": "address"
        },
        {
          "internalType": "address",
          "name": "_lqtyStakingAddress",
          "type": "address"
        },
        {
          "internalType": "address",
          "name": "_lockupFactoryAddress",
          "type": "address"
        },
        {
          "internalType": "address",
          "name": "_bountyAddress",
          "type": "address"
        },
        {
          "internalType": "address",
          "name": "_lpRewardsAddress",
          "type": "address"
        },
        {
          "internalType": "address",
          "name": "_multisigAddress",
          "type": "address"
        },
        {
          "internalType": "address",
          "name": "_incentivespooladdress",
          "type": "address"
        },
        {
          "internalType": "address",
          "name": "_growthaddress",
          "type": "address"
        }
      ],
      "stateMutability": "nonpayable",
      "type": "constructor"
    },
    {
      "anonymous": false,
      "inputs": [
        {
          "indexed": true,
          "internalType": "address",
          "name": "owner",
          "type": "address"
        },
        {
          "indexed": true,
          "internalType": "address",
          "name": "spender",
          "type": "address"
        },
        {
          "indexed": false,
          "internalType": "uint256",
          "name": "value",
          "type": "uint256"
        }
      ],
      "name": "Approval",
      "type": "event"
    },
    {
      "anonymous": false,
      "inputs": [
        {
          "indexed": false,
          "internalType": "address",
          "name": "_communityIssuanceAddress",
          "type": "address"
        }
      ],
      "name": "CommunityIssuanceAddressSet",
      "type": "event"
    },
    {
      "anonymous": false,
      "inputs": [
        {
          "indexed": false,
          "internalType": "address",
          "name": "_lqtyStakingAddress",
          "type": "address"
        }
      ],
      "name": "LQTYStakingAddressSet",
      "type": "event"
    },
    {
      "anonymous": false,
      "inputs": [
        {
          "indexed": false,
          "internalType": "address",
          "name": "_lockupContractFactoryAddress",
          "type": "address"
        }
      ],
      "name": "LockupContractFactoryAddressSet",
      "type": "event"
    },
    {
      "anonymous": false,
      "inputs": [
        {
          "indexed": true,
          "internalType": "address",
          "name": "from",
          "type": "address"
        },
        {
          "indexed": true,
          "internalType": "address",
          "name": "to",
          "type": "address"
        },
        {
          "indexed": false,
          "internalType": "uint256",
          "name": "value",
          "type": "uint256"
        }
      ],
      "name": "Transfer",
      "type": "event"
    },
    {
      "inputs": [],
      "name": "ONE_YEAR_IN_SECONDS",
      "outputs": [
        {
          "internalType": "uint256",
          "name": "",
          "type": "uint256"
        }
      ],
      "stateMutability": "view",
      "type": "function"
    },
    {
      "inputs": [
        {
          "internalType": "address",
          "name": "owner",
          "type": "address"
        },
        {
          "internalType": "address",
          "name": "spender",
          "type": "address"
        }
      ],
      "name": "allowance",
      "outputs": [
        {
          "internalType": "uint256",
          "name": "",
          "type": "uint256"
        }
      ],
      "stateMutability": "view",
      "type": "function"
    },
    {
      "inputs": [
        {
          "internalType": "address",
          "name": "spender",
          "type": "address"
        },
        {
          "internalType": "uint256",
          "name": "amount",
          "type": "uint256"
        }
      ],
      "name": "approve",
      "outputs": [
        {
          "internalType": "bool",
          "name": "",
          "type": "bool"
        }
      ],
      "stateMutability": "nonpayable",
      "type": "function"
    },
    {
      "inputs": [
        {
          "internalType": "address",
          "name": "account",
          "type": "address"
        }
      ],
      "name": "balanceOf",
      "outputs": [
        {
          "internalType": "uint256",
          "name": "",
          "type": "uint256"
        }
      ],
      "stateMutability": "view",
      "type": "function"
    },
    {
      "inputs": [],
      "name": "communityIssuanceAddress",
      "outputs": [
        {
          "internalType": "address",
          "name": "",
          "type": "address"
        }
      ],
      "stateMutability": "view",
      "type": "function"
    },
    {
      "inputs": [],
      "name": "decimals",
      "outputs": [
        {
          "internalType": "uint8",
          "name": "",
          "type": "uint8"
        }
      ],
      "stateMutability": "view",
      "type": "function"
    },
    {
      "inputs": [
        {
          "internalType": "address",
          "name": "spender",
          "type": "address"
        },
        {
          "internalType": "uint256",
          "name": "subtractedValue",
          "type": "uint256"
        }
      ],
      "name": "decreaseAllowance",
      "outputs": [
        {
          "internalType": "bool",
          "name": "",
          "type": "bool"
        }
      ],
      "stateMutability": "nonpayable",
      "type": "function"
    },
    {
      "inputs": [],
      "name": "domainSeparator",
      "outputs": [
        {
          "internalType": "bytes32",
          "name": "",
          "type": "bytes32"
        }
      ],
      "stateMutability": "view",
      "type": "function"
    },
    {
      "inputs": [],
      "name": "getDeploymentStartTime",
      "outputs": [
        {
          "internalType": "uint256",
          "name": "",
          "type": "uint256"
        }
      ],
      "stateMutability": "view",
      "type": "function"
    },
    {
      "inputs": [],
      "name": "getLpRewardsEntitlement",
      "outputs": [
        {
          "internalType": "uint256",
          "name": "",
          "type": "uint256"
        }
      ],
      "stateMutability": "view",
      "type": "function"
    },
    {
      "inputs": [
        {
          "internalType": "address",
          "name": "spender",
          "type": "address"
        },
        {
          "internalType": "uint256",
          "name": "addedValue",
          "type": "uint256"
        }
      ],
      "name": "increaseAllowance",
      "outputs": [
        {
          "internalType": "bool",
          "name": "",
          "type": "bool"
        }
      ],
      "stateMutability": "nonpayable",
      "type": "function"
    },
    {
      "inputs": [],
      "name": "lockupContractFactory",
      "outputs": [
        {
          "internalType": "contract ILockupContractFactory",
          "name": "",
          "type": "address"
        }
      ],
      "stateMutability": "view",
      "type": "function"
    },
    {
      "inputs": [],
      "name": "lqtyStakingAddress",
      "outputs": [
        {
          "internalType": "address",
          "name": "",
          "type": "address"
        }
      ],
      "stateMutability": "view",
      "type": "function"
    },
    {
      "inputs": [],
      "name": "multisigAddress",
      "outputs": [
        {
          "internalType": "address",
          "name": "",
          "type": "address"
        }
      ],
      "stateMutability": "view",
      "type": "function"
    },
    {
      "inputs": [],
      "name": "name",
      "outputs": [
        {
          "internalType": "string",
          "name": "",
          "type": "string"
        }
      ],
      "stateMutability": "view",
      "type": "function"
    },
    {
      "inputs": [
        {
          "internalType": "address",
          "name": "owner",
          "type": "address"
        }
      ],
      "name": "nonces",
      "outputs": [
        {
          "internalType": "uint256",
          "name": "",
          "type": "uint256"
        }
      ],
      "stateMutability": "view",
      "type": "function"
    },
    {
      "inputs": [
        {
          "internalType": "address",
          "name": "owner",
          "type": "address"
        },
        {
          "internalType": "address",
          "name": "spender",
          "type": "address"
        },
        {
          "internalType": "uint256",
          "name": "amount",
          "type": "uint256"
        },
        {
          "internalType": "uint256",
          "name": "deadline",
          "type": "uint256"
        },
        {
          "internalType": "uint8",
          "name": "v",
          "type": "uint8"
        },
        {
          "internalType": "bytes32",
          "name": "r",
          "type": "bytes32"
        },
        {
          "internalType": "bytes32",
          "name": "s",
          "type": "bytes32"
        }
      ],
      "name": "permit",
      "outputs": [],
      "stateMutability": "nonpayable",
      "type": "function"
    },
    {
      "inputs": [],
      "name": "permitTypeHash",
      "outputs": [
        {
          "internalType": "bytes32",
          "name": "",
          "type": "bytes32"
        }
      ],
      "stateMutability": "view",
      "type": "function"
    },
    {
      "inputs": [
        {
          "internalType": "address",
          "name": "_sender",
          "type": "address"
        },
        {
          "internalType": "uint256",
          "name": "_amount",
          "type": "uint256"
        }
      ],
      "name": "sendToLQTYStaking",
      "outputs": [],
      "stateMutability": "nonpayable",
      "type": "function"
    },
    {
      "inputs": [],
      "name": "symbol",
      "outputs": [
        {
          "internalType": "string",
          "name": "",
          "type": "string"
        }
      ],
      "stateMutability": "view",
      "type": "function"
    },
    {
      "inputs": [],
      "name": "totalSupply",
      "outputs": [
        {
          "internalType": "uint256",
          "name": "",
          "type": "uint256"
        }
      ],
      "stateMutability": "view",
      "type": "function"
    },
    {
      "inputs": [
        {
          "internalType": "address",
          "name": "recipient",
          "type": "address"
        },
        {
          "internalType": "uint256",
          "name": "amount",
          "type": "uint256"
        }
      ],
      "name": "transfer",
      "outputs": [
        {
          "internalType": "bool",
          "name": "",
          "type": "bool"
        }
      ],
      "stateMutability": "nonpayable",
      "type": "function"
    },
    {
      "inputs": [
        {
          "internalType": "address",
          "name": "sender",
          "type": "address"
        },
        {
          "internalType": "address",
          "name": "recipient",
          "type": "address"
        },
        {
          "internalType": "uint256",
          "name": "amount",
          "type": "uint256"
        }
      ],
      "name": "transferFrom",
      "outputs": [
        {
          "internalType": "bool",
          "name": "",
          "type": "bool"
        }
      ],
      "stateMutability": "nonpayable",
      "type": "function"
    },
    {
      "inputs": [],
      "name": "version",
      "outputs": [
        {
          "internalType": "string",
          "name": "",
          "type": "string"
        }
      ],
      "stateMutability": "view",
      "type": "function"
    }
  ],
  "bytecode": "0x6101c060405269d3c21bcecceda10000006004553480156200002057600080fd5b5060405162001e8738038062001e8783398181016040526101008110156200004757600080fd5b508051602082015160408301516060840151608085015160a086015160c087015160e0909701519596949593949293919290916200008e886001600160e01b036200035716565b620000a2876001600160e01b036200035716565b620000b6866001600160e01b036200035716565b6001600160601b0319606084811b821661012052426101005289811b82166101405288811b82166101605287901b166101a052604080518082018252600581526405245414c560dc1b602091820152815180830190925260018252603160f81b9101527fb21dfa0bd17bd710b746374eee2e01f9f8b7d68bbe6940255c83cae8bec366b560c08190527fc89efdaa54c0f20c7adf612882df0950f5a951637e0307cdcb4c672f298b8bc660e0819052620001786001600160e01b036200040c16565b60a052620001b17f8b73c3c69bb8fe3d512ecc4cf759cc79239f7b179b0ffacaa9a75d522b39400f83836001600160e01b036200041016565b608081815250506000620001d760026004546200047160201b62000ad81790919060201c565b9050620001ee88826001600160e01b03620004d816565b60006200020d60026004546200047160201b62000ad81790919060201c565b90506200022486826001600160e01b03620004d816565b6004546000906200024090602062000ad862000471821b17811c565b9050620002578d826001600160e01b03620004d816565b60006200029060036200027c60066004546200047160201b62000ad81790919060201c565b620005d960201b62000b381790919060201c565b6101808190529050620002ad8a826001600160e01b03620004d816565b6000620002cc601f6004546200047160201b62000ad81790919060201c565b9050620002e388826001600160e01b03620004d816565b60006200032a8262000316856200031688620003168c6200031660646004546200047160201b62000ad81790919060201c565b6200062360201b62000b7a1790919060201c565b9050620003418b826001600160e01b03620004d816565b50505050505050505050505050505050620007cc565b6001600160a01b038116620003b3576040805162461bcd60e51b815260206004820152601e60248201527f4163636f756e742063616e6e6f74206265207a65726f20616464726573730000604482015290519081900360640190fd5b803b8062000408576040805162461bcd60e51b815260206004820181905260248201527f4163636f756e7420636f64652073697a652063616e6e6f74206265207a65726f604482015290519081900360640190fd5b5050565b4690565b6000838383620004286001600160e01b036200040c16565b6040805160208082019690965280820194909452606084019290925260808301523060a0808401919091528151808403909101815260c090920190528051910120949350505050565b6000826200048257506000620004d2565b828202828482816200049057fe5b0414620004cf5760405162461bcd60e51b815260040180806020018281038252602181526020018062001e666021913960400191505060405180910390fd5b90505b92915050565b6001600160a01b03821662000534576040805162461bcd60e51b815260206004820152601f60248201527f45524332303a206d696e7420746f20746865207a65726f206164647265737300604482015290519081900360640190fd5b62000550816002546200066d60201b62000bbc1790919060201c565b6002556001600160a01b038216600090815260208181526040909120546200058391839062000bbc6200066d821b17901c565b6001600160a01b0383166000818152602081815260408083209490945583518581529351929391927fddf252ad1be2c89b69c2b068fc378daa952ba7f163c4a11628f55a4df523b3ef9281900390910190a35050565b6000620004cf83836040518060400160405280601a81526020017f536166654d6174683a206469766973696f6e206279207a65726f000000000000815250620006c860201b60201c565b6000620004cf83836040518060400160405280601e81526020017f536166654d6174683a207375627472616374696f6e206f766572666c6f7700008152506200076f60201b60201c565b600082820183811015620004cf576040805162461bcd60e51b815260206004820152601b60248201527f536166654d6174683a206164646974696f6e206f766572666c6f770000000000604482015290519081900360640190fd5b60008183620007585760405162461bcd60e51b81526004018080602001828103825283818151815260200191508051906020019080838360005b838110156200071c57818101518382015260200162000702565b50505050905090810190601f1680156200074a5780820380516001836020036101000a031916815260200191505b509250505060405180910390fd5b5060008385816200076557fe5b0495945050505050565b60008184841115620007c45760405162461bcd60e51b81526020600482018181528351602484015283519092839260449091019190850190808383600083156200071c57818101518382015260200162000702565b505050900390565b60805160a05160c05160e051610100516101205160601c6101405160601c6101605160601c610180516101a05160601c6115f4620008726000398061068b52806111275250806106af52508061064c52806109e55280610e93528061120d52508061096d5280610e565250806105f25280610d8652806111015250806105ce5280610c22525080610aad525080610a8c525080610a12525080610a4252506115f46000f3fe608060405234801561001057600080fd5b50600436106101585760003560e01c80637ecebe00116100c3578063d505accf1161007c578063d505accf146103ac578063d874ea74146103ff578063dd62ed3e14610407578063e7c8fed414610435578063f3a2568b1461043d578063f698da251461046957610158565b80637ecebe001461031e578063811c5b4d1461034457806395d89b411461015d578063974f55901461034c578063a457c2d714610354578063a9059cbb1461038057610158565b8063395093511161011557806339509351146102905780633c84b7c2146102bc5780635462870d146102c457806354fd4d50146102e857806370a08231146102f0578063761ab22c1461031657610158565b806306fdde031461015d578063095ea7b3146101da57806310ce43bd1461021a57806318160ddd1461023457806323b872dd1461023c578063313ce56714610272575b600080fd5b610165610471565b6040805160208082528351818301528351919283929083019185019080838360005b8381101561019f578181015183820152602001610187565b50505050905090810190601f1680156101cc5780820380516001836020036101000a031916815260200191505b509250505060405180910390f35b610206600480360360408110156101f057600080fd5b506001600160a01b038135169060200135610491565b604080519115158252519081900360200190f35b6102226104bd565b60408051918252519081900360200190f35b6102226104e1565b6102066004803603606081101561025257600080fd5b506001600160a01b038135811691602081013590911690604001356104e7565b61027a610575565b6040805160ff9092168252519081900360200190f35b610206600480360360408110156102a657600080fd5b506001600160a01b03813516906020013561057a565b6102226105cc565b6102cc6105f0565b604080516001600160a01b039092168252519081900360200190f35b610165610614565b6102226004803603602081101561030657600080fd5b50356001600160a01b031661062f565b6102cc61064a565b6102226004803603602081101561033457600080fd5b50356001600160a01b031661066e565b6102cc610689565b6102226106ad565b6102066004803603604081101561036a57600080fd5b506001600160a01b0381351690602001356106d1565b6102066004803603604081101561039657600080fd5b506001600160a01b03813516906020013561073b565b6103fd600480360360e08110156103c257600080fd5b506001600160a01b03813581169160208101359091169060408101359060608101359060ff6080820135169060a08101359060c00135610776565b005b6102cc61096b565b6102226004803603604081101561041d57600080fd5b506001600160a01b038135811691602001351661098f565b6102226109ba565b6103fd6004803603604081101561045357600080fd5b506001600160a01b0381351690602001356109c1565b610222610a0e565b60408051808201909152600581526405245414c560dc1b60208201525b90565b600061049b610c16565b156104a8576104a8610c52565b6104b3338484610c98565b5060015b92915050565b7f6e71edae12b1b97f4d1f60370fef10105fa2faae0126114a169c64845d6126c990565b60025490565b60006104f1610c16565b156104ff576104ff84610d84565b61050883610df8565b610513848484610f03565b61056b843361056685604051806060016040528060288152602001611409602891396001600160a01b038a166000908152600160209081526040808320338452909152902054919063ffffffff61105f16565b610c98565b5060019392505050565b601290565b6000610584610c16565b1561059157610591610c52565b3360008181526001602090815260408083206001600160a01b03881684529091529020546104b391908590610566908663ffffffff610bbc16565b7f000000000000000000000000000000000000000000000000000000000000000090565b7f000000000000000000000000000000000000000000000000000000000000000081565b6040805180820190915260018152603160f81b602082015290565b6001600160a01b031660009081526020819052604090205490565b7f000000000000000000000000000000000000000000000000000000000000000081565b6001600160a01b031660009081526003602052604090205490565b7f000000000000000000000000000000000000000000000000000000000000000081565b7f000000000000000000000000000000000000000000000000000000000000000090565b60006106db610c16565b156106e8576106e8610c52565b6104b333846105668560405180606001604052806025815260200161159a602591393360009081526001602090815260408083206001600160a01b038d168452909152902054919063ffffffff61105f16565b60006107456110f6565b80156107545750610754610c16565b156107625761076283611125565b61076b83610df8565b6104b3338484610f03565b428410156107c4576040805162461bcd60e51b81526020600482015260166024820152754c5154593a206578706972656420646561646c696e6560501b604482015290519081900360640190fd5b60006107ce610a0e565b6001600160a01b03808a1660008181526003602090815260408083208054600180820190925582517f6e71edae12b1b97f4d1f60370fef10105fa2faae0126114a169c64845d6126c98186015280840196909652958e166060860152608085018d905260a085019590955260c08085018c90528151808603909101815260e08501825280519083012061190160f01b6101008601526101028501969096526101228085019690965280518085039096018652610142840180825286519683019690962095839052610162840180825286905260ff8a166101828501526101a284018990526101c284018890525194955090936101e280840193601f198301929081900390910190855afa1580156108e9573d6000803e3d6000fd5b505050602060405103519050886001600160a01b0316816001600160a01b031614610955576040805162461bcd60e51b81526020600482015260176024820152764c5154593a20696e76616c6964207369676e617475726560481b604482015290519081900360640190fd5b610960898989610c98565b505050505050505050565b7f000000000000000000000000000000000000000000000000000000000000000081565b6001600160a01b03918216600090815260016020908152604080832093909416825291909152205490565b62f099c081565b6109c9611202565b6109d1610c16565b156109df576109df82610d84565b610a0a827f000000000000000000000000000000000000000000000000000000000000000083610f03565b5050565b60007f0000000000000000000000000000000000000000000000000000000000000000610a39611269565b1415610a6657507f000000000000000000000000000000000000000000000000000000000000000061048e565b610ad17f8b73c3c69bb8fe3d512ecc4cf759cc79239f7b179b0ffacaa9a75d522b39400f7f00000000000000000000000000000000000000000000000000000000000000007f000000000000000000000000000000000000000000000000000000000000000061126d565b905061048e565b600082610ae7575060006104b7565b82820282848281610af457fe5b0414610b315760405162461bcd60e51b81526004018080602001828103825260218152602001806113be6021913960400191505060405180910390fd5b9392505050565b6000610b3183836040518060400160405280601a81526020017f536166654d6174683a206469766973696f6e206279207a65726f0000000000008152506112c3565b6000610b3183836040518060400160405280601e81526020017f536166654d6174683a207375627472616374696f6e206f766572666c6f77000081525061105f565b600082820183811015610b31576040805162461bcd60e51b815260206004820152601b60248201527f536166654d6174683a206164646974696f6e206f766572666c6f770000000000604482015290519081900360640190fd5b600062f099c0610c4c427f000000000000000000000000000000000000000000000000000000000000000063ffffffff610b7a16565b10905090565b610c5a6110f6565b15610c965760405162461bcd60e51b815260040180806020018281038252602a81526020018061136e602a913960400191505060405180910390fd5b565b6001600160a01b038316610cdd5760405162461bcd60e51b81526004018080602001828103825260248152602001806114566024913960400191505060405180910390fd5b6001600160a01b038216610d225760405162461bcd60e51b815260040180806020018281038252602281526020018061134c6022913960400191505060405180910390fd5b6001600160a01b03808416600081815260016020908152604080832094871680845294825291829020859055815185815291517f8c5be1e5ebec7d5bd14f71427d1e84f3dd0314c0f7b2291e5b200ac8c7c3b9259281900390910190a3505050565b7f00000000000000000000000000000000000000000000000000000000000000006001600160a01b0316816001600160a01b03161415610df55760405162461bcd60e51b815260040180806020018281038252602a8152602001806113df602a913960400191505060405180910390fd5b50565b6001600160a01b03811615801590610e1957506001600160a01b0381163014155b610e545760405162461bcd60e51b81526004018080602001828103825260548152602001806114ac6054913960600191505060405180910390fd5b7f00000000000000000000000000000000000000000000000000000000000000006001600160a01b0316816001600160a01b031614158015610ec857507f00000000000000000000000000000000000000000000000000000000000000006001600160a01b0316816001600160a01b031614155b610df55760405162461bcd60e51b81526004018080602001828103825260538152602001806115006053913960600191505060405180910390fd5b6001600160a01b038316610f485760405162461bcd60e51b81526004018080602001828103825260258152602001806114316025913960400191505060405180910390fd5b6001600160a01b038216610f8d5760405162461bcd60e51b81526004018080602001828103825260238152602001806113296023913960400191505060405180910390fd5b610fd081604051806060016040528060268152602001611398602691396001600160a01b038616600090815260208190526040902054919063ffffffff61105f16565b6001600160a01b038085166000908152602081905260408082209390935590841681522054611005908263ffffffff610bbc16565b6001600160a01b038084166000818152602081815260409182902094909455805185815290519193928716927fddf252ad1be2c89b69c2b068fc378daa952ba7f163c4a11628f55a4df523b3ef92918290030190a3505050565b600081848411156110ee5760405162461bcd60e51b81526004018080602001828103825283818151815260200191508051906020019080838360005b838110156110b357818101518382015260200161109b565b50505050905090810190601f1680156110e05780820380516001836020036101000a031916815260200191505b509250505060405180910390fd5b505050900390565b336001600160a01b037f0000000000000000000000000000000000000000000000000000000000000000161490565b7f00000000000000000000000000000000000000000000000000000000000000006001600160a01b031663bb7603f1826040518263ffffffff1660e01b815260040180826001600160a01b03166001600160a01b0316815260200191505060206040518083038186803b15801561119b57600080fd5b505afa1580156111af573d6000803e3d6000fd5b505050506040513d60208110156111c557600080fd5b5051610df55760405162461bcd60e51b81526004018080602001828103825260478152602001806115536047913960600191505060405180910390fd5b336001600160a01b037f00000000000000000000000000000000000000000000000000000000000000001614610c965760405162461bcd60e51b815260040180806020018281038252603281526020018061147a6032913960400191505060405180910390fd5b4690565b600083838361127a611269565b6040805160208082019690965280820194909452606084019290925260808301523060a0808401919091528151808403909101815260c090920190528051910120949350505050565b600081836113125760405162461bcd60e51b81526020600482018181528351602484015283519092839260449091019190850190808383600083156110b357818101518382015260200161109b565b50600083858161131e57fe5b049594505050505056fe45524332303a207472616e7366657220746f20746865207a65726f206164647265737345524332303a20617070726f766520746f20746865207a65726f20616464726573734c515459546f6b656e3a2063616c6c6572206d757374206e6f7420626520746865206d756c746973696745524332303a207472616e7366657220616d6f756e7420657863656564732062616c616e6365536166654d6174683a206d756c7469706c69636174696f6e206f766572666c6f774c515459546f6b656e3a2073656e646572206d757374206e6f7420626520746865206d756c746973696745524332303a207472616e7366657220616d6f756e74206578636565647320616c6c6f77616e636545524332303a207472616e736665722066726f6d20746865207a65726f206164647265737345524332303a20617070726f76652066726f6d20746865207a65726f20616464726573734c515459546f6b656e3a2063616c6c6572206d75737420626520746865204c5154595374616b696e6720636f6e74726163744c5154593a2043616e6e6f74207472616e7366657220746f6b656e73206469726563746c7920746f20746865204c51545920746f6b656e20636f6e7472616374206f7220746865207a65726f20616464726573734c5154593a2043616e6e6f74207472616e7366657220746f6b656e73206469726563746c7920746f2074686520636f6d6d756e6974792069737375616e6365206f72207374616b696e6720636f6e74726163744c515459546f6b656e3a20726563697069656e74206d7573742062652061204c6f636b7570436f6e7472616374207265676973746572656420696e2074686520466163746f727945524332303a2064656372656173656420616c6c6f77616e63652062656c6f77207a65726fa2646970667358221220ac5754bf3f367590b248dee9f8413ba1f580f0487dca5547a9071f07cd81ad6f64736f6c634300060b0033536166654d6174683a206d756c7469706c69636174696f6e206f766572666c6f77",
  "linkReferences": {},
  "deployedLinkReferences": {}
}