{
  "_format": "hh-sol-artifact-1",
  "contractName": "LQTYTokenTester",
  "sourceName": "contracts/TestContracts/LQTYTokenTester.sol",
  "abi": [
    {
      "inputs": [
        {
          "internalType": "address",
          "name": "_communityIssuanceAddress",
          "type": "address"
        },
        {
          "internalType": "address",
          "name": "_lqtyStakingAddress",
          "type": "address"
        },
        {
          "internalType": "address",
          "name": "_lockupFactoryAddress",
          "type": "address"
        },
        {
          "internalType": "address",
          "name": "_bountyAddress",
          "type": "address"
        },
        {
          "internalType": "address",
          "name": "_lpRewardsAddress",
          "type": "address"
        },
        {
          "internalType": "address",
          "name": "_multisigAddress",
          "type": "address"
        },
        {
          "internalType": "address",
          "name": "_incentivespooladdress",
          "type": "address"
        },
        {
          "internalType": "address",
          "name": "_growthaddress",
          "type": "address"
        }
      ],
      "stateMutability": "nonpayable",
      "type": "constructor"
    },
    {
      "anonymous": false,
      "inputs": [
        {
          "indexed": true,
          "internalType": "address",
          "name": "owner",
          "type": "address"
        },
        {
          "indexed": true,
          "internalType": "address",
          "name": "spender",
          "type": "address"
        },
        {
          "indexed": false,
          "internalType": "uint256",
          "name": "value",
          "type": "uint256"
        }
      ],
      "name": "Approval",
      "type": "event"
    },
    {
      "anonymous": false,
      "inputs": [
        {
          "indexed": false,
          "internalType": "address",
          "name": "_communityIssuanceAddress",
          "type": "address"
        }
      ],
      "name": "CommunityIssuanceAddressSet",
      "type": "event"
    },
    {
      "anonymous": false,
      "inputs": [
        {
          "indexed": false,
          "internalType": "address",
          "name": "_lqtyStakingAddress",
          "type": "address"
        }
      ],
      "name": "LQTYStakingAddressSet",
      "type": "event"
    },
    {
      "anonymous": false,
      "inputs": [
        {
          "indexed": false,
          "internalType": "address",
          "name": "_lockupContractFactoryAddress",
          "type": "address"
        }
      ],
      "name": "LockupContractFactoryAddressSet",
      "type": "event"
    },
    {
      "anonymous": false,
      "inputs": [
        {
          "indexed": true,
          "internalType": "address",
          "name": "from",
          "type": "address"
        },
        {
          "indexed": true,
          "internalType": "address",
          "name": "to",
          "type": "address"
        },
        {
          "indexed": false,
          "internalType": "uint256",
          "name": "value",
          "type": "uint256"
        }
      ],
      "name": "Transfer",
      "type": "event"
    },
    {
      "inputs": [],
      "name": "ONE_YEAR_IN_SECONDS",
      "outputs": [
        {
          "internalType": "uint256",
          "name": "",
          "type": "uint256"
        }
      ],
      "stateMutability": "view",
      "type": "function"
    },
    {
      "inputs": [
        {
          "internalType": "address",
          "name": "owner",
          "type": "address"
        },
        {
          "internalType": "address",
          "name": "spender",
          "type": "address"
        }
      ],
      "name": "allowance",
      "outputs": [
        {
          "internalType": "uint256",
          "name": "",
          "type": "uint256"
        }
      ],
      "stateMutability": "view",
      "type": "function"
    },
    {
      "inputs": [
        {
          "internalType": "address",
          "name": "spender",
          "type": "address"
        },
        {
          "internalType": "uint256",
          "name": "amount",
          "type": "uint256"
        }
      ],
      "name": "approve",
      "outputs": [
        {
          "internalType": "bool",
          "name": "",
          "type": "bool"
        }
      ],
      "stateMutability": "nonpayable",
      "type": "function"
    },
    {
      "inputs": [
        {
          "internalType": "address",
          "name": "account",
          "type": "address"
        }
      ],
      "name": "balanceOf",
      "outputs": [
        {
          "internalType": "uint256",
          "name": "",
          "type": "uint256"
        }
      ],
      "stateMutability": "view",
      "type": "function"
    },
    {
      "inputs": [
        {
          "internalType": "address",
          "name": "owner",
          "type": "address"
        },
        {
          "internalType": "address",
          "name": "spender",
          "type": "address"
        },
        {
          "internalType": "uint256",
          "name": "amount",
          "type": "uint256"
        }
      ],
      "name": "callInternalApprove",
      "outputs": [
        {
          "internalType": "bool",
          "name": "",
          "type": "bool"
        }
      ],
      "stateMutability": "nonpayable",
      "type": "function"
    },
    {
      "inputs": [
        {
          "internalType": "address",
          "name": "sender",
          "type": "address"
        },
        {
          "internalType": "address",
          "name": "recipient",
          "type": "address"
        },
        {
          "internalType": "uint256",
          "name": "amount",
          "type": "uint256"
        }
      ],
      "name": "callInternalTransfer",
      "outputs": [
        {
          "internalType": "bool",
          "name": "",
          "type": "bool"
        }
      ],
      "stateMutability": "nonpayable",
      "type": "function"
    },
    {
      "inputs": [],
      "name": "communityIssuanceAddress",
      "outputs": [
        {
          "internalType": "address",
          "name": "",
          "type": "address"
        }
      ],
      "stateMutability": "view",
      "type": "function"
    },
    {
      "inputs": [],
      "name": "decimals",
      "outputs": [
        {
          "internalType": "uint8",
          "name": "",
          "type": "uint8"
        }
      ],
      "stateMutability": "view",
      "type": "function"
    },
    {
      "inputs": [
        {
          "internalType": "address",
          "name": "spender",
          "type": "address"
        },
        {
          "internalType": "uint256",
          "name": "subtractedValue",
          "type": "uint256"
        }
      ],
      "name": "decreaseAllowance",
      "outputs": [
        {
          "internalType": "bool",
          "name": "",
          "type": "bool"
        }
      ],
      "stateMutability": "nonpayable",
      "type": "function"
    },
    {
      "inputs": [],
      "name": "domainSeparator",
      "outputs": [
        {
          "internalType": "bytes32",
          "name": "",
          "type": "bytes32"
        }
      ],
      "stateMutability": "view",
      "type": "function"
    },
    {
      "inputs": [],
      "name": "getChainId",
      "outputs": [
        {
          "internalType": "uint256",
          "name": "chainID",
          "type": "uint256"
        }
      ],
      "stateMutability": "pure",
      "type": "function"
    },
    {
      "inputs": [],
      "name": "getDeploymentStartTime",
      "outputs": [
        {
          "internalType": "uint256",
          "name": "",
          "type": "uint256"
        }
      ],
      "stateMutability": "view",
      "type": "function"
    },
    {
      "inputs": [],
      "name": "getLpRewardsEntitlement",
      "outputs": [
        {
          "internalType": "uint256",
          "name": "",
          "type": "uint256"
        }
      ],
      "stateMutability": "view",
      "type": "function"
    },
    {
      "inputs": [
        {
          "internalType": "address",
          "name": "spender",
          "type": "address"
        },
        {
          "internalType": "uint256",
          "name": "addedValue",
          "type": "uint256"
        }
      ],
      "name": "increaseAllowance",
      "outputs": [
        {
          "internalType": "bool",
          "name": "",
          "type": "bool"
        }
      ],
      "stateMutability": "nonpayable",
      "type": "function"
    },
    {
      "inputs": [],
      "name": "lockupContractFactory",
      "outputs": [
        {
          "internalType": "contract ILockupContractFactory",
          "name": "",
          "type": "address"
        }
      ],
      "stateMutability": "view",
      "type": "function"
    },
    {
      "inputs": [],
      "name": "lqtyStakingAddress",
      "outputs": [
        {
          "internalType": "address",
          "name": "",
          "type": "address"
        }
      ],
      "stateMutability": "view",
      "type": "function"
    },
    {
      "inputs": [],
      "name": "multisigAddress",
      "outputs": [
        {
          "internalType": "address",
          "name": "",
          "type": "address"
        }
      ],
      "stateMutability": "view",
      "type": "function"
    },
    {
      "inputs": [],
      "name": "name",
      "outputs": [
        {
          "internalType": "string",
          "name": "",
          "type": "string"
        }
      ],
      "stateMutability": "view",
      "type": "function"
    },
    {
      "inputs": [
        {
          "internalType": "address",
          "name": "owner",
          "type": "address"
        }
      ],
      "name": "nonces",
      "outputs": [
        {
          "internalType": "uint256",
          "name": "",
          "type": "uint256"
        }
      ],
      "stateMutability": "view",
      "type": "function"
    },
    {
      "inputs": [
        {
          "internalType": "address",
          "name": "owner",
          "type": "address"
        },
        {
          "internalType": "address",
          "name": "spender",
          "type": "address"
        },
        {
          "internalType": "uint256",
          "name": "amount",
          "type": "uint256"
        },
        {
          "internalType": "uint256",
          "name": "deadline",
          "type": "uint256"
        },
        {
          "internalType": "uint8",
          "name": "v",
          "type": "uint8"
        },
        {
          "internalType": "bytes32",
          "name": "r",
          "type": "bytes32"
        },
        {
          "internalType": "bytes32",
          "name": "s",
          "type": "bytes32"
        }
      ],
      "name": "permit",
      "outputs": [],
      "stateMutability": "nonpayable",
      "type": "function"
    },
    {
      "inputs": [],
      "name": "permitTypeHash",
      "outputs": [
        {
          "internalType": "bytes32",
          "name": "",
          "type": "bytes32"
        }
      ],
      "stateMutability": "view",
      "type": "function"
    },
    {
      "inputs": [
        {
          "internalType": "address",
          "name": "_sender",
          "type": "address"
        },
        {
          "internalType": "uint256",
          "name": "_amount",
          "type": "uint256"
        }
      ],
      "name": "sendToLQTYStaking",
      "outputs": [],
      "stateMutability": "nonpayable",
      "type": "function"
    },
    {
      "inputs": [],
      "name": "symbol",
      "outputs": [
        {
          "internalType": "string",
          "name": "",
          "type": "string"
        }
      ],
      "stateMutability": "view",
      "type": "function"
    },
    {
      "inputs": [],
      "name": "totalSupply",
      "outputs": [
        {
          "internalType": "uint256",
          "name": "",
          "type": "uint256"
        }
      ],
      "stateMutability": "view",
      "type": "function"
    },
    {
      "inputs": [
        {
          "internalType": "address",
          "name": "recipient",
          "type": "address"
        },
        {
          "internalType": "uint256",
          "name": "amount",
          "type": "uint256"
        }
      ],
      "name": "transfer",
      "outputs": [
        {
          "internalType": "bool",
          "name": "",
          "type": "bool"
        }
      ],
      "stateMutability": "nonpayable",
      "type": "function"
    },
    {
      "inputs": [
        {
          "internalType": "address",
          "name": "sender",
          "type": "address"
        },
        {
          "internalType": "address",
          "name": "recipient",
          "type": "address"
        },
        {
          "internalType": "uint256",
          "name": "amount",
          "type": "uint256"
        }
      ],
      "name": "transferFrom",
      "outputs": [
        {
          "internalType": "bool",
          "name": "",
          "type": "bool"
        }
      ],
      "stateMutability": "nonpayable",
      "type": "function"
    },
    {
      "inputs": [
        {
          "internalType": "address",
          "name": "account",
          "type": "address"
        },
        {
          "internalType": "uint256",
          "name": "amount",
          "type": "uint256"
        }
      ],
      "name": "unprotectedMint",
      "outputs": [],
      "stateMutability": "nonpayable",
      "type": "function"
    },
    {
      "inputs": [
        {
          "internalType": "address",
          "name": "_sender",
          "type": "address"
        },
        {
          "internalType": "uint256",
          "name": "_amount",
          "type": "uint256"
        }
      ],
      "name": "unprotectedSendToLQTYStaking",
      "outputs": [],
      "stateMutability": "nonpayable",
      "type": "function"
    },
    {
      "inputs": [],
      "name": "version",
      "outputs": [
        {
          "internalType": "string",
          "name": "",
          "type": "string"
        }
      ],
      "stateMutability": "view",
      "type": "function"
    }
  ],
  "bytecode": "0x6101c060405269d3c21bcecceda10000006004553480156200002057600080fd5b50604051620020ae380380620020ae83398181016040526101008110156200004757600080fd5b508051602082015160408301516060840151608085015160a086015160c087015160e090970151959694959394929391929091878787878787878762000096886001600160e01b036200036716565b620000aa876001600160e01b036200036716565b620000be866001600160e01b036200036716565b6001600160601b0319606084811b821661012052426101005289811b82166101405288811b82166101605287901b166101a052604080518082018252600581526405245414c560dc1b602091820152815180830190925260018252603160f81b9101527fb21dfa0bd17bd710b746374eee2e01f9f8b7d68bbe6940255c83cae8bec366b560c08190527fc89efdaa54c0f20c7adf612882df0950f5a951637e0307cdcb4c672f298b8bc660e0819052620001806001600160e01b036200041c16565b60a052620001b97f8b73c3c69bb8fe3d512ecc4cf759cc79239f7b179b0ffacaa9a75d522b39400f83836001600160e01b036200042016565b608081815250506000620001df60026004546200048160201b62000c0a1790919060201c565b9050620001f688826001600160e01b03620004e816565b60006200021560026004546200048160201b62000c0a1790919060201c565b90506200022c86826001600160e01b03620004e816565b6004546000906200024890602062000c0a62000481821b17811c565b90506200025f8d826001600160e01b03620004e816565b60006200029860036200028460066004546200048160201b62000c0a1790919060201c565b620005e960201b62000c631790919060201c565b6101808190529050620002b58a826001600160e01b03620004e816565b6000620002d4601f6004546200048160201b62000c0a1790919060201c565b9050620002eb88826001600160e01b03620004e816565b600062000332826200031e856200031e886200031e8c6200031e60646004546200048160201b62000c0a1790919060201c565b6200063360201b62000ca51790919060201c565b9050620003498b826001600160e01b03620004e816565b505050505050505050505050505050505050505050505050620007dc565b6001600160a01b038116620003c3576040805162461bcd60e51b815260206004820152601e60248201527f4163636f756e742063616e6e6f74206265207a65726f20616464726573730000604482015290519081900360640190fd5b803b8062000418576040805162461bcd60e51b815260206004820181905260248201527f4163636f756e7420636f64652073697a652063616e6e6f74206265207a65726f604482015290519081900360640190fd5b5050565b4690565b6000838383620004386001600160e01b036200041c16565b6040805160208082019690965280820194909452606084019290925260808301523060a0808401919091528151808403909101815260c090920190528051910120949350505050565b6000826200049257506000620004e2565b82820282848281620004a057fe5b0414620004df5760405162461bcd60e51b81526004018080602001828103825260218152602001806200208d6021913960400191505060405180910390fd5b90505b92915050565b6001600160a01b03821662000544576040805162461bcd60e51b815260206004820152601f60248201527f45524332303a206d696e7420746f20746865207a65726f206164647265737300604482015290519081900360640190fd5b62000560816002546200067d60201b62000ce71790919060201c565b6002556001600160a01b038216600090815260208181526040909120546200059391839062000ce76200067d821b17901c565b6001600160a01b0383166000818152602081815260408083209490945583518581529351929391927fddf252ad1be2c89b69c2b068fc378daa952ba7f163c4a11628f55a4df523b3ef9281900390910190a35050565b6000620004df83836040518060400160405280601a81526020017f536166654d6174683a206469766973696f6e206279207a65726f000000000000815250620006d860201b60201c565b6000620004df83836040518060400160405280601e81526020017f536166654d6174683a207375627472616374696f6e206f766572666c6f7700008152506200077f60201b60201c565b600082820183811015620004df576040805162461bcd60e51b815260206004820152601b60248201527f536166654d6174683a206164646974696f6e206f766572666c6f770000000000604482015290519081900360640190fd5b60008183620007685760405162461bcd60e51b81526004018080602001828103825283818151815260200191508051906020019080838360005b838110156200072c57818101518382015260200162000712565b50505050905090810190601f1680156200075a5780820380516001836020036101000a031916815260200191505b509250505060405180910390fd5b5060008385816200077557fe5b0495945050505050565b60008184841115620007d45760405162461bcd60e51b81526020600482018181528351602484015283519092839260449091019190850190808383600083156200072c57818101518382015260200162000712565b505050900390565b60805160a05160c05160e051610100516101205160601c6101405160601c6101605160601c610180516101a05160601c61180b6200088260003980610802528061134252508061082652508061073452806107c35280610fbe5280611428525080610ae45280610f815250806107695280610eb1528061131c5250806106f65280610e39525080610bdf525080610bbe525080610b44525080610b74525061180b6000f3fe608060405234801561001057600080fd5b506004361061018f5760003560e01c806354fd4d50116100e4578063a457c2d711610092578063a457c2d714610459578063a9059cbb14610485578063d505accf146104b1578063d874ea7414610502578063dd62ed3e1461050a578063e7c8fed414610538578063f3a2568b14610540578063f698da251461056c5761018f565b806354fd4d50146103ed57806370a08231146103f5578063761ab22c1461041b5780637ecebe0014610423578063811c5b4d1461044957806395d89b41146101de578063974f5590146104515761018f565b80633408e470116101415780633408e470146102fd578063387a54d914610305578063395093511461033b5780633c84b7c2146103675780634655018c1461036f5780635099f99f1461039d5780635462870d146103c95761018f565b806303d999461461019457806306fdde03146101de578063095ea7b31461025b57806310ce43bd1461028757806318160ddd146102a157806323b872dd146102a9578063313ce567146102df575b600080fd5b6101ca600480360360608110156101aa57600080fd5b506001600160a01b03813581169160208101359091169060400135610574565b604080519115158252519081900360200190f35b6101e6610588565b6040805160208082528351818301528351919283929083019185019080838360005b83811015610220578181015183820152602001610208565b50505050905090810190601f16801561024d5780820380516001836020036101000a031916815260200191505b509250505060405180910390f35b6101ca6004803603604081101561027157600080fd5b506001600160a01b0381351690602001356105a8565b61028f6105d4565b60408051918252519081900360200190f35b61028f6105f8565b6101ca600480360360608110156102bf57600080fd5b506001600160a01b038135811691602081013590911690604001356105fe565b6102e761068c565b6040805160ff9092168252519081900360200190f35b61028f610691565b6101ca6004803603606081101561031b57600080fd5b506001600160a01b03813581169160208101359091169060400135610695565b6101ca6004803603604081101561035157600080fd5b506001600160a01b0381351690602001356106a2565b61028f6106f4565b61039b6004803603604081101561038557600080fd5b506001600160a01b038135169060200135610718565b005b61039b600480360360408110156103b357600080fd5b506001600160a01b03813516906020013561075d565b6103d1610767565b604080516001600160a01b039092168252519081900360200190f35b6101e661078b565b61028f6004803603602081101561040b57600080fd5b50356001600160a01b03166107a6565b6103d16107c1565b61028f6004803603602081101561043957600080fd5b50356001600160a01b03166107e5565b6103d1610800565b61028f610824565b6101ca6004803603604081101561046f57600080fd5b506001600160a01b038135169060200135610848565b6101ca6004803603604081101561049b57600080fd5b506001600160a01b0381351690602001356108b2565b61039b600480360360e08110156104c757600080fd5b506001600160a01b03813581169160208101359091169060408101359060608101359060ff6080820135169060a08101359060c001356108ed565b6103d1610ae2565b61028f6004803603604081101561052057600080fd5b506001600160a01b0381358116916020013516610b06565b61028f610b31565b61039b6004803603604081101561055657600080fd5b506001600160a01b038135169060200135610b38565b61028f610b40565b6000610581848484610d41565b9392505050565b60408051808201909152600581526405245414c560dc1b60208201525b90565b60006105b2610e2d565b156105bf576105bf610e69565b6105ca338484610d41565b5060015b92915050565b7f6e71edae12b1b97f4d1f60370fef10105fa2faae0126114a169c64845d6126c990565b60025490565b6000610608610e2d565b156106165761061684610eaf565b61061f83610f23565b61062a84848461102e565b610682843361067d85604051806060016040528060288152602001611620602891396001600160a01b038a166000908152600160209081526040808320338452909152902054919063ffffffff61118a16565b610d41565b5060019392505050565b601290565b4690565b600061058184848461102e565b60006106ac610e2d565b156106b9576106b9610e69565b3360008181526001602090815260408083206001600160a01b03881684529091529020546105ca9190859061067d908663ffffffff610ce716565b7f000000000000000000000000000000000000000000000000000000000000000090565b610720610e2d565b1561072e5761072e82610eaf565b610759827f00000000000000000000000000000000000000000000000000000000000000008361102e565b5050565b6107598282611221565b7f000000000000000000000000000000000000000000000000000000000000000081565b6040805180820190915260018152603160f81b602082015290565b6001600160a01b031660009081526020819052604090205490565b7f000000000000000000000000000000000000000000000000000000000000000081565b6001600160a01b031660009081526003602052604090205490565b7f000000000000000000000000000000000000000000000000000000000000000081565b7f000000000000000000000000000000000000000000000000000000000000000090565b6000610852610e2d565b1561085f5761085f610e69565b6105ca338461067d856040518060600160405280602581526020016117b1602591393360009081526001602090815260408083206001600160a01b038d168452909152902054919063ffffffff61118a16565b60006108bc611311565b80156108cb57506108cb610e2d565b156108d9576108d983611340565b6108e283610f23565b6105ca33848461102e565b4284101561093b576040805162461bcd60e51b81526020600482015260166024820152754c5154593a206578706972656420646561646c696e6560501b604482015290519081900360640190fd5b6000610945610b40565b6001600160a01b03808a1660008181526003602090815260408083208054600180820190925582517f6e71edae12b1b97f4d1f60370fef10105fa2faae0126114a169c64845d6126c98186015280840196909652958e166060860152608085018d905260a085019590955260c08085018c90528151808603909101815260e08501825280519083012061190160f01b6101008601526101028501969096526101228085019690965280518085039096018652610142840180825286519683019690962095839052610162840180825286905260ff8a166101828501526101a284018990526101c284018890525194955090936101e280840193601f198301929081900390910190855afa158015610a60573d6000803e3d6000fd5b505050602060405103519050886001600160a01b0316816001600160a01b031614610acc576040805162461bcd60e51b81526020600482015260176024820152764c5154593a20696e76616c6964207369676e617475726560481b604482015290519081900360640190fd5b610ad7898989610d41565b505050505050505050565b7f000000000000000000000000000000000000000000000000000000000000000081565b6001600160a01b03918216600090815260016020908152604080832093909416825291909152205490565b62f099c081565b61071861141d565b60007f0000000000000000000000000000000000000000000000000000000000000000610b6b610691565b1415610b9857507f00000000000000000000000000000000000000000000000000000000000000006105a5565b610c037f8b73c3c69bb8fe3d512ecc4cf759cc79239f7b179b0ffacaa9a75d522b39400f7f00000000000000000000000000000000000000000000000000000000000000007f0000000000000000000000000000000000000000000000000000000000000000611484565b90506105a5565b600082610c19575060006105ce565b82820282848281610c2657fe5b04146105815760405162461bcd60e51b81526004018080602001828103825260218152602001806115d56021913960400191505060405180910390fd5b600061058183836040518060400160405280601a81526020017f536166654d6174683a206469766973696f6e206279207a65726f0000000000008152506114da565b600061058183836040518060400160405280601e81526020017f536166654d6174683a207375627472616374696f6e206f766572666c6f77000081525061118a565b600082820183811015610581576040805162461bcd60e51b815260206004820152601b60248201527f536166654d6174683a206164646974696f6e206f766572666c6f770000000000604482015290519081900360640190fd5b6001600160a01b038316610d865760405162461bcd60e51b815260040180806020018281038252602481526020018061166d6024913960400191505060405180910390fd5b6001600160a01b038216610dcb5760405162461bcd60e51b81526004018080602001828103825260228152602001806115636022913960400191505060405180910390fd5b6001600160a01b03808416600081815260016020908152604080832094871680845294825291829020859055815185815291517f8c5be1e5ebec7d5bd14f71427d1e84f3dd0314c0f7b2291e5b200ac8c7c3b9259281900390910190a3505050565b600062f099c0610e63427f000000000000000000000000000000000000000000000000000000000000000063ffffffff610ca516565b10905090565b610e71611311565b15610ead5760405162461bcd60e51b815260040180806020018281038252602a815260200180611585602a913960400191505060405180910390fd5b565b7f00000000000000000000000000000000000000000000000000000000000000006001600160a01b0316816001600160a01b03161415610f205760405162461bcd60e51b815260040180806020018281038252602a8152602001806115f6602a913960400191505060405180910390fd5b50565b6001600160a01b03811615801590610f4457506001600160a01b0381163014155b610f7f5760405162461bcd60e51b81526004018080602001828103825260548152602001806116c36054913960600191505060405180910390fd5b7f00000000000000000000000000000000000000000000000000000000000000006001600160a01b0316816001600160a01b031614158015610ff357507f00000000000000000000000000000000000000000000000000000000000000006001600160a01b0316816001600160a01b031614155b610f205760405162461bcd60e51b81526004018080602001828103825260538152602001806117176053913960600191505060405180910390fd5b6001600160a01b0383166110735760405162461bcd60e51b81526004018080602001828103825260258152602001806116486025913960400191505060405180910390fd5b6001600160a01b0382166110b85760405162461bcd60e51b81526004018080602001828103825260238152602001806115406023913960400191505060405180910390fd5b6110fb816040518060600160405280602681526020016115af602691396001600160a01b038616600090815260208190526040902054919063ffffffff61118a16565b6001600160a01b038085166000908152602081905260408082209390935590841681522054611130908263ffffffff610ce716565b6001600160a01b038084166000818152602081815260409182902094909455805185815290519193928716927fddf252ad1be2c89b69c2b068fc378daa952ba7f163c4a11628f55a4df523b3ef92918290030190a3505050565b600081848411156112195760405162461bcd60e51b81526004018080602001828103825283818151815260200191508051906020019080838360005b838110156111de5781810151838201526020016111c6565b50505050905090810190601f16801561120b5780820380516001836020036101000a031916815260200191505b509250505060405180910390fd5b505050900390565b6001600160a01b03821661127c576040805162461bcd60e51b815260206004820152601f60248201527f45524332303a206d696e7420746f20746865207a65726f206164647265737300604482015290519081900360640190fd5b60025461128f908263ffffffff610ce716565b6002556001600160a01b0382166000908152602081905260409020546112bb908263ffffffff610ce716565b6001600160a01b0383166000818152602081815260408083209490945583518581529351929391927fddf252ad1be2c89b69c2b068fc378daa952ba7f163c4a11628f55a4df523b3ef9281900390910190a35050565b336001600160a01b037f0000000000000000000000000000000000000000000000000000000000000000161490565b7f00000000000000000000000000000000000000000000000000000000000000006001600160a01b031663bb7603f1826040518263ffffffff1660e01b815260040180826001600160a01b03166001600160a01b0316815260200191505060206040518083038186803b1580156113b657600080fd5b505afa1580156113ca573d6000803e3d6000fd5b505050506040513d60208110156113e057600080fd5b5051610f205760405162461bcd60e51b815260040180806020018281038252604781526020018061176a6047913960600191505060405180910390fd5b336001600160a01b037f00000000000000000000000000000000000000000000000000000000000000001614610ead5760405162461bcd60e51b81526004018080602001828103825260328152602001806116916032913960400191505060405180910390fd5b6000838383611491610691565b6040805160208082019690965280820194909452606084019290925260808301523060a0808401919091528151808403909101815260c090920190528051910120949350505050565b600081836115295760405162461bcd60e51b81526020600482018181528351602484015283519092839260449091019190850190808383600083156111de5781810151838201526020016111c6565b50600083858161153557fe5b049594505050505056fe45524332303a207472616e7366657220746f20746865207a65726f206164647265737345524332303a20617070726f766520746f20746865207a65726f20616464726573734c515459546f6b656e3a2063616c6c6572206d757374206e6f7420626520746865206d756c746973696745524332303a207472616e7366657220616d6f756e7420657863656564732062616c616e6365536166654d6174683a206d756c7469706c69636174696f6e206f766572666c6f774c515459546f6b656e3a2073656e646572206d757374206e6f7420626520746865206d756c746973696745524332303a207472616e7366657220616d6f756e74206578636565647320616c6c6f77616e636545524332303a207472616e736665722066726f6d20746865207a65726f206164647265737345524332303a20617070726f76652066726f6d20746865207a65726f20616464726573734c515459546f6b656e3a2063616c6c6572206d75737420626520746865204c5154595374616b696e6720636f6e74726163744c5154593a2043616e6e6f74207472616e7366657220746f6b656e73206469726563746c7920746f20746865204c51545920746f6b656e20636f6e7472616374206f7220746865207a65726f20616464726573734c5154593a2043616e6e6f74207472616e7366657220746f6b656e73206469726563746c7920746f2074686520636f6d6d756e6974792069737375616e6365206f72207374616b696e6720636f6e74726163744c515459546f6b656e3a20726563697069656e74206d7573742062652061204c6f636b7570436f6e7472616374207265676973746572656420696e2074686520466163746f727945524332303a2064656372656173656420616c6c6f77616e63652062656c6f77207a65726fa2646970667358221220ac8b931c1afac8632d6d11c3e45a65d9eb84e0eaac23e97637cd506b00602db464736f6c634300060b0033536166654d6174683a206d756c7469706c69636174696f6e206f766572666c6f77",
  "linkReferences": {},
  "deployedLinkReferences": {}
}