{
  "_format": "hh-sol-artifact-1",
  "contractName": "TellorCaller",
  "sourceName": "contracts/Dependencies/TellorCaller.sol",
  "abi": [
    {
      "inputs": [
        {
          "internalType": "address",
          "name": "_tellorOracle",
          "type": "address"
        }
      ],
      "stateMutability": "nonpayable",
      "type": "constructor"
    },
    {
      "anonymous": false,
      "inputs": [
        {
          "indexed": true,
          "internalType": "address",
          "name": "previousOwner",
          "type": "address"
        },
        {
          "indexed": true,
          "internalType": "address",
          "name": "newOwner",
          "type": "address"
        }
      ],
      "name": "OwnershipTransferred",
      "type": "event"
    },
    {
      "inputs": [
        {
          "internalType": "address",
          "name": "_oracle",
          "type": "address"
        }
      ],
      "name": "Changeoracle",
      "outputs": [],
      "stateMutability": "nonpayable",
      "type": "function"
    },
    {
      "inputs": [
        {
          "internalType": "bytes",
          "name": "_b",
          "type": "bytes"
        }
      ],
      "name": "_sliceUint",
      "outputs": [
        {
          "internalType": "uint256",
          "name": "_x",
          "type": "uint256"
        }
      ],
      "stateMutability": "pure",
      "type": "function"
    },
    {
      "inputs": [
        {
          "internalType": "bytes32",
          "name": "_requestId",
          "type": "bytes32"
        }
      ],
      "name": "getTellorCurrentValue",
      "outputs": [
        {
          "internalType": "bool",
          "name": "ifRerieve",
          "type": "bool"
        },
        {
          "internalType": "uint256",
          "name": "value",
          "type": "uint256"
        },
        {
          "internalType": "uint256",
          "name": "time",
          "type": "uint256"
        }
      ],
      "stateMutability": "view",
      "type": "function"
    },
    {
      "inputs": [],
      "name": "isOwner",
      "outputs": [
        {
          "internalType": "bool",
          "name": "",
          "type": "bool"
        }
      ],
      "stateMutability": "view",
      "type": "function"
    },
    {
      "inputs": [],
      "name": "oracle",
      "outputs": [
        {
          "internalType": "contract IOracle",
          "name": "",
          "type": "address"
        }
      ],
      "stateMutability": "view",
      "type": "function"
    },
    {
      "inputs": [],
      "name": "owner",
      "outputs": [
        {
          "internalType": "address",
          "name": "",
          "type": "address"
        }
      ],
      "stateMutability": "view",
      "type": "function"
    }
  ],
  "bytecode": "0x608060405234801561001057600080fd5b506040516105713803806105718339818101604052602081101561003357600080fd5b5051600080546001600160a01b0319163390811782556040519091907f8be0079c531659141344cd1fd0a4f28419497f9722a3daafe3b4186f6b6457e0908290a3600180546001600160a01b0319166001600160a01b03929092169190911790556104ce806100a36000396000f3fe608060405234801561001057600080fd5b50600436106100625760003560e01c80632b76ae2414610067578063340a13721461008f57806378356905146101455780637dc0d1d0146101825780638da5cb5b146101a65780638f32d59b146101ae575b600080fd5b61008d6004803603602081101561007d57600080fd5b50356001600160a01b03166101ca565b005b610133600480360360208110156100a557600080fd5b810190602081018135600160201b8111156100bf57600080fd5b8201836020820111156100d157600080fd5b803590602001918460018302840111600160201b831117156100f257600080fd5b91908080601f016020809104026020016040519081016040528093929190818152602001838380828437600092019190915250929550610245945050505050565b60408051918252519081900360200190f35b6101626004803603602081101561015b57600080fd5b5035610282565b604080519315158452602084019290925282820152519081900360600190f35b61018a610469565b604080516001600160a01b039092168252519081900360200190f35b61018a610478565b6101b6610487565b604080519115158252519081900360200190f35b6101d2610487565b610223576040805162461bcd60e51b815260206004820181905260248201527f4f776e61626c653a2063616c6c6572206973206e6f7420746865206f776e6572604482015290519081900360640190fd5b600180546001600160a01b0319166001600160a01b0392909216919091179055565b600080805b835181101561027b578161010002915083818151811061026657fe5b016020015160f81c919091019060010161024a565b5092915050565b600080600080600160009054906101000a90046001600160a01b03166001600160a01b031663c0f95d526040518163ffffffff1660e01b815260040160206040518083038186803b1580156102d657600080fd5b505afa1580156102ea573d6000803e3d6000fd5b505050506040513d602081101561030057600080fd5b50516001546040805163adf1639d60e01b8152600481018990529051929350600092610444926001600160a01b03169163adf1639d9160248083019287929190829003018186803b15801561035457600080fd5b505afa158015610368573d6000803e3d6000fd5b505050506040513d6000823e601f3d908101601f19168201604052602081101561039157600080fd5b8101908080516040519392919084600160201b8211156103b057600080fd5b9083019060208201858111156103c557600080fd5b8251600160201b8111828201881017156103de57600080fd5b82525081516020918201929091019080838360005b8381101561040b5781810151838201526020016103f3565b50505050905090810190601f1680156104385780820380516001836020036101000a031916815260200191505b50604052505050610245565b90508015610459576001945092509050610462565b60009450925090505b9193909250565b6001546001600160a01b031681565b6000546001600160a01b031690565b6000546001600160a01b031633149056fea26469706673582212206f257763db2de2b185485fbf8d531e447206990c3e66dd3a3794848d3196de2e64736f6c634300060b0033",
  "linkReferences": {},
  "deployedLinkReferences": {}
}