{
  "_format": "hh-sol-artifact-1",
  "contractName": "TroveManager",
  "sourceName": "contracts/TroveManager.sol",
  "abi": [
    {
      "anonymous": false,
      "inputs": [
        {
          "indexed": false,
          "internalType": "address",
          "name": "_activePoolAddress",
          "type": "address"
        }
      ],
      "name": "ActivePoolAddressChanged",
      "type": "event"
    },
    {
      "anonymous": false,
      "inputs": [
        {
          "indexed": false,
          "internalType": "uint256",
          "name": "_baseRate",
          "type": "uint256"
        }
      ],
      "name": "BaseRateUpdated",
      "type": "event"
    },
    {
      "anonymous": false,
      "inputs": [
        {
          "indexed": false,
          "internalType": "address",
          "name": "_newBorrowerOperationsAddress",
          "type": "address"
        }
      ],
      "name": "BorrowerOperationsAddressChanged",
      "type": "event"
    },
    {
      "anonymous": false,
      "inputs": [
        {
          "indexed": false,
          "internalType": "address",
          "name": "_collSurplusPoolAddress",
          "type": "address"
        }
      ],
      "name": "CollSurplusPoolAddressChanged",
      "type": "event"
    },
    {
      "anonymous": false,
      "inputs": [
        {
          "indexed": false,
          "internalType": "address",
          "name": "_defaultPoolAddress",
          "type": "address"
        }
      ],
      "name": "DefaultPoolAddressChanged",
      "type": "event"
    },
    {
      "anonymous": false,
      "inputs": [
        {
          "indexed": false,
          "internalType": "address",
          "name": "_gasPoolAddress",
          "type": "address"
        }
      ],
      "name": "GasPoolAddressChanged",
      "type": "event"
    },
    {
      "anonymous": false,
      "inputs": [
        {
          "indexed": false,
          "internalType": "address",
          "name": "_lqtyStakingAddress",
          "type": "address"
        }
      ],
      "name": "LQTYStakingAddressChanged",
      "type": "event"
    },
    {
      "anonymous": false,
      "inputs": [
        {
          "indexed": false,
          "internalType": "address",
          "name": "_lqtyTokenAddress",
          "type": "address"
        }
      ],
      "name": "LQTYTokenAddressChanged",
      "type": "event"
    },
    {
      "anonymous": false,
      "inputs": [
        {
          "indexed": false,
          "internalType": "uint256",
          "name": "_L_ETH",
          "type": "uint256"
        },
        {
          "indexed": false,
          "internalType": "uint256",
          "name": "_L_LUSDDebt",
          "type": "uint256"
        }
      ],
      "name": "LTermsUpdated",
      "type": "event"
    },
    {
      "anonymous": false,
      "inputs": [
        {
          "indexed": false,
          "internalType": "address",
          "name": "_newLUSDTokenAddress",
          "type": "address"
        }
      ],
      "name": "LUSDTokenAddressChanged",
      "type": "event"
    },
    {
      "anonymous": false,
      "inputs": [
        {
          "indexed": false,
          "internalType": "uint256",
          "name": "_lastFeeOpTime",
          "type": "uint256"
        }
      ],
      "name": "LastFeeOpTimeUpdated",
      "type": "event"
    },
    {
      "anonymous": false,
      "inputs": [
        {
          "indexed": false,
          "internalType": "uint256",
          "name": "_liquidatedDebt",
          "type": "uint256"
        },
        {
          "indexed": false,
          "internalType": "uint256",
          "name": "_liquidatedColl",
          "type": "uint256"
        },
        {
          "indexed": false,
          "internalType": "uint256",
          "name": "_collGasCompensation",
          "type": "uint256"
        },
        {
          "indexed": false,
          "internalType": "uint256",
          "name": "_LUSDGasCompensation",
          "type": "uint256"
        }
      ],
      "name": "Liquidation",
      "type": "event"
    },
    {
      "anonymous": false,
      "inputs": [
        {
          "indexed": true,
          "internalType": "address",
          "name": "previousOwner",
          "type": "address"
        },
        {
          "indexed": true,
          "internalType": "address",
          "name": "newOwner",
          "type": "address"
        }
      ],
      "name": "OwnershipTransferred",
      "type": "event"
    },
    {
      "anonymous": false,
      "inputs": [
        {
          "indexed": false,
          "internalType": "address",
          "name": "_newPriceFeedAddress",
          "type": "address"
        }
      ],
      "name": "PriceFeedAddressChanged",
      "type": "event"
    },
    {
      "anonymous": false,
      "inputs": [
        {
          "indexed": false,
          "internalType": "uint256",
          "name": "_attemptedLUSDAmount",
          "type": "uint256"
        },
        {
          "indexed": false,
          "internalType": "uint256",
          "name": "_actualLUSDAmount",
          "type": "uint256"
        },
        {
          "indexed": false,
          "internalType": "uint256",
          "name": "_ETHSent",
          "type": "uint256"
        },
        {
          "indexed": false,
          "internalType": "uint256",
          "name": "_ETHFee",
          "type": "uint256"
        }
      ],
      "name": "Redemption",
      "type": "event"
    },
    {
      "anonymous": false,
      "inputs": [
        {
          "indexed": false,
          "internalType": "address",
          "name": "_sortedTrovesAddress",
          "type": "address"
        }
      ],
      "name": "SortedTrovesAddressChanged",
      "type": "event"
    },
    {
      "anonymous": false,
      "inputs": [
        {
          "indexed": false,
          "internalType": "address",
          "name": "_stabilityPoolAddress",
          "type": "address"
        }
      ],
      "name": "StabilityPoolAddressChanged",
      "type": "event"
    },
    {
      "anonymous": false,
      "inputs": [
        {
          "indexed": false,
          "internalType": "uint256",
          "name": "_totalStakesSnapshot",
          "type": "uint256"
        },
        {
          "indexed": false,
          "internalType": "uint256",
          "name": "_totalCollateralSnapshot",
          "type": "uint256"
        }
      ],
      "name": "SystemSnapshotsUpdated",
      "type": "event"
    },
    {
      "anonymous": false,
      "inputs": [
        {
          "indexed": false,
          "internalType": "uint256",
          "name": "_newTotalStakes",
          "type": "uint256"
        }
      ],
      "name": "TotalStakesUpdated",
      "type": "event"
    },
    {
      "anonymous": false,
      "inputs": [
        {
          "indexed": false,
          "internalType": "address",
          "name": "_borrower",
          "type": "address"
        },
        {
          "indexed": false,
          "internalType": "uint256",
          "name": "_newIndex",
          "type": "uint256"
        }
      ],
      "name": "TroveIndexUpdated",
      "type": "event"
    },
    {
      "anonymous": false,
      "inputs": [
        {
          "indexed": true,
          "internalType": "address",
          "name": "_borrower",
          "type": "address"
        },
        {
          "indexed": false,
          "internalType": "uint256",
          "name": "_debt",
          "type": "uint256"
        },
        {
          "indexed": false,
          "internalType": "uint256",
          "name": "_coll",
          "type": "uint256"
        },
        {
          "indexed": false,
          "internalType": "enum TroveManager.TroveManagerOperation",
          "name": "_operation",
          "type": "uint8"
        }
      ],
      "name": "TroveLiquidated",
      "type": "event"
    },
    {
      "anonymous": false,
      "inputs": [
        {
          "indexed": false,
          "internalType": "uint256",
          "name": "_L_ETH",
          "type": "uint256"
        },
        {
          "indexed": false,
          "internalType": "uint256",
          "name": "_L_LUSDDebt",
          "type": "uint256"
        }
      ],
      "name": "TroveSnapshotsUpdated",
      "type": "event"
    },
    {
      "anonymous": false,
      "inputs": [
        {
          "indexed": true,
          "internalType": "address",
          "name": "_borrower",
          "type": "address"
        },
        {
          "indexed": false,
          "internalType": "uint256",
          "name": "_debt",
          "type": "uint256"
        },
        {
          "indexed": false,
          "internalType": "uint256",
          "name": "_coll",
          "type": "uint256"
        },
        {
          "indexed": false,
          "internalType": "uint256",
          "name": "_stake",
          "type": "uint256"
        },
        {
          "indexed": false,
          "internalType": "enum TroveManager.TroveManagerOperation",
          "name": "_operation",
          "type": "uint8"
        }
      ],
      "name": "TroveUpdated",
      "type": "event"
    },
    {
      "inputs": [],
      "name": "BETA",
      "outputs": [
        {
          "internalType": "uint256",
          "name": "",
          "type": "uint256"
        }
      ],
      "stateMutability": "view",
      "type": "function"
    },
    {
      "inputs": [],
      "name": "BOOTSTRAP_PERIOD",
      "outputs": [
        {
          "internalType": "uint256",
          "name": "",
          "type": "uint256"
        }
      ],
      "stateMutability": "view",
      "type": "function"
    },
    {
      "inputs": [],
      "name": "BORROWING_FEE_FLOOR",
      "outputs": [
        {
          "internalType": "uint256",
          "name": "",
          "type": "uint256"
        }
      ],
      "stateMutability": "view",
      "type": "function"
    },
    {
      "inputs": [],
      "name": "CCR",
      "outputs": [
        {
          "internalType": "uint256",
          "name": "",
          "type": "uint256"
        }
      ],
      "stateMutability": "view",
      "type": "function"
    },
    {
      "inputs": [],
      "name": "DECIMAL_PRECISION",
      "outputs": [
        {
          "internalType": "uint256",
          "name": "",
          "type": "uint256"
        }
      ],
      "stateMutability": "view",
      "type": "function"
    },
    {
      "inputs": [],
      "name": "LUSD_GAS_COMPENSATION",
      "outputs": [
        {
          "internalType": "uint256",
          "name": "",
          "type": "uint256"
        }
      ],
      "stateMutability": "view",
      "type": "function"
    },
    {
      "inputs": [],
      "name": "L_ETH",
      "outputs": [
        {
          "internalType": "uint256",
          "name": "",
          "type": "uint256"
        }
      ],
      "stateMutability": "view",
      "type": "function"
    },
    {
      "inputs": [],
      "name": "L_LUSDDebt",
      "outputs": [
        {
          "internalType": "uint256",
          "name": "",
          "type": "uint256"
        }
      ],
      "stateMutability": "view",
      "type": "function"
    },
    {
      "inputs": [],
      "name": "MAX_BORROWING_FEE",
      "outputs": [
        {
          "internalType": "uint256",
          "name": "",
          "type": "uint256"
        }
      ],
      "stateMutability": "view",
      "type": "function"
    },
    {
      "inputs": [],
      "name": "MCR",
      "outputs": [
        {
          "internalType": "uint256",
          "name": "",
          "type": "uint256"
        }
      ],
      "stateMutability": "view",
      "type": "function"
    },
    {
      "inputs": [],
      "name": "MINUTE_DECAY_FACTOR",
      "outputs": [
        {
          "internalType": "uint256",
          "name": "",
          "type": "uint256"
        }
      ],
      "stateMutability": "view",
      "type": "function"
    },
    {
      "inputs": [],
      "name": "MIN_NET_DEBT",
      "outputs": [
        {
          "internalType": "uint256",
          "name": "",
          "type": "uint256"
        }
      ],
      "stateMutability": "view",
      "type": "function"
    },
    {
      "inputs": [],
      "name": "NAME",
      "outputs": [
        {
          "internalType": "string",
          "name": "",
          "type": "string"
        }
      ],
      "stateMutability": "view",
      "type": "function"
    },
    {
      "inputs": [],
      "name": "PERCENT_DIVISOR",
      "outputs": [
        {
          "internalType": "uint256",
          "name": "",
          "type": "uint256"
        }
      ],
      "stateMutability": "view",
      "type": "function"
    },
    {
      "inputs": [],
      "name": "REDEMPTION_FEE_FLOOR",
      "outputs": [
        {
          "internalType": "uint256",
          "name": "",
          "type": "uint256"
        }
      ],
      "stateMutability": "view",
      "type": "function"
    },
    {
      "inputs": [],
      "name": "SECONDS_IN_ONE_MINUTE",
      "outputs": [
        {
          "internalType": "uint256",
          "name": "",
          "type": "uint256"
        }
      ],
      "stateMutability": "view",
      "type": "function"
    },
    {
      "inputs": [
        {
          "internalType": "uint256",
          "name": "",
          "type": "uint256"
        }
      ],
      "name": "TroveOwners",
      "outputs": [
        {
          "internalType": "address",
          "name": "",
          "type": "address"
        }
      ],
      "stateMutability": "view",
      "type": "function"
    },
    {
      "inputs": [
        {
          "internalType": "address",
          "name": "",
          "type": "address"
        }
      ],
      "name": "Troves",
      "outputs": [
        {
          "internalType": "uint256",
          "name": "debt",
          "type": "uint256"
        },
        {
          "internalType": "uint256",
          "name": "coll",
          "type": "uint256"
        },
        {
          "internalType": "uint256",
          "name": "stake",
          "type": "uint256"
        },
        {
          "internalType": "enum TroveManager.Status",
          "name": "status",
          "type": "uint8"
        },
        {
          "internalType": "uint128",
          "name": "arrayIndex",
          "type": "uint128"
        }
      ],
      "stateMutability": "view",
      "type": "function"
    },
    {
      "inputs": [],
      "name": "_100pct",
      "outputs": [
        {
          "internalType": "uint256",
          "name": "",
          "type": "uint256"
        }
      ],
      "stateMutability": "view",
      "type": "function"
    },
    {
      "inputs": [],
      "name": "activePool",
      "outputs": [
        {
          "internalType": "contract IActivePool",
          "name": "",
          "type": "address"
        }
      ],
      "stateMutability": "view",
      "type": "function"
    },
    {
      "inputs": [
        {
          "internalType": "address",
          "name": "_borrower",
          "type": "address"
        }
      ],
      "name": "addTroveOwnerToArray",
      "outputs": [
        {
          "internalType": "uint256",
          "name": "index",
          "type": "uint256"
        }
      ],
      "stateMutability": "nonpayable",
      "type": "function"
    },
    {
      "inputs": [
        {
          "internalType": "address",
          "name": "_borrower",
          "type": "address"
        }
      ],
      "name": "applyPendingRewards",
      "outputs": [],
      "stateMutability": "nonpayable",
      "type": "function"
    },
    {
      "inputs": [],
      "name": "baseRate",
      "outputs": [
        {
          "internalType": "uint256",
          "name": "",
          "type": "uint256"
        }
      ],
      "stateMutability": "view",
      "type": "function"
    },
    {
      "inputs": [
        {
          "internalType": "address[]",
          "name": "_troveArray",
          "type": "address[]"
        }
      ],
      "name": "batchLiquidateTroves",
      "outputs": [],
      "stateMutability": "nonpayable",
      "type": "function"
    },
    {
      "inputs": [],
      "name": "borrowerOperationsAddress",
      "outputs": [
        {
          "internalType": "address",
          "name": "",
          "type": "address"
        }
      ],
      "stateMutability": "view",
      "type": "function"
    },
    {
      "inputs": [
        {
          "internalType": "uint256",
          "name": "_price",
          "type": "uint256"
        }
      ],
      "name": "checkRecoveryMode",
      "outputs": [
        {
          "internalType": "bool",
          "name": "",
          "type": "bool"
        }
      ],
      "stateMutability": "view",
      "type": "function"
    },
    {
      "inputs": [
        {
          "internalType": "address",
          "name": "_borrower",
          "type": "address"
        }
      ],
      "name": "closeTrove",
      "outputs": [],
      "stateMutability": "nonpayable",
      "type": "function"
    },
    {
      "inputs": [],
      "name": "decayBaseRateFromBorrowing",
      "outputs": [],
      "stateMutability": "nonpayable",
      "type": "function"
    },
    {
      "inputs": [
        {
          "internalType": "address",
          "name": "_borrower",
          "type": "address"
        },
        {
          "internalType": "uint256",
          "name": "_collDecrease",
          "type": "uint256"
        }
      ],
      "name": "decreaseTroveColl",
      "outputs": [
        {
          "internalType": "uint256",
          "name": "",
          "type": "uint256"
        }
      ],
      "stateMutability": "nonpayable",
      "type": "function"
    },
    {
      "inputs": [
        {
          "internalType": "address",
          "name": "_borrower",
          "type": "address"
        },
        {
          "internalType": "uint256",
          "name": "_debtDecrease",
          "type": "uint256"
        }
      ],
      "name": "decreaseTroveDebt",
      "outputs": [
        {
          "internalType": "uint256",
          "name": "",
          "type": "uint256"
        }
      ],
      "stateMutability": "nonpayable",
      "type": "function"
    },
    {
      "inputs": [],
      "name": "defaultPool",
      "outputs": [
        {
          "internalType": "contract IDefaultPool",
          "name": "",
          "type": "address"
        }
      ],
      "stateMutability": "view",
      "type": "function"
    },
    {
      "inputs": [
        {
          "internalType": "uint256",
          "name": "_LUSDDebt",
          "type": "uint256"
        }
      ],
      "name": "getBorrowingFee",
      "outputs": [
        {
          "internalType": "uint256",
          "name": "",
          "type": "uint256"
        }
      ],
      "stateMutability": "view",
      "type": "function"
    },
    {
      "inputs": [
        {
          "internalType": "uint256",
          "name": "_LUSDDebt",
          "type": "uint256"
        }
      ],
      "name": "getBorrowingFeeWithDecay",
      "outputs": [
        {
          "internalType": "uint256",
          "name": "",
          "type": "uint256"
        }
      ],
      "stateMutability": "view",
      "type": "function"
    },
    {
      "inputs": [],
      "name": "getBorrowingRate",
      "outputs": [
        {
          "internalType": "uint256",
          "name": "",
          "type": "uint256"
        }
      ],
      "stateMutability": "view",
      "type": "function"
    },
    {
      "inputs": [],
      "name": "getBorrowingRateWithDecay",
      "outputs": [
        {
          "internalType": "uint256",
          "name": "",
          "type": "uint256"
        }
      ],
      "stateMutability": "view",
      "type": "function"
    },
    {
      "inputs": [
        {
          "internalType": "address",
          "name": "_borrower",
          "type": "address"
        },
        {
          "internalType": "uint256",
          "name": "_price",
          "type": "uint256"
        }
      ],
      "name": "getCurrentICR",
      "outputs": [
        {
          "internalType": "uint256",
          "name": "",
          "type": "uint256"
        }
      ],
      "stateMutability": "view",
      "type": "function"
    },
    {
      "inputs": [
        {
          "internalType": "address",
          "name": "_borrower",
          "type": "address"
        }
      ],
      "name": "getEntireDebtAndColl",
      "outputs": [
        {
          "internalType": "uint256",
          "name": "debt",
          "type": "uint256"
        },
        {
          "internalType": "uint256",
          "name": "coll",
          "type": "uint256"
        },
        {
          "internalType": "uint256",
          "name": "pendingLUSDDebtReward",
          "type": "uint256"
        },
        {
          "internalType": "uint256",
          "name": "pendingETHReward",
          "type": "uint256"
        }
      ],
      "stateMutability": "view",
      "type": "function"
    },
    {
      "inputs": [],
      "name": "getEntireSystemColl",
      "outputs": [
        {
          "internalType": "uint256",
          "name": "entireSystemColl",
          "type": "uint256"
        }
      ],
      "stateMutability": "view",
      "type": "function"
    },
    {
      "inputs": [],
      "name": "getEntireSystemDebt",
      "outputs": [
        {
          "internalType": "uint256",
          "name": "entireSystemDebt",
          "type": "uint256"
        }
      ],
      "stateMutability": "view",
      "type": "function"
    },
    {
      "inputs": [
        {
          "internalType": "address",
          "name": "_borrower",
          "type": "address"
        }
      ],
      "name": "getNominalICR",
      "outputs": [
        {
          "internalType": "uint256",
          "name": "",
          "type": "uint256"
        }
      ],
      "stateMutability": "view",
      "type": "function"
    },
    {
      "inputs": [
        {
          "internalType": "address",
          "name": "_borrower",
          "type": "address"
        }
      ],
      "name": "getPendingETHReward",
      "outputs": [
        {
          "internalType": "uint256",
          "name": "",
          "type": "uint256"
        }
      ],
      "stateMutability": "view",
      "type": "function"
    },
    {
      "inputs": [
        {
          "internalType": "address",
          "name": "_borrower",
          "type": "address"
        }
      ],
      "name": "getPendingLUSDDebtReward",
      "outputs": [
        {
          "internalType": "uint256",
          "name": "",
          "type": "uint256"
        }
      ],
      "stateMutability": "view",
      "type": "function"
    },
    {
      "inputs": [
        {
          "internalType": "uint256",
          "name": "_ETHDrawn",
          "type": "uint256"
        }
      ],
      "name": "getRedemptionFeeWithDecay",
      "outputs": [
        {
          "internalType": "uint256",
          "name": "",
          "type": "uint256"
        }
      ],
      "stateMutability": "view",
      "type": "function"
    },
    {
      "inputs": [],
      "name": "getRedemptionRate",
      "outputs": [
        {
          "internalType": "uint256",
          "name": "",
          "type": "uint256"
        }
      ],
      "stateMutability": "view",
      "type": "function"
    },
    {
      "inputs": [],
      "name": "getRedemptionRateWithDecay",
      "outputs": [
        {
          "internalType": "uint256",
          "name": "",
          "type": "uint256"
        }
      ],
      "stateMutability": "view",
      "type": "function"
    },
    {
      "inputs": [
        {
          "internalType": "uint256",
          "name": "_price",
          "type": "uint256"
        }
      ],
      "name": "getTCR",
      "outputs": [
        {
          "internalType": "uint256",
          "name": "",
          "type": "uint256"
        }
      ],
      "stateMutability": "view",
      "type": "function"
    },
    {
      "inputs": [
        {
          "internalType": "address",
          "name": "_borrower",
          "type": "address"
        }
      ],
      "name": "getTroveColl",
      "outputs": [
        {
          "internalType": "uint256",
          "name": "",
          "type": "uint256"
        }
      ],
      "stateMutability": "view",
      "type": "function"
    },
    {
      "inputs": [
        {
          "internalType": "address",
          "name": "_borrower",
          "type": "address"
        }
      ],
      "name": "getTroveDebt",
      "outputs": [
        {
          "internalType": "uint256",
          "name": "",
          "type": "uint256"
        }
      ],
      "stateMutability": "view",
      "type": "function"
    },
    {
      "inputs": [
        {
          "internalType": "uint256",
          "name": "_index",
          "type": "uint256"
        }
      ],
      "name": "getTroveFromTroveOwnersArray",
      "outputs": [
        {
          "internalType": "address",
          "name": "",
          "type": "address"
        }
      ],
      "stateMutability": "view",
      "type": "function"
    },
    {
      "inputs": [],
      "name": "getTroveOwnersCount",
      "outputs": [
        {
          "internalType": "uint256",
          "name": "",
          "type": "uint256"
        }
      ],
      "stateMutability": "view",
      "type": "function"
    },
    {
      "inputs": [
        {
          "internalType": "address",
          "name": "_borrower",
          "type": "address"
        }
      ],
      "name": "getTroveStake",
      "outputs": [
        {
          "internalType": "uint256",
          "name": "",
          "type": "uint256"
        }
      ],
      "stateMutability": "view",
      "type": "function"
    },
    {
      "inputs": [
        {
          "internalType": "address",
          "name": "_borrower",
          "type": "address"
        }
      ],
      "name": "getTroveStatus",
      "outputs": [
        {
          "internalType": "uint256",
          "name": "",
          "type": "uint256"
        }
      ],
      "stateMutability": "view",
      "type": "function"
    },
    {
      "inputs": [
        {
          "internalType": "address",
          "name": "_borrower",
          "type": "address"
        }
      ],
      "name": "hasPendingRewards",
      "outputs": [
        {
          "internalType": "bool",
          "name": "",
          "type": "bool"
        }
      ],
      "stateMutability": "view",
      "type": "function"
    },
    {
      "inputs": [
        {
          "internalType": "address",
          "name": "_borrower",
          "type": "address"
        },
        {
          "internalType": "uint256",
          "name": "_collIncrease",
          "type": "uint256"
        }
      ],
      "name": "increaseTroveColl",
      "outputs": [
        {
          "internalType": "uint256",
          "name": "",
          "type": "uint256"
        }
      ],
      "stateMutability": "nonpayable",
      "type": "function"
    },
    {
      "inputs": [
        {
          "internalType": "address",
          "name": "_borrower",
          "type": "address"
        },
        {
          "internalType": "uint256",
          "name": "_debtIncrease",
          "type": "uint256"
        }
      ],
      "name": "increaseTroveDebt",
      "outputs": [
        {
          "internalType": "uint256",
          "name": "",
          "type": "uint256"
        }
      ],
      "stateMutability": "nonpayable",
      "type": "function"
    },
    {
      "inputs": [],
      "name": "isOwner",
      "outputs": [
        {
          "internalType": "bool",
          "name": "",
          "type": "bool"
        }
      ],
      "stateMutability": "view",
      "type": "function"
    },
    {
      "inputs": [],
      "name": "lastETHError_Redistribution",
      "outputs": [
        {
          "internalType": "uint256",
          "name": "",
          "type": "uint256"
        }
      ],
      "stateMutability": "view",
      "type": "function"
    },
    {
      "inputs": [],
      "name": "lastFeeOperationTime",
      "outputs": [
        {
          "internalType": "uint256",
          "name": "",
          "type": "uint256"
        }
      ],
      "stateMutability": "view",
      "type": "function"
    },
    {
      "inputs": [],
      "name": "lastLUSDDebtError_Redistribution",
      "outputs": [
        {
          "internalType": "uint256",
          "name": "",
          "type": "uint256"
        }
      ],
      "stateMutability": "view",
      "type": "function"
    },
    {
      "inputs": [
        {
          "internalType": "address",
          "name": "_borrower",
          "type": "address"
        }
      ],
      "name": "liquidate",
      "outputs": [],
      "stateMutability": "nonpayable",
      "type": "function"
    },
    {
      "inputs": [
        {
          "internalType": "uint256",
          "name": "_n",
          "type": "uint256"
        }
      ],
      "name": "liquidateTroves",
      "outputs": [],
      "stateMutability": "nonpayable",
      "type": "function"
    },
    {
      "inputs": [],
      "name": "lqtyStaking",
      "outputs": [
        {
          "internalType": "contract ILQTYStaking",
          "name": "",
          "type": "address"
        }
      ],
      "stateMutability": "view",
      "type": "function"
    },
    {
      "inputs": [],
      "name": "lqtyToken",
      "outputs": [
        {
          "internalType": "contract ILQTYToken",
          "name": "",
          "type": "address"
        }
      ],
      "stateMutability": "view",
      "type": "function"
    },
    {
      "inputs": [],
      "name": "lusdToken",
      "outputs": [
        {
          "internalType": "contract ILUSDToken",
          "name": "",
          "type": "address"
        }
      ],
      "stateMutability": "view",
      "type": "function"
    },
    {
      "inputs": [],
      "name": "owner",
      "outputs": [
        {
          "internalType": "address",
          "name": "",
          "type": "address"
        }
      ],
      "stateMutability": "view",
      "type": "function"
    },
    {
      "inputs": [],
      "name": "priceFeed",
      "outputs": [
        {
          "internalType": "contract IPriceFeed",
          "name": "",
          "type": "address"
        }
      ],
      "stateMutability": "view",
      "type": "function"
    },
    {
      "inputs": [
        {
          "internalType": "uint256",
          "name": "_LUSDamount",
          "type": "uint256"
        },
        {
          "internalType": "address",
          "name": "_firstRedemptionHint",
          "type": "address"
        },
        {
          "internalType": "address",
          "name": "_upperPartialRedemptionHint",
          "type": "address"
        },
        {
          "internalType": "address",
          "name": "_lowerPartialRedemptionHint",
          "type": "address"
        },
        {
          "internalType": "uint256",
          "name": "_partialRedemptionHintNICR",
          "type": "uint256"
        },
        {
          "internalType": "uint256",
          "name": "_maxIterations",
          "type": "uint256"
        },
        {
          "internalType": "uint256",
          "name": "_maxFeePercentage",
          "type": "uint256"
        }
      ],
      "name": "redeemCollateral",
      "outputs": [],
      "stateMutability": "nonpayable",
      "type": "function"
    },
    {
      "inputs": [
        {
          "internalType": "address",
          "name": "_borrower",
          "type": "address"
        }
      ],
      "name": "removeStake",
      "outputs": [],
      "stateMutability": "nonpayable",
      "type": "function"
    },
    {
      "inputs": [
        {
          "internalType": "address",
          "name": "",
          "type": "address"
        }
      ],
      "name": "rewardSnapshots",
      "outputs": [
        {
          "internalType": "uint256",
          "name": "ETH",
          "type": "uint256"
        },
        {
          "internalType": "uint256",
          "name": "LUSDDebt",
          "type": "uint256"
        }
      ],
      "stateMutability": "view",
      "type": "function"
    },
    {
      "inputs": [
        {
          "internalType": "address",
          "name": "_borrowerOperationsAddress",
          "type": "address"
        },
        {
          "internalType": "address",
          "name": "_activePoolAddress",
          "type": "address"
        },
        {
          "internalType": "address",
          "name": "_defaultPoolAddress",
          "type": "address"
        },
        {
          "internalType": "address",
          "name": "_stabilityPoolAddress",
          "type": "address"
        },
        {
          "internalType": "address",
          "name": "_gasPoolAddress",
          "type": "address"
        },
        {
          "internalType": "address",
          "name": "_collSurplusPoolAddress",
          "type": "address"
        },
        {
          "internalType": "address",
          "name": "_priceFeedAddress",
          "type": "address"
        },
        {
          "internalType": "address",
          "name": "_lusdTokenAddress",
          "type": "address"
        },
        {
          "internalType": "address",
          "name": "_sortedTrovesAddress",
          "type": "address"
        },
        {
          "internalType": "address",
          "name": "_lqtyTokenAddress",
          "type": "address"
        },
        {
          "internalType": "address",
          "name": "_lqtyStakingAddress",
          "type": "address"
        },
        {
          "internalType": "address",
          "name": "_feemanager",
          "type": "address"
        }
      ],
      "name": "setAddresses",
      "outputs": [],
      "stateMutability": "nonpayable",
      "type": "function"
    },
    {
      "inputs": [
        {
          "internalType": "address",
          "name": "_borrower",
          "type": "address"
        },
        {
          "internalType": "uint256",
          "name": "_num",
          "type": "uint256"
        }
      ],
      "name": "setTroveStatus",
      "outputs": [],
      "stateMutability": "nonpayable",
      "type": "function"
    },
    {
      "inputs": [],
      "name": "sortedTroves",
      "outputs": [
        {
          "internalType": "contract ISortedTroves",
          "name": "",
          "type": "address"
        }
      ],
      "stateMutability": "view",
      "type": "function"
    },
    {
      "inputs": [],
      "name": "stabilityPool",
      "outputs": [
        {
          "internalType": "contract IStabilityPool",
          "name": "",
          "type": "address"
        }
      ],
      "stateMutability": "view",
      "type": "function"
    },
    {
      "inputs": [],
      "name": "totalCollateralSnapshot",
      "outputs": [
        {
          "internalType": "uint256",
          "name": "",
          "type": "uint256"
        }
      ],
      "stateMutability": "view",
      "type": "function"
    },
    {
      "inputs": [],
      "name": "totalStakes",
      "outputs": [
        {
          "internalType": "uint256",
          "name": "",
          "type": "uint256"
        }
      ],
      "stateMutability": "view",
      "type": "function"
    },
    {
      "inputs": [],
      "name": "totalStakesSnapshot",
      "outputs": [
        {
          "internalType": "uint256",
          "name": "",
          "type": "uint256"
        }
      ],
      "stateMutability": "view",
      "type": "function"
    },
    {
      "inputs": [
        {
          "internalType": "address",
          "name": "_borrower",
          "type": "address"
        }
      ],
      "name": "updateStakeAndTotalStakes",
      "outputs": [
        {
          "internalType": "uint256",
          "name": "",
          "type": "uint256"
        }
      ],
      "stateMutability": "nonpayable",
      "type": "function"
    },
    {
      "inputs": [
        {
          "internalType": "address",
          "name": "_borrower",
          "type": "address"
        }
      ],
      "name": "updateTroveRewardSnapshots",
      "outputs": [],
      "stateMutability": "nonpayable",
      "type": "function"
    }
  ],
  "bytecode": "0x608060405234801561001057600080fd5b50600380546001600160a01b031916339081179091556040516000907f8be0079c531659141344cd1fd0a4f28419497f9722a3daafe3b4186f6b6457e0908290a3615b4680620000616000396000f3fe608060405234801561001057600080fd5b506004361061044a5760003560e01c8063794e57241161023c578063b83f91a211610146578063d3d6f843116100c3578063e2ac77b011610087578063e2ac77b014610c6e578063f34862de14610c94578063f36b242514610cba578063f92d34331461065d578063fe2ba84814610cc25761044a565b8063d3d6f84314610bda578063d5b3563514610c06578063d66a255314610c23578063d9a7244414610c49578063dba1c5f214610c665761044a565b8063c52861f21161010a578063c52861f214610b70578063c7b5548114610b78578063cbd138ae14610b80578063d293c71014610ba6578063d380a37c14610bd25761044a565b8063b83f91a214610abe578063b91af97c14610ac6578063bcd3752614610b12578063bf9befb114610b60578063c35bc55014610b685761044a565b806396d711ff116101d4578063a3f4df7e11610198578063a3f4df7e146109ee578063ae91875414610a6b578063b0d8e18114610a73578063b7f8cf9b14610a99578063b82f263d14610aa15761044a565b806396d711ff146109aa5780639976cf45146109b25780639dd233d2146109de578063a20baee614610894578063a3a64017146109e65761044a565b8063794e572414610944578063795d26c31461094c578063797250e3146109545780637f7dde4a1461095c578063807d138d1461096457806382fe3eb91461096c578063887105d3146109925780638da5cb5b1461099a5780638f32d59b146109a25761044a565b8063477d66cf11610358578063631203b0116102d557806372423c171161029957806372423c171461086857806372fe25aa14610894578063734f622d1461089c578063741bef1a1461091f578063756b253e146109275761044a565b8063631203b01461079157806364cee260146107ae578063653d46e7146107d457806366ca4a21146107f15780636ef64338146107f95761044a565b80635733d58f1161031c5780635733d58f146107275780635d6b480f1461072f5780635d8c96091461075b5780635dba4c4a1461078157806361ec893d146107895761044a565b8063477d66cf146106a3578063480cd578146106c05780634870dd9a146106e657806349eefeee146106ee5780634e443d9e146106f65761044a565b80631e8b1c2b116103e657806328d28b5b116103aa57806328d28b5b1461065d5780632b11551a146106655780632e86bbd81461066d5780632f865568146106755780633cc742251461069b5761044a565b80631e8b1c2b1461057c5780631f68f20a1461061f5780631f7af3c31461062757806321e378011461062f57806324092669146106555761044a565b8063048c661d1461044f578063060d49a314610473578063071a75411461048d5780630b0765571461049557806312610e92146104bd57806315d549f1146104e95780631673c79a1461050f57806318f2817a1461054e5780631bf4355514610574575b600080fd5b610457610ce8565b604080516001600160a01b039092168252519081900360200190f35b61047b610cf7565b60408051918252519081900360200190f35b61047b610cfd565b6104bb600480360360208110156104ab57600080fd5b50356001600160a01b0316610d02565b005b61047b600480360360408110156104d357600080fd5b506001600160a01b038135169060200135610d2a565b61047b600480360360208110156104ff57600080fd5b50356001600160a01b0316610d82565b6105356004803603602081101561052557600080fd5b50356001600160a01b0316610da6565b6040805192835260208301919091528051918290030190f35b61047b6004803603602081101561056457600080fd5b50356001600160a01b0316610dbf565b61047b610dd2565b6104bb6004803603602081101561059257600080fd5b8101906020810181356401000000008111156105ad57600080fd5b8201836020820111156105bf57600080fd5b803590602001918460208302840111640100000000831117156105e157600080fd5b919080806020026020016040519081016040528093929190818152602001838360200280828437600092019190915250929550610ddf945050505050565b61047b611181565b610457611187565b61047b6004803603602081101561064557600080fd5b50356001600160a01b0316611196565b61047b6111c0565b61047b6111d3565b61047b6111e4565b61047b6111f6565b6104bb6004803603602081101561068b57600080fd5b50356001600160a01b0316611203565b610457611269565b61047b600480360360208110156106b957600080fd5b5035611278565b61047b600480360360208110156106d657600080fd5b50356001600160a01b031661128b565b61047b6112a9565b61047b6112ae565b6107136004803603602081101561070c57600080fd5b50356112b4565b604080519115158252519081900360200190f35b61047b6112bf565b6104bb6004803603604081101561074557600080fd5b506001600160a01b0381351690602001356112cb565b61047b6004803603602081101561077157600080fd5b50356001600160a01b0316611317565b6104bb6113dd565b61047b611443565b61047b600480360360208110156107a757600080fd5b5035611448565b61047b600480360360208110156107c457600080fd5b50356001600160a01b0316611455565b6104bb600480360360208110156107ea57600080fd5b5035611473565b61047b611821565b61081f6004803603602081101561080f57600080fd5b50356001600160a01b0316611833565b6040518086815260200185815260200184815260200183600481111561084157fe5b60ff1681526001600160801b03909216602083015250604080519182900301945092505050f35b61047b6004803603604081101561087e57600080fd5b506001600160a01b03813516906020013561186d565b61047b6118ca565b6104bb60048036036101808110156108b357600080fd5b506001600160a01b038135811691602081013582169160408201358116916060810135821691608082013581169160a081013582169160c082013581169160e08101358216916101008201358116916101208101358216916101408201358116916101600135166118d6565b610457611cdc565b6104576004803603602081101561093d57600080fd5b5035611ceb565b61047b611d12565b61047b611d1e565b61047b611e1f565b610457611e25565b61047b611e34565b6104bb6004803603602081101561098257600080fd5b50356001600160a01b0316611e3a565b61047b611e4b565b610457611f07565b610713611f16565b61047b611f27565b61047b600480360360408110156109c857600080fd5b506001600160a01b038135169060200135611f2d565b61047b611f60565b610457611f66565b6109f6611f75565b6040805160208082528351818301528351919283929083019185019080838360005b83811015610a30578181015183820152602001610a18565b50505050905090810190601f168015610a5d5780820380516001836020036101000a031916815260200191505b509250505060405180910390f35b610457611f9d565b61047b60048036036020811015610a8957600080fd5b50356001600160a01b0316611fac565b610457611fd3565b61047b60048036036020811015610ab757600080fd5b5035611fe2565b610457611fed565b610aec60048036036020811015610adc57600080fd5b50356001600160a01b0316611ffc565b604080519485526020850193909352838301919091526060830152519081900360800190f35b6104bb600480360360e0811015610b2857600080fd5b508035906001600160a01b03602082013581169160408101358216916060820135169060808101359060a08101359060c00135612060565b61047b6128a5565b61047b6128ab565b61047b6128b2565b61047b6128c4565b6104bb60048036036020811015610b9657600080fd5b50356001600160a01b03166128d0565b61047b60048036036040811015610bbc57600080fd5b506001600160a01b0381351690602001356128e3565b61047b612902565b61047b60048036036040811015610bf057600080fd5b506001600160a01b038135169060200135612908565b61047b60048036036020811015610c1c57600080fd5b503561293e565b61047b60048036036020811015610c3957600080fd5b50356001600160a01b0316612951565b61045760048036036020811015610c5f57600080fd5b503561296c565b61047b612996565b61071360048036036020811015610c8457600080fd5b50356001600160a01b031661299c565b61047b60048036036020811015610caa57600080fd5b50356001600160a01b03166129fa565b61047b612a2b565b6104bb60048036036020811015610cd857600080fd5b50356001600160a01b0316612a38565b6006546001600160a01b031681565b60185481565b600281565b610d0a612a49565b600054600154610d27916001600160a01b03908116911683612a94565b50565b6000610d34612a49565b6001600160a01b0383166000908152600f6020526040812054610d5d908463ffffffff612bb616565b6001600160a01b0385166000908152600f602052604090208190559150505b92915050565b6000610d8c612a49565b610d9582612bff565b6001600160801b031690505b919050565b6015602052600090815260409020805460019091015482565b6000610dc9612a49565b610d7c82612c99565b68056bc75e2d6310000081565b8051610e1c5760405162461bcd60e51b81526004018080602001828103825260368152602001806159cc6036913960400191505060405180910390fd5b6000546001546006546001600160a01b03928316929182169116610e3e6156c4565b610e466156f5565b600260009054906101000a90046001600160a01b03166001600160a01b0316630fdb11cf6040518163ffffffff1660e01b8152600401602060405180830381600087803b158015610e9657600080fd5b505af1158015610eaa573d6000803e3d6000fd5b505050506040513d6020811015610ec057600080fd5b50518252604080516326fcbc6b60e21b815290516001600160a01b03851691639bf2f1ac916004808301926020929190829003018186803b158015610f0457600080fd5b505afa158015610f18573d6000803e3d6000fd5b505050506040513d6020811015610f2e57600080fd5b505160208301528151610f4090612d48565b1580156040840152610f6857610f618585846000015185602001518a612d65565b9050610f80565b610f7d8585846000015185602001518a612f95565b90505b6000816020015111610fc35760405162461bcd60e51b8152600401808060200182810382526022815260200180615ac06022913960400191505060405180910390fd5b826001600160a01b031663335525ad82608001518360a001516040518363ffffffff1660e01b81526004018083815260200182815260200192505050600060405180830381600087803b15801561101957600080fd5b505af115801561102d573d6000803e3d6000fd5b5050505061104585858360c001518460e0015161305d565b610100810151156110c457600854610100820151604080516364a197f360e01b81526001600160a01b039384166004820152602481019290925251918716916364a197f39160448082019260009290919082900301818387803b1580156110ab57600080fd5b505af11580156110bf573d6000803e3d6000fd5b505050505b6110d28582604001516132d5565b602081015160608301526101008101516040820151825161110a92916110fe919063ffffffff612bb616565b9063ffffffff612bb616565b608080840182905260608085015160408086015186840151825193845260208401969096528282015291810193909352517f4152c73dd2614c4f9fc35e8c9cf16013cd588c75b49a4c1673ecffdcbcda94039281900390910190a161117985338360600151846040015161341c565b505050505050565b600d5481565b600a546001600160a01b031681565b6001600160a01b0381166000908152600f602052604081206003015460ff166004811115610d7c57fe5b6064670de0b6b3a76400005b0460050281565b6103e8670de0b6b3a76400006111cc565b60006111f1600d5461351f565b905090565b6801a055690d9db8000081565b61120c81613555565b60408051600180825281830190925260609160208083019080368337019050509050818160008151811061123c57fe5b60200260200101906001600160a01b031690816001600160a01b03168152505061126581610ddf565b5050565b6001546001600160a01b031681565b6000610d7c611285611821565b836135bd565b6001600160a01b03166000908152600f602052604090206001015490565b60c881565b60165490565b6000610d7c82612d48565b6714d1120d7b16000081565b6112d3612a49565b8060048111156112df57fe5b6001600160a01b0383166000908152600f60205260409020600301805460ff1916600183600481111561130e57fe5b02179055505050565b6001600160a01b0381166000908152601560205260408120546013548290611345908363ffffffff612bb616565b905080158061137e575060016001600160a01b0385166000908152600f602052604090206003015460ff16600481111561137b57fe5b14155b1561138e57600092505050610da1565b6001600160a01b0384166000908152600f6020526040812060020154906113d3670de0b6b3a76400006113c7848663ffffffff6135db16565b9063ffffffff61363416565b9695505050505050565b6113e5612a49565b60006113ef613676565b9050670de0b6b3a764000081111561140357fe5b600d8190556040805182815290517fc454ee9b76c52f782a256af821b857ca6e125d1e3333bcede402fec2bed9600c9181900360200190a1610d276136ba565b603c81565b6000610d7c611285612a2b565b6001600160a01b03166000908152600f602052604090206002015490565b61147b615741565b506040805160e081018252600080546001600160a01b0390811683526001548116602084015292820181905260608201819052600c548316608083015260a0820181905260c08201526006549091166114d26156c4565b6114da6156f5565b600260009054906101000a90046001600160a01b03166001600160a01b0316630fdb11cf6040518163ffffffff1660e01b8152600401602060405180830381600087803b15801561152a57600080fd5b505af115801561153e573d6000803e3d6000fd5b505050506040513d602081101561155457600080fd5b50518252604080516326fcbc6b60e21b815290516001600160a01b03851691639bf2f1ac916004808301926020929190829003018186803b15801561159857600080fd5b505afa1580156115ac573d6000803e3d6000fd5b505050506040513d60208110156115c257600080fd5b5051602083015281516115d490612d48565b15801560408401526115fb576115f4848360000151846020015188613716565b905061161b565b611618846000015185602001518460000151856020015189613ab1565b90505b600081602001511161165e5760405162461bcd60e51b8152600401808060200182810382526022815260200180615ac06022913960400191505060405180910390fd5b826001600160a01b031663335525ad82608001518360a001516040518363ffffffff1660e01b81526004018083815260200182815260200192505050600060405180830381600087803b1580156116b457600080fd5b505af11580156116c8573d6000803e3d6000fd5b505050506116e8846000015185602001518360c001518460e0015161305d565b61010081015115611769578351600854610100830151604080516364a197f360e01b81526001600160a01b03938416600482015260248101929092525191909216916364a197f391604480830192600092919082900301818387803b15801561175057600080fd5b505af1158015611764573d6000803e3d6000fd5b505050505b61177b846000015182604001516132d5565b60208101516060830152610100810151604082015182516117a792916110fe919063ffffffff612bb616565b608080840182905260608085015160408086015186840151825193845260208401969096528282015291810193909352517f4152c73dd2614c4f9fc35e8c9cf16013cd588c75b49a4c1673ecffdcbcda94039281900390910190a161181a8460000151338360600151846040015161341c565b5050505050565b60006111f161182e613676565b613be3565b600f6020526000908152604090208054600182015460028301546003909301549192909160ff81169061010090046001600160801b031685565b6000611877612a49565b6001600160a01b0383166000908152600f60205260408120600101546118a3908463ffffffff613c0a16565b6001600160a01b0385166000908152600f6020526040902060010181905591505092915050565b670de0b6b3a764000081565b6118de611f16565b61192f576040805162461bcd60e51b815260206004820181905260248201527f4f776e61626c653a2063616c6c6572206973206e6f7420746865206f776e6572604482015290519081900360640190fd5b6119388c613c64565b6119418b613c64565b61194a8a613c64565b61195389613c64565b61195c88613c64565b61196587613c64565b61196e86613c64565b61197785613c64565b61198084613c64565b61198983613c64565b61199282613c64565b600480546001600160a01b03199081166001600160a01b038f81169182179093556000805483168f85161790556001805483168e85161790556006805483168d85161790556007805483168c85161790556008805483168b85161790556002805483168a8516179055600980548316898516179055600c80548316888516179055600a80548316878516179055600b805483168685161790556005805490921692841692909217905560408051918252517f3ca631ffcd2a9b5d9ae18543fc82f58eb4ca33af9e6ab01b7a8e95331e6ed985916020908290030190a1604080516001600160a01b038d16815290517f78f058b189175430c48dc02699e3a0031ea4ff781536dc2fab847de4babdd8829181900360200190a1604080516001600160a01b038c16815290517f5ee0cae2f063ed938bb55046f6a932fb6ae792bf43624806bb90abe68a50be9b9181900360200190a1604080516001600160a01b038b16815290517f82966d27eea39b038ee0fa30cd16532bb24f6e65d31cb58fb227aa5766cdcc7f9181900360200190a1604080516001600160a01b038a16815290517fcfb07d791fcafc032b35837b50eb84b74df518cf4cc287e8084f47630fa70fa09181900360200190a1604080516001600160a01b038916815290517fe67f36a6e961157d6eff83b91f3af5a62131ceb6f04954ef74f51c1c05e7f88d9181900360200190a1604080516001600160a01b038816815290517f8c537274438aa850a330284665d81a85dd38267d09e4050d416bfc94142db2649181900360200190a1604080516001600160a01b038716815290517f227eec0ec317af6ab1a9587ffa1c84332522eb4c583a908f89babc05f8f339bd9181900360200190a1604080516001600160a01b038616815290517f65f4cf077bc01e4742eb5ad98326f6e95b63548ea24b17f8d5e823111fe788009181900360200190a1604080516001600160a01b038516815290517f2ac6e99201ddc1b6eac6f8f28662d1ecafee131f6eb98c29de54528a9888a7d19181900360200190a1604080516001600160a01b038416815290517f756ebc192164c295bba134b5aacd72cc7aff8098a670d1f0a5f6b3a0b4ce67079181900360200190a1611cce613d13565b505050505050505050505050565b6002546001600160a01b031681565b60168181548110611cf857fe5b6000918252602090912001546001600160a01b0316905081565b670ff59ee833b3000081565b6000805460408051632f5a97e560e11b8152905183926001600160a01b031691635eb52fca916004808301926020929190829003018186803b158015611d6357600080fd5b505afa158015611d77573d6000803e3d6000fd5b505050506040513d6020811015611d8d57600080fd5b505160015460408051632f5a97e560e11b815290519293506000926001600160a01b0390921691635eb52fca91600480820192602092909190829003018186803b158015611dda57600080fd5b505afa158015611dee573d6000803e3d6000fd5b505050506040513d6020811015611e0457600080fd5b50519050611e18828263ffffffff613c0a16565b9250505090565b60175481565b6000546001600160a01b031681565b60115481565b611e42612a49565b610d2781613d5d565b6000805460408051630a7b61df60e11b8152905183926001600160a01b0316916314f6c3be916004808301926020929190829003018186803b158015611e9057600080fd5b505afa158015611ea4573d6000803e3d6000fd5b505050506040513d6020811015611eba57600080fd5b505160015460408051630a7b61df60e11b815290519293506000926001600160a01b03909216916314f6c3be91600480820192602092909190829003018186803b158015611dda57600080fd5b6003546001600160a01b031690565b6003546001600160a01b0316331490565b60125481565b6000611f37612a49565b6001600160a01b0383166000908152600f6020526040812054610d5d908463ffffffff613c0a16565b60135481565b600b546001600160a01b031681565b6040518060400160405280600c81526020016b2a3937bb32a6b0b730b3b2b960a11b81525081565b600c546001600160a01b031681565b6000806000611fba84613dc8565b915091506000611fca8383613e4e565b95945050505050565b6004546001600160a01b031681565b6000610d7c82613e83565b6009546001600160a01b031681565b6001600160a01b0381166000908152600f602052604081208054600190910154909180612028856129fa565b915061203385611317565b9050612045848363ffffffff613c0a16565b9350612057838263ffffffff613c0a16565b92509193509193565b612068615741565b506040805160e0810182526000546001600160a01b03908116825260015481166020830152600954811692820192909252600b5482166060820152600c5482166080820152600854821660a082015260075490911660c08201526120ca61577d565b6120d383613eaf565b6120db613f09565b600260009054906101000a90046001600160a01b03166001600160a01b0316630fdb11cf6040518163ffffffff1660e01b8152600401602060405180830381600087803b15801561212b57600080fd5b505af115801561213f573d6000803e3d6000fd5b505050506040513d602081101561215557600080fd5b505160c0820181905261216790613fcd565b6121708961401c565b61217f8260400151338b61405b565b612187611d1e565b60e0820181905260408084015181516370a0823160e01b815233600482015291516001600160a01b03909116916370a08231916024808301926020929190829003018186803b1580156121d957600080fd5b505afa1580156121ed573d6000803e3d6000fd5b505050506040513d602081101561220357600080fd5b5051111561220d57fe5b888152608082015160c0820151600091612228918b9061411b565b1561223457508761235e565b82608001516001600160a01b0316634d6228316040518163ffffffff1660e01b815260040160206040518083038186803b15801561227157600080fd5b505afa158015612285573d6000803e3d6000fd5b505050506040513d602081101561229b57600080fd5b505190505b6001600160a01b038116158015906122cc5750670ff59ee833b300006122ca828460c001516128e3565b105b1561235e5782608001516001600160a01b031663b72703ac826040518263ffffffff1660e01b815260040180826001600160a01b03166001600160a01b0316815260200191505060206040518083038186803b15801561232b57600080fd5b505afa15801561233f573d6000803e3d6000fd5b505050506040513d602081101561235557600080fd5b505190506122a0565b846123695760001994505b6001600160a01b038116158015906123815750815115155b801561238d5750600085115b156124c157848060019003955050600083608001516001600160a01b031663b72703ac836040518263ffffffff1660e01b815260040180826001600160a01b03166001600160a01b0316815260200191505060206040518083038186803b1580156123f757600080fd5b505afa15801561240b573d6000803e3d6000fd5b505050506040513d602081101561242157600080fd5b5051845160208601519192506124379184612a94565b61243f6157c2565b612456858486600001518760c001518e8e8e61428e565b90508060400151156124695750506124c1565b8051602085015161247f9163ffffffff613c0a16565b602080860191909152810151604085015161249f9163ffffffff613c0a16565b6040850152805184516124b79163ffffffff612bb616565b8452509050612369565b60008260400151116125045760405162461bcd60e51b815260040180806020018281038252602981526020018061586f6029913960400191505060405180910390fd5b61251b82604001518360c001518460e00151614541565b5061252982604001516145e9565b6060830181905260408301516125409190866145f6565b606082015160009061255990600263ffffffff61363416565b90506000612574828560600151612bb690919063ffffffff16565b905084600001516001600160a01b03166364a197f38660600151836040518363ffffffff1660e01b815260040180836001600160a01b03166001600160a01b0316815260200182815260200192505050600060405180830381600087803b1580156125de57600080fd5b505af11580156125f2573d6000803e3d6000fd5b50508651600554604080516364a197f360e01b81526001600160a01b0392831660048201526024810188905290519190921693506364a197f39250604480830192600092919082900301818387803b15801561264d57600080fd5b505af1158015612661573d6000803e3d6000fd5b5050505084606001516001600160a01b0316631e3e2a1a85606001516040518263ffffffff1660e01b815260040180828152602001915050600060405180830381600087803b1580156126b357600080fd5b505af11580156126c7573d6000803e3d6000fd5b50505050606084015160408501516126de91612bb6565b8460800181815250507f43a3f4082a4dbc33d78e317d2497d3a730bc7fc3574159dcea1056e62e5d9ad88c8560200151866040015187606001516040518085815260200184815260200183815260200182815260200194505050505060405180910390a184604001516001600160a01b0316639dc29fac3386602001516040518363ffffffff1660e01b815260040180836001600160a01b03166001600160a01b0316815260200182815260200192505050600060405180830381600087803b1580156127aa57600080fd5b505af11580156127be573d6000803e3d6000fd5b5050505084600001516001600160a01b03166338d995a885602001516040518263ffffffff1660e01b815260040180828152602001915050600060405180830381600087803b15801561281057600080fd5b505af1158015612824573d6000803e3d6000fd5b505086516080870151604080516364a197f360e01b81523360048201526024810192909252516001600160a01b0390921693506364a197f3925060448082019260009290919082900301818387803b15801561287f57600080fd5b505af1158015612893573d6000803e3d6000fd5b50505050505050505050505050505050565b60105481565b6212750081565b60006111f16128bf613676565b61351f565b670ddd4b8c6c7d70d881565b6128d8612a49565b610d2781600261466b565b60008060006128f185613dc8565b9150915060006113d3838387614784565b600e5481565b6000612912612a49565b6001600160a01b0383166000908152600f60205260408120600101546118a3908463ffffffff612bb616565b6000610d7c61294b6128b2565b836147b4565b6001600160a01b03166000908152600f602052604090205490565b60006016828154811061297b57fe5b6000918252602090912001546001600160a01b031692915050565b60145481565b600060016001600160a01b0383166000908152600f602052604090206003015460ff1660048111156129ca57fe5b146129d757506000610da1565b506013546001600160a01b03821660009081526015602052604090205410919050565b6001600160a01b0381166000908152601560205260408120600101546014548290611345908363ffffffff612bb616565b60006111f1600d54613be3565b612a40612a49565b610d2781614813565b6004546001600160a01b03163314612a925760405162461bcd60e51b815260040180806020018281038252603b815260200180615991603b913960400191505060405180910390fd5b565b612a9d8161299c565b15612bb157612aab81613555565b6000612ab682611317565b90506000612ac3836129fa565b6001600160a01b0384166000908152600f6020526040902060010154909150612af2908363ffffffff613c0a16565b6001600160a01b0384166000908152600f60205260409020600181019190915554612b23908263ffffffff613c0a16565b6001600160a01b0384166000908152600f6020526040902055612b4583613d5d565b612b5185858385614863565b6001600160a01b0383166000818152600f602090815260408083208054600182015460029092015483519182529381019190915280820192909252606082019290925290516000805160206159718339815191529181900360800190a250505b505050565b6000612bf883836040518060400160405280601e81526020017f536166654d6174683a207375627472616374696f6e206f766572666c6f770000815250614965565b9392505050565b601680546001808201835560008381527fd833147d7dc355ba459fc788f669e58cfaf9dc25ddcd0702e87d69c7b512428990920180546001600160a01b0319166001600160a01b03861617905591549091612c5a9190612bb6565b6001600160a01b03929092166000908152600f602052604090206003018054610100600160881b0319166101006001600160801b038516021790555090565b6001600160a01b0381166000908152600f60205260408120600101548190612cc0906149fc565b6001600160a01b0384166000908152600f6020526040902060020180549082905560105491925090612d0a908390612cfe908463ffffffff612bb616565b9063ffffffff613c0a16565b601081905560408051918252517f6bac5e0eb3c44eb03a60ab11ec3a2c051771616aecadbcfff2630aabae5203829181900360200190a15092915050565b600080612d5483613e83565b6714d1120d7b160000119392505050565b612d6d6156f5565b612d756157e5565b612d7d6156f5565b84825260006080830152612d8f611d1e565b60a0830152612d9c611e4b565b60c0830152600060208301525b835182602001511015612f8a5783826020015181518110612dc657fe5b6020908102919091018101516001600160a01b0316606084018190526000908152600f909152604090206003015460019060ff166004811115612e0557fe5b14612e0f57612f7a565b612e1d8260600151876128e3565b60408301526080820151612f1c57670ff59ee833b30000826040015110158015612e4657508151155b15612e5057612f7a565b6000612e658360c001518460a0015189614784565b9050612e828989856060015186604001518760000151868d614a38565b60808101518451919350612e9c919063ffffffff612bb616565b8352608082015160a0840151612eb79163ffffffff612bb616565b8360a0018181525050612eec8261010001516110fe84604001516110fe8660a001518860c00151612bb690919063ffffffff16565b60c0840152612efb8483614d6b565b9350612f108360c001518460a0015189614e82565b15608084015250612f7a565b81608001518015612f385750670ff59ee833b300008260400151105b15612f7a57612f51888884606001518560000151614ea3565b60808101518351919250612f6b919063ffffffff612bb616565b8252612f778382614d6b565b92505b6020820180516001019052612da9565b505095945050505050565b612f9d6156f5565b612fa56157e5565b612fad6156f5565b848252600060208301525b835182602001511015612f8a5783826020015181518110612fd557fe5b60209081029190910101516001600160a01b031660608301819052612ffa90876128e3565b60408301819052670ff59ee833b30000111561304d57613024888884606001518560000151614ea3565b6080810151835191925061303e919063ffffffff612bb616565b825261304a8382614d6b565b92505b6020820180516001019052612fb8565b81613067576132cf565b60175460009061308990612cfe84670de0b6b3a764000063ffffffff6135db16565b905060006130ae601854612cfe670de0b6b3a7640000876135db90919063ffffffff16565b905060006130c76010548461363490919063ffffffff16565b905060006130e06010548461363490919063ffffffff16565b90506131076130fa601054846135db90919063ffffffff16565b859063ffffffff612bb616565b60175560105461312f9061312290839063ffffffff6135db16565b849063ffffffff612bb616565b601855601354613145908363ffffffff613c0a16565b60135560145461315b908263ffffffff613c0a16565b601481905560135460408051918252602082019290925281517f9f8bc8ab0daf5bceef75ecfd2085d1fcc6548c657ea970d9a23a60610d0737e3929181900390910190a1876001600160a01b03166338d995a8876040518263ffffffff1660e01b815260040180828152602001915050600060405180830381600087803b1580156131e557600080fd5b505af11580156131f9573d6000803e3d6000fd5b50505050866001600160a01b031663cfb9329a876040518263ffffffff1660e01b815260040180828152602001915050600060405180830381600087803b15801561324357600080fd5b505af1158015613257573d6000803e3d6000fd5b50505050876001600160a01b03166364a197f388876040518363ffffffff1660e01b815260040180836001600160a01b03166001600160a01b0316815260200182815260200192505050600060405180830381600087803b1580156132bb57600080fd5b505af1158015611cce573d6000803e3d6000fd5b50505050565b6010546011819055506000826001600160a01b03166314f6c3be6040518163ffffffff1660e01b815260040160206040518083038186803b15801561331957600080fd5b505afa15801561332d573d6000803e3d6000fd5b505050506040513d602081101561334357600080fd5b505160015460408051630a7b61df60e11b815290519293506000926001600160a01b03909216916314f6c3be91600480820192602092909190829003018186803b15801561339057600080fd5b505afa1580156133a4573d6000803e3d6000fd5b505050506040513d60208110156133ba57600080fd5b505190506133d281612cfe848663ffffffff612bb616565b601281905560115460408051918252602082019290925281517f51bf4c63ec3cba9d03d43238abbdd979dd91bd16d9895c74ceea9118c7baaf60929181900390910190a150505050565b811561349b5760095460075460408051631062c15f60e11b81526001600160a01b039283166004820152868316602482015260448101869052905191909216916320c582be91606480830192600092919082900301818387803b15801561348257600080fd5b505af1158015613496573d6000803e3d6000fd5b505050505b80156132cf57836001600160a01b03166364a197f384836040518363ffffffff1660e01b815260040180836001600160a01b03166001600160a01b0316815260200182815260200192505050600060405180830381600087803b15801561350157600080fd5b505af1158015613515573d6000803e3d6000fd5b5050505050505050565b6000610d7c613547836103e8670de0b6b3a76400005b04600502613c0a90919063ffffffff16565b670de0b6b3a7640000615012565b60016001600160a01b0382166000908152600f602052604090206003015460ff16600481111561358157fe5b14610d275760405162461bcd60e51b815260040180806020018281038252602f815260200180615ae2602f913960400191505060405180910390fd5b6000612bf8670de0b6b3a76400006113c7858563ffffffff6135db16565b6000826135ea57506000610d7c565b828202828482816135f757fe5b0414612bf85760405162461bcd60e51b81526004018080602001828103825260218152602001806159026021913960400191505060405180910390fd5b6000612bf883836040518060400160405280601a81526020017f536166654d6174683a206469766973696f6e206279207a65726f000000000000815250615028565b60008061368161508d565b90506000613697670ddd4b8c6c7d70d8836150a9565b9050611e18670de0b6b3a76400006113c783600d546135db90919063ffffffff16565b60006136d1600e5442612bb690919063ffffffff16565b9050603c8110610d275742600e81905560408051918252517f860f8d2f0c74dd487e89e2883e3b25b8159ce1e1b3433a291cba7b82c508f3bc9181900360200190a150565b61371e6156f5565b6137266157e5565b61372e6156f5565b84825260006080830152613740611d1e565b60a083015261374d611e4b565b8260c001818152505086608001516001600160a01b0316634d6228316040518163ffffffff1660e01b815260040160206040518083038186803b15801561379357600080fd5b505afa1580156137a7573d6000803e3d6000fd5b505050506040513d60208110156137bd57600080fd5b50516001600160a01b039081166060840152608088015160408051631e22314360e01b815290516000939290921691631e22314391600480820192602092909190829003018186803b15801561381257600080fd5b505afa158015613826573d6000803e3d6000fd5b505050506040513d602081101561383c57600080fd5b50516000602085015290505b8483602001511080156138715750806001600160a01b031683606001516001600160a01b031614155b15613aa657600088608001516001600160a01b031663b72703ac85606001516040518263ffffffff1660e01b815260040180826001600160a01b03166001600160a01b0316815260200191505060206040518083038186803b1580156138d657600080fd5b505afa1580156138ea573d6000803e3d6000fd5b505050506040513d602081101561390057600080fd5b5051606085015190915061391490896128e3565b60408501526080840151613a1857670ff59ee833b3000084604001511015801561393d57508351155b156139485750613aa6565b600061395d8560c001518660a001518b614784565b8a5160208c015160608801516040890151895194955061397e94868f614a38565b60808101518651919550613998919063ffffffff612bb616565b8552608084015160a08601516139b39163ffffffff612bb616565b8560a00181815250506139e88461010001516110fe86604001516110fe8860a001518a60c00151612bb690919063ffffffff16565b60c08601526139f78685614d6b565b9550613a0c8560c001518660a001518b614e82565b15608086015250613a88565b83608001518015613a345750670ff59ee833b300008460400151105b15613a8257613a5589600001518a6020015186606001518760000151614ea3565b60808101518551919450613a6f919063ffffffff612bb616565b8452613a7b8584614d6b565b9450613a88565b50613aa6565b6001600160a01b031660608401526020830180516001019052613848565b505050949350505050565b613ab96156f5565b613ac16157e5565b613ac96156f5565b600c54858352600060208401526001600160a01b03165b8483602001511015613bd757806001600160a01b0316634d6228316040518163ffffffff1660e01b815260040160206040518083038186803b158015613b2557600080fd5b505afa158015613b39573d6000803e3d6000fd5b505050506040513d6020811015613b4f57600080fd5b50516001600160a01b031660608401819052613b6b90886128e3565b60408401819052670ff59ee833b300001115613bc257613b95898985606001518660000151614ea3565b60808101518451919350613baf919063ffffffff612bb616565b8352613bbb8483614d6b565b9350613bc7565b613bd7565b6020830180516001019052613ae0565b50505095945050505050565b6000610d7c613bfd836103e8670de0b6b3a7640000613535565b66b1a2bc2ec50000615012565b600082820183811015612bf8576040805162461bcd60e51b815260206004820152601b60248201527f536166654d6174683a206164646974696f6e206f766572666c6f770000000000604482015290519081900360640190fd5b6001600160a01b038116613cbf576040805162461bcd60e51b815260206004820152601e60248201527f4163636f756e742063616e6e6f74206265207a65726f20616464726573730000604482015290519081900360640190fd5b803b80611265576040805162461bcd60e51b815260206004820181905260248201527f4163636f756e7420636f64652073697a652063616e6e6f74206265207a65726f604482015290519081900360640190fd5b6003546040516000916001600160a01b0316907f8be0079c531659141344cd1fd0a4f28419497f9722a3daafe3b4186f6b6457e0908390a3600380546001600160a01b0319169055565b601380546001600160a01b0383166000908152601560209081526040918290209283556014546001909301839055925481519081529283019190915280517fc437f324d85e369394148dd9d62f98f534b382e01ed3dd2eb98138fb6d3ab49a9281900390910190a150565b6000806000613dd684611317565b90506000613de3856129fa565b6001600160a01b0386166000908152600f602052604081206001015491925090613e13908463ffffffff613c0a16565b6001600160a01b0387166000908152600f602052604081205491925090613e40908463ffffffff613c0a16565b919550909350505050915091565b60008115613e7a57613e73826113c78568056bc75e2d6310000063ffffffff6135db16565b9050610d7c565b50600019610d7c565b600080613e8e611e4b565b90506000613e9a611d1e565b9050613ea7828286614784565b949350505050565b6611c37937e080008110801590613ece5750670de0b6b3a76400008111155b610d275760405162461bcd60e51b8152600401808060200182810382526030815260200180615a666030913960400191505060405180910390fd5b600a5460408051631e425be160e11b815290516000926001600160a01b031691633c84b7c2916004808301926020929190829003018186803b158015613f4e57600080fd5b505afa158015613f62573d6000803e3d6000fd5b505050506040513d6020811015613f7857600080fd5b50519050613f8f816212750063ffffffff613c0a16565b421015610d275760405162461bcd60e51b81526004018080602001828103825260408152602001806158c26040913960400191505060405180910390fd5b670ff59ee833b30000613fdf82613e83565b1015610d275760405162461bcd60e51b815260040180806020018281038252602a815260200180615a96602a913960400191505060405180910390fd5b60008111610d275760405162461bcd60e51b815260040180806020018281038252602e815260200180615a02602e913960400191505060405180910390fd5b80836001600160a01b03166370a08231846040518263ffffffff1660e01b815260040180826001600160a01b03166001600160a01b0316815260200191505060206040518083038186803b1580156140b257600080fd5b505afa1580156140c6573d6000803e3d6000fd5b505050506040513d60208110156140dc57600080fd5b50511015612bb15760405162461bcd60e51b815260040180806020018281038252604e815260200180615923604e913960600191505060405180910390fd5b60006001600160a01b03831615806141b25750836001600160a01b0316635dbe47e8846040518263ffffffff1660e01b815260040180826001600160a01b03166001600160a01b0316815260200191505060206040518083038186803b15801561418457600080fd5b505afa158015614198573d6000803e3d6000fd5b505050506040513d60208110156141ae57600080fd5b5051155b806141cd5750670ff59ee833b300006141cb84846128e3565b105b156141da57506000612bf8565b6000846001600160a01b031663765e0159856040518263ffffffff1660e01b815260040180826001600160a01b03166001600160a01b0316815260200191505060206040518083038186803b15801561423257600080fd5b505afa158015614246573d6000803e3d6000fd5b505050506040513d602081101561425c57600080fd5b505190506001600160a01b0381161580611fca5750670ff59ee833b3000061428482856128e3565b1095945050505050565b6142966157c2565b6001600160a01b0387166000908152600f60205260409020546142d39087906142ce906801a055690d9db8000063ffffffff612bb616565b615012565b8082526142f49086906113c790670de0b6b3a764000063ffffffff6135db16565b60208083019190915281516001600160a01b0389166000908152600f90925260408220546143279163ffffffff612bb616565b6020808401516001600160a01b038b166000908152600f9092526040822060010154929350909161435d9163ffffffff612bb616565b90506801a055690d9db800008214156143f65761437989614813565b61438489600461466b565b6143998a8a6801a055690d9db8000084615154565b886001600160a01b031660008051602061597183398151915260008060006003604051808581526020018481526020018381526020018260038111156143db57fe5b60ff16815260200194505050505060405180910390a2614533565b60006144028284613e4e565b90508481141580614423575068056bc75e2d6310000061442184615309565b105b156144375750506001604083015250614536565b60808b01516040805163015f109360e51b81526001600160a01b038d81166004830152602482018590528a81166044830152898116606483015291519190921691632be2126091608480830192600092919082900301818387803b15801561449e57600080fd5b505af11580156144b2573d6000803e3d6000fd5b5050506001600160a01b038b166000908152600f60205260409020848155600101839055506144e08a612c99565b506001600160a01b038a166000818152600f6020908152604091829020600201548251878152918201869052818301526003606082015290516000805160206159718339815191529181900360800190a2505b50505b979650505050505050565b60008061454c613676565b90506000614564846113c7888863ffffffff6135db16565b9050600061458961457c83600263ffffffff61363416565b849063ffffffff613c0a16565b905061459d81670de0b6b3a7640000615012565b9050600081116145a957fe5b600d8190556040805182815290517fc454ee9b76c52f782a256af821b857ca6e125d1e3333bcede402fec2bed9600c9181900360200190a16113d36136ba565b6000610d7c61294b6111e4565b6000614614836113c786670de0b6b3a764000063ffffffff6135db16565b9050818111156132cf576040805162461bcd60e51b815260206004820152601d60248201527f4665652065786365656465642070726f7669646564206d6178696d756d000000604482015290519081900360640190fd5b600081600481111561467957fe5b141580156146935750600181600481111561469057fe5b14155b61469957fe5b6016546146a581615324565b6001600160a01b0383166000908152600f60205260409020600301805483919060ff191660018360048111156146d757fe5b02179055506001600160a01b0383166000908152600f6020908152604080832060018082018590559084905560159092528220828155015561471983826153dd565b600c5460408051631484968760e11b81526001600160a01b038681166004830152915191909216916329092d0e91602480830192600092919082900301818387803b15801561476757600080fd5b505af115801561477b573d6000803e3d6000fd5b50505050505050565b600082156147ab5760006147a2846113c7878663ffffffff6135db16565b9150612bf89050565b50600019612bf8565b6000806147d3670de0b6b3a76400006113c7868663ffffffff6135db16565b9050828110612bf85760405162461bcd60e51b8152600401808060200182810382526036815260200180615a306036913960400191505060405180910390fd5b6001600160a01b0381166000908152600f6020526040902060020154601054614842908263ffffffff612bb616565b601055506001600160a01b03166000908152600f6020526040812060020155565b826001600160a01b03166338d995a8836040518263ffffffff1660e01b815260040180828152602001915050600060405180830381600087803b1580156148a957600080fd5b505af11580156148bd573d6000803e3d6000fd5b50505050836001600160a01b031663cfb9329a836040518263ffffffff1660e01b815260040180828152602001915050600060405180830381600087803b15801561490757600080fd5b505af115801561491b573d6000803e3d6000fd5b50505050826001600160a01b031663be41205f826040518263ffffffff1660e01b815260040180828152602001915050600060405180830381600087803b15801561350157600080fd5b600081848411156149f45760405162461bcd60e51b81526004018080602001828103825283818151815260200191508051906020019080838360005b838110156149b95781810151838201526020016149a1565b50505050905090810190601f1680156149e65780820380516001836020036101000a031916815260200191505b509250505060405180910390fd5b505050900390565b60008060125460001415614a11575081610d7c565b600060115411614a1d57fe5b612bf86012546113c7601154866135db90919063ffffffff16565b614a406156f5565b614a4861582d565b601654600110614a585750614536565b614a6187611ffc565b60408501526020848101919091528401819052908352614a8090615584565b604083018190526801a055690d9db8000060608401526020830151614aaa9163ffffffff612bb616565b8152670de0b6b3a76400008611614bb257614acf898983602001518460400151614863565b614ad887614813565b60006080830181905260a0830152815160c0830152805160e0830152614aff87600361466b565b866001600160a01b031660008051602061584f83398151915283600001518460200151600260405180848152602001838152602001826003811115614b4057fe5b60ff168152602001935050505060405180910390a2866001600160a01b03166000805160206159718339815191526000806000600260405180858152602001848152602001838152602001826003811115614b9757fe5b60ff16815260200194505050505060405180910390a2614d5f565b670de0b6b3a764000086118015614bd05750670ff59ee833b3000086105b15614c2057614be9898983602001518460400151614863565b614bf287614813565b81518151614c0191908761558b565b60e086015260c085015260a08401526080830152614aff87600361466b565b670ff59ee833b300008610158015614c3757508386105b8015614c44575081518510155b15614d4e57614c5d898983602001518460400151614863565b84614c6457fe5b614c6d87614813565b614c8082600001518360200151856155f7565b9150614c8d87600361466b565b61010082015115614d0d5760085461010083015160408051633f10abab60e01b81526001600160a01b038b81166004830152602482019390935290519190921691633f10abab91604480830192600092919082900301818387803b158015614cf457600080fd5b505af1158015614d08573d6000803e3d6000fd5b505050505b866001600160a01b031660008051602061584f83398151915283600001518460a00151600260405180848152602001838152602001826003811115614b4057fe5b614d566156f5565b91506145369050565b50979650505050505050565b614d736156f5565b60408083015190840151614d8c9163ffffffff613c0a16565b604082015260608083015190840151614daa9163ffffffff613c0a16565b606082015281516020840151614dc59163ffffffff613c0a16565b6020808301919091528201518351614de29163ffffffff613c0a16565b815260808083015190840151614dfd9163ffffffff613c0a16565b608082015260a08083015190840151614e1b9163ffffffff613c0a16565b60a082015260c08083015190840151614e399163ffffffff613c0a16565b60c082015260e08083015190840151614e579163ffffffff613c0a16565b60e08201526101008083015190840151614e769163ffffffff613c0a16565b61010082015292915050565b600080614e90858585614784565b6714d1120d7b1600001195945050505050565b614eab6156f5565b614eb361582d565b614ebc84611ffc565b60408501908152602085810192835286019290925291845290519051614ee6918891889190614863565b614eef84614813565b614efc8260200151615584565b604083018190526801a055690d9db8000060608401526020830151600091614f2a919063ffffffff612bb616565b9050614f3b8360000151828661558b565b60e087015260c086015260a08501526080840152614f5a85600361466b565b846001600160a01b031660008051602061584f83398151915284600001518560200151600160405180848152602001838152602001826003811115614f9b57fe5b60ff168152602001935050505060405180910390a2846001600160a01b03166000805160206159718339815191526000806000600160405180858152602001848152602001838152602001826003811115614ff257fe5b60ff16815260200194505050505060405180910390a25050949350505050565b60008183106150215781612bf8565b5090919050565b600081836150775760405162461bcd60e51b81526020600482018181528351602484015283519092839260449091019190850190808383600083156149b95781810151838201526020016149a1565b50600083858161508357fe5b0495945050505050565b60006111f1603c6113c7600e5442612bb690919063ffffffff16565b6000631f5405008211156150bf57631f54050091505b816150d35750670de0b6b3a7640000610d7c565b670de0b6b3a764000083835b600181111561514a5760028106615114576150fa8283615691565b915061510d81600263ffffffff61363416565b9050615145565b61511e8284615691565b925061512a8283615691565b915061514260026113c783600163ffffffff612bb616565b90505b6150df565b6113d38284615691565b6040808501516007548251632770a7eb60e21b81526001600160a01b039182166004820152602481018690529251911691639dc29fac91604480830192600092919082900301818387803b1580156151ab57600080fd5b505af11580156151bf573d6000803e3d6000fd5b5050505083600001516001600160a01b03166338d995a8836040518263ffffffff1660e01b815260040180828152602001915050600060405180830381600087803b15801561520d57600080fd5b505af1158015615221573d6000803e3d6000fd5b505050508360a001516001600160a01b0316633f10abab84836040518363ffffffff1660e01b815260040180836001600160a01b03166001600160a01b0316815260200182815260200192505050600060405180830381600087803b15801561528957600080fd5b505af115801561529d573d6000803e3d6000fd5b5050505083600001516001600160a01b03166364a197f38560a00151836040518363ffffffff1660e01b815260040180836001600160a01b03166001600160a01b0316815260200182815260200192505050600060405180830381600087803b15801561350157600080fd5b6000610d7c826801a055690d9db8000063ffffffff612bb616565b6001811180156153a25750600c546040805163de8fa43160e01b815290516001926001600160a01b03169163de8fa431916004808301926020929190829003018186803b15801561537457600080fd5b505afa158015615388573d6000803e3d6000fd5b505050506040513d602081101561539e57600080fd5b5051115b610d275760405162461bcd60e51b815260040180806020018281038252602a815260200180615898602a913960400191505060405180910390fd5b6001600160a01b0382166000908152600f602052604081206003015460ff169081600481111561540957fe5b141580156154235750600181600481111561542057fe5b14155b61542957fe5b6001600160a01b0383166000908152600f602052604081206003015461010090046001600160801b0316908390615461826001612bb6565b905080836001600160801b0316111561547657fe5b60006016828154811061548557fe5b600091825260209091200154601680546001600160a01b03909216925082916001600160801b0387169081106154b757fe5b600091825260208083209190910180546001600160a01b0319166001600160a01b03948516179055918316808252600f83526040918290206003018054610100600160881b0319166101006001600160801b038a169081029190911790915582519182529281019290925280517f02b04ae5f7be9ca7c103293a2aa15f3c339d15d6eda53b721fef7b0e609c831a9281900390910190a1601680548061555957fe5b600082815260209020810160001990810180546001600160a01b031916905501905550505050505050565b60c8900490565b600080808084156155e1576155a08786615012565b93506155b6876113c7888763ffffffff6135db16565b92506155c8878563ffffffff612bb616565b91506155da868463ffffffff612bb616565b90506155ee565b5060009250829150859050845b93509350935093565b6155ff6156f5565b838152602081018390526000615627836113c787670ff59ee833b3000063ffffffff6135db16565b905061563281615584565b604083018190526801a055690d9db8000060608401526080830186905261566090829063ffffffff612bb616565b60a0830152615675848263ffffffff612bb616565b61010083015250600060c0820181905260e08201529392505050565b6000806156a4848463ffffffff6135db16565b9050613ea7670de0b6b3a76400006113c7836706f05b59d3b20000613c0a565b6040518060a00160405280600081526020016000815260200160001515815260200160008152602001600081525090565b6040518061012001604052806000815260200160008152602001600081526020016000815260200160008152602001600081526020016000815260200160008152602001600081525090565b6040805160e081018252600080825260208201819052918101829052606081018290526080810182905260a0810182905260c081019190915290565b60405180610100016040528060008152602001600081526020016000815260200160008152602001600081526020016000815260200160008152602001600081525090565b604051806060016040528060008152602001600081526020016000151581525090565b6040518060e0016040528060008152602001600081526020016000815260200160006001600160a01b0316815260200160001515815260200160008152602001600081525090565b6040518060600160405280600081526020016000815260200160008152509056feea67486ed7ebe3eea8ab3390efd4a3c8aae48be5bea27df104a8af786c40843454726f76654d616e616765723a20556e61626c6520746f2072656465656d20616e7920616d6f756e7454726f76654d616e616765723a204f6e6c79206f6e652074726f766520696e207468652073797374656d54726f76654d616e616765723a20526564656d7074696f6e7320617265206e6f7420616c6c6f77656420647572696e6720626f6f747374726170207068617365536166654d6174683a206d756c7469706c69636174696f6e206f766572666c6f7754726f76654d616e616765723a2052657175657374656420726564656d7074696f6e20616d6f756e74206d757374206265203c3d20757365722773204c55534420746f6b656e2062616c616e6365c3770d654ed33aeea6bf11ac8ef05d02a6a04ed4686dd2f624d853bbec43cc8b54726f76654d616e616765723a2043616c6c6572206973206e6f742074686520426f72726f7765724f7065726174696f6e7320636f6e747261637454726f76654d616e616765723a2043616c6c646174612061646472657373206172726179206d757374206e6f7420626520656d70747954726f76654d616e616765723a20416d6f756e74206d7573742062652067726561746572207468616e207a65726f54726f76654d616e616765723a2046656520776f756c642065617420757020616c6c2072657475726e656420636f6c6c61746572616c4d6178206665652070657263656e74616765206d757374206265206265747765656e20302e352520616e64203130302554726f76654d616e616765723a2043616e6e6f742072656465656d207768656e20544352203c204d435254726f76654d616e616765723a206e6f7468696e6720746f206c697175696461746554726f76654d616e616765723a2054726f766520646f6573206e6f74206578697374206f7220697320636c6f736564a26469706673582212201e1d30221445c5ca12f4e80e8d38be398b610c5fad0eeb933605adca4ae98d2764736f6c634300060b0033",
  "linkReferences": {},
  "deployedLinkReferences": {}
}